{"contracts/Flashbot.sol":{"FlashswapMultiPool":{"abi":[{"anonymous":false,"inputs":[{"indexed":true,"internalType":"address","name":"previousOwner","type":"address"},{"indexed":true,"internalType":"address","name":"newOwner","type":"address"}],"name":"OwnershipTransferred","type":"event"},{"stateMutability":"nonpayable","type":"fallback"},{"inputs":[{"components":[{"internalType":"uint256","name":"reserve0","type":"uint256"},{"internalType":"uint256","name":"reserve1","type":"uint256"},{"internalType":"bool","name":"isToken0IsIntermediaryToken","type":"bool"},{"internalType":"uint256","name":"oldAmount","type":"uint256"},{"internalType":"uint256","name":"newAmount","type":"uint256"},{"internalType":"uint256","name":"swapFee","type":"uint256"},{"internalType":"address","name":"token0Address","type":"address"},{"internalType":"address","name":"token1Address","type":"address"},{"internalType":"address","name":"poolAddress","type":"address"}],"internalType":"struct KChecker","name":"k","type":"tuple"}],"name":"checkK","outputs":[{"internalType":"bool","name":"","type":"bool"}],"stateMutability":"view","type":"function"},{"inputs":[{"components":[{"internalType":"address","name":"poolAddress","type":"address"},{"internalType":"address","name":"token0","type":"address"},{"internalType":"address","name":"token1","type":"address"},{"internalType":"uint256","name":"token0Reserve","type":"uint256"},{"internalType":"uint256","name":"token1Reserve","type":"uint256"},{"internalType":"uint256","name":"swapFee","type":"uint256"}],"internalType":"struct Pool[]","name":"poolPath","type":"tuple[]"}],"name":"logCaseString","outputs":[],"stateMutability":"view","type":"function"},{"inputs":[],"name":"owner","outputs":[{"internalType":"address","name":"","type":"address"}],"stateMutability":"view","type":"function"},{"inputs":[],"name":"renounceOwnership","outputs":[],"stateMutability":"nonpayable","type":"function"},{"inputs":[{"components":[{"internalType":"address","name":"poolAddress","type":"address"},{"internalType":"address","name":"token0","type":"address"},{"internalType":"address","name":"token1","type":"address"},{"internalType":"uint256","name":"token0Reserve","type":"uint256"},{"internalType":"uint256","name":"token1Reserve","type":"uint256"},{"internalType":"uint256","name":"swapFee","type":"uint256"}],"internalType":"struct Pool[]","name":"poolPath","type":"tuple[]"},{"internalType":"address","name":"baseToken","type":"address"},{"internalType":"uint256","name":"debtAmount","type":"uint256"},{"internalType":"string","name":"caseId","type":"string"}],"name":"startSwapInMultiPool","outputs":[],"stateMutability":"nonpayable","type":"function"},{"inputs":[{"internalType":"address","name":"newOwner","type":"address"}],"name":"transferOwnership","outputs":[],"stateMutability":"nonpayable","type":"function"},{"inputs":[{"internalType":"address","name":"erc20Address","type":"address"}],"name":"withdrawFund","outputs":[],"stateMutability":"nonpayable","type":"function"},{"stateMutability":"payable","type":"receive"}],"devdoc":{"kind":"dev","methods":{"owner()":{"details":"Returns the address of the current owner."},"renounceOwnership()":{"details":"Leaves the contract without owner. It will not be possible to call `onlyOwner` functions anymore. Can only be called by the current owner. NOTE: Renouncing ownership will leave the contract without an owner, thereby removing any functionality that is only available to the owner."},"transferOwnership(address)":{"details":"Transfers ownership of the contract to a new account (`newOwner`). Can only be called by the current owner."}},"version":1},"evm":{"bytecode":{"linkReferences":{},"object":"60806040523480156200001157600080fd5b5062000026620000206200002c565b62000030565b62000080565b3390565b600080546001600160a01b038381166001600160a01b0319831681178455604051919092169283917f8be0079c531659141344cd1fd0a4f28419497f9722a3daafe3b4186f6b6457e09190a35050565b612f7b80620000906000396000f3fe6080604052600436106100745760003560e01c8063715018a61161004e578063715018a6146101235780638da5cb5b14610138578063caecd5d514610163578063f2fde38b146101905761007b565b8063083dbb8c146100c15780634ba2f564146100e35780635376f1a3146101035761007b565b3661007b57005b34801561008757600080fd5b50600080808061009a3660048184612df4565b8101906100a791906125e1565b93509350935093506100bb848484846101b0565b50505050005b3480156100cd57600080fd5b506100e16100dc366004612655565b610df8565b005b3480156100ef57600080fd5b506100e16100fe366004612690565b610dfb565b34801561010f57600080fd5b506100e161011e3660046125a9565b611762565b34801561012f57600080fd5b506100e161187e565b34801561014457600080fd5b5061014d611892565b60405161015a91906129b0565b60405180910390f35b34801561016f57600080fd5b5061018361017e36600461286c565b6118a1565b60405161015a91906129dd565b34801561019c57600080fd5b506100e16101ab3660046125a9565b611e2f565b6101ee6040518060400160405280601881526020017f5374617274696e67207472616e73666572206379636c69630000000000000000815250611e66565b6001600160a01b038416301461021f5760405162461bcd60e51b815260040161021690612b70565b60405180910390fd5b600080841161022e5782610230565b835b90506000828060200190518101906102489190612723565b905061027c6040518060400160405280600b81526020016a0a0deded84098cadccee8d60ab1b815250826040015151611ea9565b600081602001516001600160a01b031682604001516000815181106102b157634e487b7160e01b600052603260045260246000fd5b6020026020010151602001516001600160a01b0316146103015781604001516000815181106102f057634e487b7160e01b600052603260045260246000fd5b602002602001015160200151610333565b816040015160008151811061032657634e487b7160e01b600052603260045260246000fd5b6020026020010151604001515b90506103666040518060400160405280600f81526020016e021bab93932b73a1031bcb1b634b19608d1b81525082611eee565b6103946040518060400160405280600c81526020016b02130b630b731b29031b0b6160a51b81525084611ea9565b6103c56040518060400160405280600b81526020016a02232b13a103a37b5b2b7160ad1b8152508360200151611eee565b6104266040518060400160405280600f81526020016e03837b7b61018103a37b5b2b710181608d1b815250836040015160008151811061041557634e487b7160e01b600052603260045260246000fd5b602002602001015160200151611eee565b6104876040518060400160405280600f81526020016e03837b7b61018103a37b5b2b710189608d1b815250836040015160008151811061047657634e487b7160e01b600052603260045260246000fd5b602002602001015160400151611eee565b604080518082018252600e81526d02932b0b6103130b630b731b29d160951b602082015290516370a0823160e01b815261053091906001600160a01b038416906370a08231906104db9030906004016129b0565b60206040518083038186803b1580156104f357600080fd5b505afa158015610507573d6000803e3d6000fd5b505050506040513d601f19601f8201168201806040525081019061052b9190612950565b611ea9565b6105b76040518060400160405280600f81526020016e02837b7b61018103a37b5b2b710181608d1b815250836040015160008151811061058057634e487b7160e01b600052603260045260246000fd5b6020026020010151604001516001600160a01b03166370a08231306040518263ffffffff1660e01b81526004016104db91906129b0565b61063e6040518060400160405280600f81526020016e02837b7b61018103a37b5b2b710189608d1b815250836040015160008151811061060757634e487b7160e01b600052603260045260246000fd5b6020026020010151602001516001600160a01b03166370a08231306040518263ffffffff1660e01b81526004016104db91906129b0565b806001600160a01b031663a9059cbb836040015160018151811061067257634e487b7160e01b600052603260045260246000fd5b602002602001015160000151856040518363ffffffff1660e01b815260040161069c9291906129c4565b602060405180830381600087803b1580156106b657600080fd5b505af11580156106ca573d6000803e3d6000fd5b505050506040513d601f19601f820116820180604052508101906106ee9190612707565b506040516370a0823160e01b81526000906001600160a01b038316906370a082319061071e9030906004016129b0565b60206040518083038186803b15801561073657600080fd5b505afa15801561074a573d6000803e3d6000fd5b505050506040513d601f19601f8201168201806040525081019061076e9190612950565b905061079a6040518060400160405280600881526020016702130b630b731b2960c51b81525082611ea9565b6107ca6040518060400160405280600e81526020016d021bcb1b634b19030b6b7bab73a160951b81525085611ea9565b60015b836040015151811015610da3576000836001600160a01b03168560400151838151811061080a57634e487b7160e01b600052603260045260246000fd5b6020026020010151602001516001600160a01b03161490508061085c578460400151828151811061084b57634e487b7160e01b600052603260045260246000fd5b60200260200101516020015161088d565b8460400151828151811061088057634e487b7160e01b600052603260045260246000fd5b6020026020010151604001515b9350846040015182815181106108b357634e487b7160e01b600052603260045260246000fd5b6020026020010151600001516001600160a01b0316630902f1ac6040518163ffffffff1660e01b815260040160606040518083038186803b1580156108f757600080fd5b505afa15801561090b573d6000803e3d6000fd5b505050506040513d601f19601f8201168201806040525081019061092f9190612902565b826001600160701b03169250816001600160701b03169150508660400151848151811061096c57634e487b7160e01b600052603260045260246000fd5b60200260200101516060018760400151858151811061099b57634e487b7160e01b600052603260045260246000fd5b6020908102919091010151608001919091525260008082610a1b57866040015184815181106109da57634e487b7160e01b600052603260045260246000fd5b60200260200101516080015187604001518581518110610a0a57634e487b7160e01b600052603260045260246000fd5b602002602001015160600151610a7c565b86604001518481518110610a3f57634e487b7160e01b600052603260045260246000fd5b60200260200101516060015187604001518581518110610a6f57634e487b7160e01b600052603260045260246000fd5b6020026020010151608001515b915091506000889050610ac08984848b604001518981518110610aaf57634e487b7160e01b600052603260045260246000fd5b602002602001015160a00151611f33565b985060008085610ad2578a6000610ad6565b60008b5b9150915060006040518061012001604052808c604001518a81518110610b0c57634e487b7160e01b600052603260045260246000fd5b60200260200101516060015181526020018c604001518a81518110610b4157634e487b7160e01b600052603260045260246000fd5b602002602001015160800151815260200188151581526020018581526020018d81526020018c604001518a81518110610b8a57634e487b7160e01b600052603260045260246000fd5b602002602001015160a0015181526020018c604001518a81518110610bbf57634e487b7160e01b600052603260045260246000fd5b6020026020010151602001516001600160a01b031681526020018c604001518a81518110610bfd57634e487b7160e01b600052603260045260246000fd5b6020026020010151604001516001600160a01b031681526020018c604001518a81518110610c3b57634e487b7160e01b600052603260045260246000fd5b6020026020010151600001516001600160a01b03168152509050610c5e816118a1565b508a604001518881518110610c8357634e487b7160e01b600052603260045260246000fd5b6020026020010151600001516001600160a01b031663022c0d9f848460018f6040015151610cb19190612e73565b8c10610cbd5730610cf8565b60408f0151610ccd8d6001612e1c565b81518110610ceb57634e487b7160e01b600052603260045260246000fd5b6020026020010151600001515b604080516000815260208101918290526001600160e01b031960e087901b16909152610d2a9392919060248101612d68565b600060405180830381600087803b158015610d4457600080fd5b505af1158015610d58573d6000803e3d6000fd5b50505050610d896040518060400160405280600c81526020016b53776170207375636365737360a01b815250611e66565b505050505050508080610d9b90612eba565b9150506107cd565b50610dee8360400151600081518110610dcc57634e487b7160e01b600052603260045260246000fd5b602090810291909101810151518551918601516001600160a01b0316916120a0565b5050505050505050565b50565b610e2660405180604001604052806009815260200168021b0b9b29024a21d160bd1b815250826120f6565b6040516370a0823160e01b81526000906001600160a01b038516906370a0823190610e559030906004016129b0565b60206040518083038186803b158015610e6d57600080fd5b505afa158015610e81573d6000803e3d6000fd5b505050506040513d601f19601f82011682018060405250810190610ea59190612950565b9050610ed76040518060400160405280600e81526020016d42616c616e6365204265666f726560901b81525082611ea9565b600085600081518110610efa57634e487b7160e01b600052603260045260246000fd5b6020026020010151600001516001600160a01b0316630dfe16816040518163ffffffff1660e01b815260040160206040518083038186803b158015610f3e57600080fd5b505afa158015610f52573d6000803e3d6000fd5b505050506040513d601f19601f82011682018060405250810190610f7691906125c5565b9050600086600081518110610f9b57634e487b7160e01b600052603260045260246000fd5b6020026020010151600001516001600160a01b031663d21220a76040518163ffffffff1660e01b815260040160206040518083038186803b158015610fdf57600080fd5b505afa158015610ff3573d6000803e3d6000fd5b505050506040513d601f19601f8201168201806040525081019061101791906125c5565b90506000826001600160a01b03166370a082318960008151811061104b57634e487b7160e01b600052603260045260246000fd5b6020026020010151600001516040518263ffffffff1660e01b815260040161107391906129b0565b60206040518083038186803b15801561108b57600080fd5b505afa15801561109f573d6000803e3d6000fd5b505050506040513d601f19601f820116820180604052508101906110c39190612950565b90506000826001600160a01b03166370a082318a6000815181106110f757634e487b7160e01b600052603260045260246000fd5b6020026020010151600001516040518263ffffffff1660e01b815260040161111f91906129b0565b60206040518083038186803b15801561113757600080fd5b505afa15801561114b573d6000803e3d6000fd5b505050506040513d601f19601f8201168201806040525081019061116f9190612950565b905061119d6040518060400160405280600a81526020016903130b630b731b29018160b51b81525083611ea9565b6111c96040518060400160405280600a81526020016903130b630b731b29018960b51b81525082611ea9565b886000815181106111ea57634e487b7160e01b600052603260045260246000fd5b6020026020010151600001516001600160a01b0316630902f1ac6040518163ffffffff1660e01b815260040160606040518083038186803b15801561122e57600080fd5b505afa158015611242573d6000803e3d6000fd5b505050506040513d601f19601f820116820180604052508101906112669190612902565b826001600160701b03169250816001600160701b03169150508a6000815181106112a057634e487b7160e01b600052603260045260246000fd5b60200260200101516060018b6000815181106112cc57634e487b7160e01b600052603260045260246000fd5b6020026020010151608001828152508281525050506000611452888b60008151811061130857634e487b7160e01b600052603260045260246000fd5b6020026020010151602001516001600160a01b03168b6001600160a01b03161461135e578b60008151811061134d57634e487b7160e01b600052603260045260246000fd5b60200260200101516080015161138c565b8b60008151811061137f57634e487b7160e01b600052603260045260246000fd5b6020026020010151606001515b8c6000815181106113ad57634e487b7160e01b600052603260045260246000fd5b6020026020010151602001516001600160a01b03168c6001600160a01b031614611403578c6000815181106113f257634e487b7160e01b600052603260045260246000fd5b602002602001015160600151611431565b8c60008151811061142457634e487b7160e01b600052603260045260246000fd5b6020026020010151608001515b8d600081518110610aaf57634e487b7160e01b600052603260045260246000fd5b905061146c60405180602001604052806000815250611e66565b61149a6040518060400160405280600c81526020016b02232b13a1030b6b7bab73a160a51b81525089611ea9565b6114ca6040518060400160405280600e81526020016d02137b93937bb9030b6b7bab73a160951b81525082611ea9565b6000808b6000815181106114ee57634e487b7160e01b600052603260045260246000fd5b6020026020010151602001516001600160a01b03168b6001600160a01b03161461151a5782600061151e565b6000835b91509150611545604051806060016040528060218152602001612f2560219139838361213b565b6115846040518060400160405280601b81526020017f426f72726f7720496e7465726d65646961727920546f6b656e3a2000000000008152508b611ea9565b6115ac6040518060400160405280600681526020016502232b13a1d160d51b8152508b611ea9565b6115b4612427565b8a81526001600160a01b038c1660208083019190915260408083018f9052516000916115e291849101612cbd565b60405160208183030381529060405290508d60008151811061161457634e487b7160e01b600052603260045260246000fd5b6020026020010151600001516001600160a01b031663022c0d9f858530856040518563ffffffff1660e01b81526004016116519493929190612d68565b600060405180830381600087803b15801561166b57600080fd5b505af115801561167f573d6000803e3d6000fd5b5050505050505050506000886001600160a01b03166370a08231306040518263ffffffff1660e01b81526004016116b691906129b0565b60206040518083038186803b1580156116ce57600080fd5b505afa1580156116e2573d6000803e3d6000fd5b505050506040513d601f19601f820116820180604052508101906117069190612950565b90506117376040518060400160405280600d81526020016c2130b630b731b29020b33a32b960991b81525082611ea9565b8581116117565760405162461bcd60e51b815260040161021690612abe565b50505050505050505050565b61176a612182565b6040516370a0823160e01b81526000906001600160a01b038316906370a08231906117999030906004016129b0565b60206040518083038186803b1580156117b157600080fd5b505afa1580156117c5573d6000803e3d6000fd5b505050506040513d601f19601f820116820180604052508101906117e99190612950565b9050801561187a57816001600160a01b031663a9059cbb611808611892565b836040518363ffffffff1660e01b81526004016118269291906129c4565b602060405180830381600087803b15801561184057600080fd5b505af1158015611854573d6000803e3d6000fd5b505050506040513d601f19601f820116820180604052508101906118789190612707565b505b5050565b611886612182565b61189060006121c1565b565b6000546001600160a01b031690565b60008082604001516118c357608083015183516118be9190612e73565b6118d4565b606083015183516118d49190612e1c565b9050600083604001516118fa57836060015184602001516118f59190612e1c565b61190e565b8360800151846020015161190e9190612e73565b905060008460400151611922576000611928565b84606001515b90506000856040015161193f578560600151611942565b60005b90506000866040015161195957866080015161195c565b60005b905060008760400151611970576000611976565b87608001515b905060008860a001518561198a9190612e54565b61199688612710612e54565b6119a09190612e73565b905060008960a00151856119b49190612e54565b6119c088612710612e54565b6119ca9190612e73565b9050611a0a6040518060400160405280601781526020017f466c617368626f74202d2d2d2d2d2d2d2d2d2d2d2d2d2d000000000000000000815250611e66565b611a366040518060400160405280600a81526020016903130b630b731b29018160b51b81525089611ea9565b611a666040518060400160405280600a81526020016903932b9b2b93b329018160b51b8152508b60000151611ea9565b611a946040518060400160405280600c81526020016b030b6b7bab73a10181034b7160a51b81525087611ea9565b611ac36040518060400160405280600d81526020016c030b6b7bab73a10181037baba1609d1b81525085611ea9565b611af76040518060400160405280601281526020017118985b185b98d9480c08185a991d5cdd195960721b81525083611ea9565b611b236040518060400160405280600a81526020016903130b630b731b29018960b51b81525088611ea9565b611b536040518060400160405280600a81526020016903932b9b2b93b329018960b51b8152508b60200151611ea9565b611b816040518060400160405280600c81526020016b030b6b7bab73a10189034b7160a51b81525086611ea9565b611bb06040518060400160405280600d81526020016c030b6b7bab73a10189037baba1609d1b81525084611ea9565b611be46040518060400160405280601281526020017118985b185b98d9480c48185a991d5cdd195960721b81525082611ea9565b611c1360405180604001604052806009815260200168039bbb0b8103332b2960bd1b8152508b60a00151611ea9565b60408051808201909152600681526502632b33a1d160d51b6020820152611c3e9061052b8385612e54565b611c836040518060400160405280600781526020016602934b3b43a1d160cd1b8152508b602001518c60000151611c759190612e54565b61052b906305f5e100612e54565b611cd860405180604001604052806006815260200165024b990259d160d51b8152508b602001518c60000151611cb99190612e54565b611cc7906305f5e100612e54565b611cd18486612e54565b1015612211565b611d166040518060400160405280601e81526020017f2d2d2d2d2d2d2d2d2d2d2d2d2d2d2d2d2d2d2d2d2d2d2d2d2d2d2d2d2d2d0000815250611e66565b6000808b61010001516001600160a01b0316630902f1ac6040518163ffffffff1660e01b815260040160606040518083038186803b158015611d5757600080fd5b505afa158015611d6b573d6000803e3d6000fd5b505050506040513d601f19601f82011682018060405250810190611d8f9190612902565b506001600160701b031691506001600160701b03169150611dcc6040518060400160405280600481526020016302fb918160e51b81525083611ea9565b611df26040518060400160405280600481526020016302fb918960e51b81525082611ea9565b60208c01518c51611e039190612e54565b611e11906305f5e100612e54565b611e1b8486612e54565b10159a50505050505050505050505b919050565b611e37612182565b6001600160a01b038116611e5d5760405162461bcd60e51b815260040161021690612ae4565b610df8816121c1565b610df881604051602401611e7a91906129e8565b60408051601f198184030181529190526020810180516001600160e01b031663104c13eb60e21b179052612252565b61187a8282604051602401611ebf929190612a77565b60408051601f198184030181529190526020810180516001600160e01b0316632d839cb360e21b179052612252565b61187a8282604051602401611f049291906129fb565b60408051601f198184030181529190526020810180516001600160e01b031663319af33360e01b179052612252565b6000808511611f545760405162461bcd60e51b815260040161021690612bd5565b600084118015611f645750600083115b611f805760405162461bcd60e51b815260040161021690612c8d565b60008215611f8e5782611f91565b60195b9050611fbf6040518060400160405280600a815260200169029bbb0b8102332b29d160b51b81525082611ea9565b611feb6040518060400160405280600a815260200169030b6b7bab73a24b71d160b51b81525087611ea9565b6120186040518060400160405280600b81526020016a03932b9b2b93b32a4b71d160ad1b81525086611ea9565b6120466040518060400160405280600c81526020016b03932b9b2b93b32a7baba1d160a51b81525085611ea9565b600061205482612710612e73565b61205e9088612e54565b9050600061206c8683612e54565b905060008261207d89612710612e54565b6120879190612e1c565b90506120938183612e34565b9998505050505050505050565b6118788363a9059cbb60e01b84846040516024016120bf9291906129c4565b60408051601f198184030181529190526020810180516001600160e01b03166001600160e01b031990931692909217909152612273565b61187a828260405160240161210c929190612a49565b60408051601f198184030181529190526020810180516001600160e01b0316634b5c427760e01b179052612252565b61187883838360405160240161215393929190612a99565b60408051601f198184030181529190526020810180516001600160e01b031663ca47c4eb60e01b179052612252565b61218a612302565b6001600160a01b031661219b611892565b6001600160a01b0316146118905760405162461bcd60e51b815260040161021690612ba0565b600080546001600160a01b038381166001600160a01b0319831681178455604051919092169283917f8be0079c531659141344cd1fd0a4f28419497f9722a3daafe3b4186f6b6457e09190a35050565b61187a8282604051602401612227929190612a25565b60408051601f198184030181529190526020810180516001600160e01b031663c3b5563560e01b1790525b80516a636f6e736f6c652e6c6f67602083016000808483855afa5050505050565b60006122c8826040518060400160405280602081526020017f5361666545524332303a206c6f772d6c6576656c2063616c6c206661696c6564815250856001600160a01b03166123069092919063ffffffff16565b80519091501561187857808060200190518101906122e69190612707565b6118785760405162461bcd60e51b815260040161021690612c43565b3390565b6060612315848460008561231f565b90505b9392505050565b6060824710156123415760405162461bcd60e51b815260040161021690612b2a565b61234a856123df565b6123665760405162461bcd60e51b815260040161021690612c0c565b600080866001600160a01b031685876040516123829190612994565b60006040518083038185875af1925050503d80600081146123bf576040519150601f19603f3d011682016040523d82523d6000602084013e6123c4565b606091505b50915091506123d48282866123ee565b979650505050505050565b6001600160a01b03163b151590565b606083156123fd575081612318565b82511561240d5782518084602001fd5b8160405162461bcd60e51b815260040161021691906129e8565b60405180606001604052806000815260200160006001600160a01b03168152602001606081525090565b600067ffffffffffffffff83111561246b5761246b612eeb565b61247e601f8401601f1916602001612d9f565b905082815283838301111561249257600080fd5b828260208301376000602084830101529392505050565b8035611e2a81612f01565b600082601f8301126124c4578081fd5b813560206124d96124d483612dd0565b612d9f565b8281528181019085830160c0808602880185018910156124f7578687fd5b865b868110156125795781838b03121561250f578788fd5b61251882612d9f565b833561252381612f01565b81528387013561253281612f01565b8188015260408481013561254581612f01565b90820152606084810135908201526080808501359082015260a08085013590820152855293850193918101916001016124f9565b509198975050505050505050565b8035611e2a81612f16565b80516001600160701b0381168114611e2a57600080fd5b6000602082840312156125ba578081fd5b813561231881612f01565b6000602082840312156125d6578081fd5b815161231881612f01565b600080600080608085870312156125f6578283fd5b843561260181612f01565b93506020850135925060408501359150606085013567ffffffffffffffff81111561262a578182fd5b8501601f8101871361263a578182fd5b61264987823560208401612451565b91505092959194509250565b600060208284031215612666578081fd5b813567ffffffffffffffff81111561267c578182fd5b612688848285016124b4565b949350505050565b600080600080608085870312156126a5578182fd5b843567ffffffffffffffff808211156126bc578384fd5b6126c8888389016124b4565b9550602087013591506126da82612f01565b90935060408601359250606086013590808211156126f6578283fd5b508501601f8101871361263a578182fd5b600060208284031215612718578081fd5b815161231881612f16565b60006020808385031215612735578182fd5b825167ffffffffffffffff8082111561274c578384fd5b81850191506060808388031215612761578485fd5b61276a81612d9f565b835181528484015161277b81612f01565b8186015260408481015184811115612791578788fd5b80860195505088601f8601126127a5578687fd5b845193506127b56124d485612dd0565b8481528681019086880160c080880289018a018d10156127d3578a8bfd5b8a98505b878910156128575780828e0312156127ed578a8bfd5b6127f681612d9f565b825161280181612f01565b8152828b015161281081612f01565b818c01528286015161282181612f01565b8187015282880151888201526080808401519082015260a0808401519082015284526001989098019792890192908101906127d7565b50509183019190915250979650505050505050565b600061012080838503121561287f578182fd5b61288881612d9f565b905082358152602083013560208201526128a460408401612587565b6040820152606083013560608201526080830135608082015260a083013560a08201526128d360c084016124a9565b60c08201526128e460e084016124a9565b60e08201526101006128f78185016124a9565b908201529392505050565b600080600060608486031215612916578081fd5b61291f84612592565b925061292d60208501612592565b9150604084015163ffffffff81168114612945578182fd5b809150509250925092565b600060208284031215612961578081fd5b5051919050565b60008151808452612980816020860160208601612e8a565b601f01601f19169290920160200192915050565b600082516129a6818460208701612e8a565b9190910192915050565b6001600160a01b0391909116815260200190565b6001600160a01b03929092168252602082015260400190565b901515815260200190565b6000602082526123186020830184612968565b600060408252612a0e6040830185612968565b905060018060a01b03831660208301529392505050565b600060408252612a386040830185612968565b905082151560208301529392505050565b600060408252612a5c6040830185612968565b8281036020840152612a6e8185612968565b95945050505050565b600060408252612a8a6040830185612968565b90508260208301529392505050565b600060608252612aac6060830186612968565b60208301949094525060400152919050565b6020808252600c908201526b4c6f73696e67206d6f6e657960a01b604082015260600190565b60208082526026908201527f4f776e61626c653a206e6577206f776e657220697320746865207a65726f206160408201526564647265737360d01b606082015260800190565b60208082526026908201527f416464726573733a20696e73756666696369656e742062616c616e636520666f6040820152651c8818d85b1b60d21b606082015260800190565b602080825260169082015275139bdd08199c9bdb481d1a1a5cc818dbdb9d1c9858dd60521b604082015260600190565b6020808252818101527f4f776e61626c653a2063616c6c6572206973206e6f7420746865206f776e6572604082015260600190565b60208082526019908201527f494e53554646494349454e545f494e5055545f414d4f554e5400000000000000604082015260600190565b6020808252601d908201527f416464726573733a2063616c6c20746f206e6f6e2d636f6e7472616374000000604082015260600190565b6020808252602a908201527f5361666545524332303a204552433230206f7065726174696f6e20646964206e6040820152691bdd081cdd58d8d9595960b21b606082015260800190565b602080825260169082015275494e53554646494349454e545f4c495155494449545960501b604082015260600190565b6020808252825182820152828101516001600160a01b039081166040808501919091528085015160608086018190528151608080880182905260009695909460a0948701939092858a0190895b81811015612d575786518051861684528a81015186168b850152868101518616878501528481015185850152898101518a850152880151888401529589019560c090920191600101612d0a565b50909b9a5050505050505050505050565b600085825284602083015260018060a01b038416604083015260806060830152612d956080830184612968565b9695505050505050565b604051601f8201601f1916810167ffffffffffffffff81118282101715612dc857612dc8612eeb565b604052919050565b600067ffffffffffffffff821115612dea57612dea612eeb565b5060209081020190565b60008085851115612e03578182fd5b83861115612e0f578182fd5b5050820193919092039150565b60008219821115612e2f57612e2f612ed5565b500190565b600082612e4f57634e487b7160e01b81526012600452602481fd5b500490565b6000816000190483118215151615612e6e57612e6e612ed5565b500290565b600082821015612e8557612e85612ed5565b500390565b60005b83811015612ea5578181015183820152602001612e8d565b83811115612eb4576000848401525b50505050565b6000600019821415612ece57612ece612ed5565b5060010190565b634e487b7160e01b600052601160045260246000fd5b634e487b7160e01b600052604160045260246000fd5b6001600160a01b0381168114610df857600080fd5b8015158114610df857600080fdfe5377617020616d6f756e74206f6e20666972737420706f6f6c3a2025732c202573a264697066735822122096a225f41d4a160ba4b317f7b8c0ee53847a70f9abb51dc8960cb07d6386f6e664736f6c63430008010033","opcodes":"PUSH1 0x80 PUSH1 0x40 MSTORE CALLVALUE DUP1 ISZERO PUSH3 0x11 JUMPI PUSH1 0x0 DUP1 REVERT JUMPDEST POP PUSH3 0x26 PUSH3 0x20 PUSH3 0x2C JUMP JUMPDEST PUSH3 0x30 JUMP JUMPDEST PUSH3 0x80 JUMP JUMPDEST CALLER SWAP1 JUMP JUMPDEST PUSH1 0x0 DUP1 SLOAD PUSH1 0x1 PUSH1 0x1 PUSH1 0xA0 SHL SUB DUP4 DUP2 AND PUSH1 0x1 PUSH1 0x1 PUSH1 0xA0 SHL SUB NOT DUP4 AND DUP2 OR DUP5 SSTORE PUSH1 0x40 MLOAD SWAP2 SWAP1 SWAP3 AND SWAP3 DUP4 SWAP2 PUSH32 0x8BE0079C531659141344CD1FD0A4F28419497F9722A3DAAFE3B4186F6B6457E0 SWAP2 SWAP1 LOG3 POP POP JUMP JUMPDEST PUSH2 0x2F7B DUP1 PUSH3 0x90 PUSH1 0x0 CODECOPY PUSH1 0x0 RETURN INVALID PUSH1 0x80 PUSH1 0x40 MSTORE PUSH1 0x4 CALLDATASIZE LT PUSH2 0x74 JUMPI PUSH1 0x0 CALLDATALOAD PUSH1 0xE0 SHR DUP1 PUSH4 0x715018A6 GT PUSH2 0x4E JUMPI DUP1 PUSH4 0x715018A6 EQ PUSH2 0x123 JUMPI DUP1 PUSH4 0x8DA5CB5B EQ PUSH2 0x138 JUMPI DUP1 PUSH4 0xCAECD5D5 EQ PUSH2 0x163 JUMPI DUP1 PUSH4 0xF2FDE38B EQ PUSH2 0x190 JUMPI PUSH2 0x7B JUMP JUMPDEST DUP1 PUSH4 0x83DBB8C EQ PUSH2 0xC1 JUMPI DUP1 PUSH4 0x4BA2F564 EQ PUSH2 0xE3 JUMPI DUP1 PUSH4 0x5376F1A3 EQ PUSH2 0x103 JUMPI PUSH2 0x7B JUMP JUMPDEST CALLDATASIZE PUSH2 0x7B JUMPI STOP JUMPDEST CALLVALUE DUP1 ISZERO PUSH2 0x87 JUMPI PUSH1 0x0 DUP1 REVERT JUMPDEST POP PUSH1 0x0 DUP1 DUP1 DUP1 PUSH2 0x9A CALLDATASIZE PUSH1 0x4 DUP2 DUP5 PUSH2 0x2DF4 JUMP JUMPDEST DUP2 ADD SWAP1 PUSH2 0xA7 SWAP2 SWAP1 PUSH2 0x25E1 JUMP JUMPDEST SWAP4 POP SWAP4 POP SWAP4 POP SWAP4 POP PUSH2 0xBB DUP5 DUP5 DUP5 DUP5 PUSH2 0x1B0 JUMP JUMPDEST POP POP POP POP STOP JUMPDEST CALLVALUE DUP1 ISZERO PUSH2 0xCD JUMPI PUSH1 0x0 DUP1 REVERT JUMPDEST POP PUSH2 0xE1 PUSH2 0xDC CALLDATASIZE PUSH1 0x4 PUSH2 0x2655 JUMP JUMPDEST PUSH2 0xDF8 JUMP JUMPDEST STOP JUMPDEST CALLVALUE DUP1 ISZERO PUSH2 0xEF JUMPI PUSH1 0x0 DUP1 REVERT JUMPDEST POP PUSH2 0xE1 PUSH2 0xFE CALLDATASIZE PUSH1 0x4 PUSH2 0x2690 JUMP JUMPDEST PUSH2 0xDFB JUMP JUMPDEST CALLVALUE DUP1 ISZERO PUSH2 0x10F JUMPI PUSH1 0x0 DUP1 REVERT JUMPDEST POP PUSH2 0xE1 PUSH2 0x11E CALLDATASIZE PUSH1 0x4 PUSH2 0x25A9 JUMP JUMPDEST PUSH2 0x1762 JUMP JUMPDEST CALLVALUE DUP1 ISZERO PUSH2 0x12F JUMPI PUSH1 0x0 DUP1 REVERT JUMPDEST POP PUSH2 0xE1 PUSH2 0x187E JUMP JUMPDEST CALLVALUE DUP1 ISZERO PUSH2 0x144 JUMPI PUSH1 0x0 DUP1 REVERT JUMPDEST POP PUSH2 0x14D PUSH2 0x1892 JUMP JUMPDEST PUSH1 0x40 MLOAD PUSH2 0x15A SWAP2 SWAP1 PUSH2 0x29B0 JUMP JUMPDEST PUSH1 0x40 MLOAD DUP1 SWAP2 SUB SWAP1 RETURN JUMPDEST CALLVALUE DUP1 ISZERO PUSH2 0x16F JUMPI PUSH1 0x0 DUP1 REVERT JUMPDEST POP PUSH2 0x183 PUSH2 0x17E CALLDATASIZE PUSH1 0x4 PUSH2 0x286C JUMP JUMPDEST PUSH2 0x18A1 JUMP JUMPDEST PUSH1 0x40 MLOAD PUSH2 0x15A SWAP2 SWAP1 PUSH2 0x29DD JUMP JUMPDEST CALLVALUE DUP1 ISZERO PUSH2 0x19C JUMPI PUSH1 0x0 DUP1 REVERT JUMPDEST POP PUSH2 0xE1 PUSH2 0x1AB CALLDATASIZE PUSH1 0x4 PUSH2 0x25A9 JUMP JUMPDEST PUSH2 0x1E2F JUMP JUMPDEST PUSH2 0x1EE PUSH1 0x40 MLOAD DUP1 PUSH1 0x40 ADD PUSH1 0x40 MSTORE DUP1 PUSH1 0x18 DUP2 MSTORE PUSH1 0x20 ADD PUSH32 0x5374617274696E67207472616E73666572206379636C69630000000000000000 DUP2 MSTORE POP PUSH2 0x1E66 JUMP JUMPDEST PUSH1 0x1 PUSH1 0x1 PUSH1 0xA0 SHL SUB DUP5 AND ADDRESS EQ PUSH2 0x21F JUMPI PUSH1 0x40 MLOAD PUSH3 0x461BCD PUSH1 0xE5 SHL DUP2 MSTORE PUSH1 0x4 ADD PUSH2 0x216 SWAP1 PUSH2 0x2B70 JUMP JUMPDEST PUSH1 0x40 MLOAD DUP1 SWAP2 SUB SWAP1 REVERT JUMPDEST PUSH1 0x0 DUP1 DUP5 GT PUSH2 0x22E JUMPI DUP3 PUSH2 0x230 JUMP JUMPDEST DUP4 JUMPDEST SWAP1 POP PUSH1 0x0 DUP3 DUP1 PUSH1 0x20 ADD SWAP1 MLOAD DUP2 ADD SWAP1 PUSH2 0x248 SWAP2 SWAP1 PUSH2 0x2723 JUMP JUMPDEST SWAP1 POP PUSH2 0x27C PUSH1 0x40 MLOAD DUP1 PUSH1 0x40 ADD PUSH1 0x40 MSTORE DUP1 PUSH1 0xB DUP2 MSTORE PUSH1 0x20 ADD PUSH11 0xA0DEDED84098CADCCEE8D PUSH1 0xAB SHL DUP2 MSTORE POP DUP3 PUSH1 0x40 ADD MLOAD MLOAD PUSH2 0x1EA9 JUMP JUMPDEST PUSH1 0x0 DUP2 PUSH1 0x20 ADD MLOAD PUSH1 0x1 PUSH1 0x1 PUSH1 0xA0 SHL SUB AND DUP3 PUSH1 0x40 ADD MLOAD PUSH1 0x0 DUP2 MLOAD DUP2 LT PUSH2 0x2B1 JUMPI PUSH4 0x4E487B71 PUSH1 0xE0 SHL PUSH1 0x0 MSTORE PUSH1 0x32 PUSH1 0x4 MSTORE PUSH1 0x24 PUSH1 0x0 REVERT JUMPDEST PUSH1 0x20 MUL PUSH1 0x20 ADD ADD MLOAD PUSH1 0x20 ADD MLOAD PUSH1 0x1 PUSH1 0x1 PUSH1 0xA0 SHL SUB AND EQ PUSH2 0x301 JUMPI DUP2 PUSH1 0x40 ADD MLOAD PUSH1 0x0 DUP2 MLOAD DUP2 LT PUSH2 0x2F0 JUMPI PUSH4 0x4E487B71 PUSH1 0xE0 SHL PUSH1 0x0 MSTORE PUSH1 0x32 PUSH1 0x4 MSTORE PUSH1 0x24 PUSH1 0x0 REVERT JUMPDEST PUSH1 0x20 MUL PUSH1 0x20 ADD ADD MLOAD PUSH1 0x20 ADD MLOAD PUSH2 0x333 JUMP JUMPDEST DUP2 PUSH1 0x40 ADD MLOAD PUSH1 0x0 DUP2 MLOAD DUP2 LT PUSH2 0x326 JUMPI PUSH4 0x4E487B71 PUSH1 0xE0 SHL PUSH1 0x0 MSTORE PUSH1 0x32 PUSH1 0x4 MSTORE PUSH1 0x24 PUSH1 0x0 REVERT JUMPDEST PUSH1 0x20 MUL PUSH1 0x20 ADD ADD MLOAD PUSH1 0x40 ADD MLOAD JUMPDEST SWAP1 POP PUSH2 0x366 PUSH1 0x40 MLOAD DUP1 PUSH1 0x40 ADD PUSH1 0x40 MSTORE DUP1 PUSH1 0xF DUP2 MSTORE PUSH1 0x20 ADD PUSH15 0x21BAB93932B73A1031BCB1B634B19 PUSH1 0x8D SHL DUP2 MSTORE POP DUP3 PUSH2 0x1EEE JUMP JUMPDEST PUSH2 0x394 PUSH1 0x40 MLOAD DUP1 PUSH1 0x40 ADD PUSH1 0x40 MSTORE DUP1 PUSH1 0xC DUP2 MSTORE PUSH1 0x20 ADD PUSH12 0x2130B630B731B29031B0B61 PUSH1 0xA5 SHL DUP2 MSTORE POP DUP5 PUSH2 0x1EA9 JUMP JUMPDEST PUSH2 0x3C5 PUSH1 0x40 MLOAD DUP1 PUSH1 0x40 ADD PUSH1 0x40 MSTORE DUP1 PUSH1 0xB DUP2 MSTORE PUSH1 0x20 ADD PUSH11 0x2232B13A103A37B5B2B71 PUSH1 0xAD SHL DUP2 MSTORE POP DUP4 PUSH1 0x20 ADD MLOAD PUSH2 0x1EEE JUMP JUMPDEST PUSH2 0x426 PUSH1 0x40 MLOAD DUP1 PUSH1 0x40 ADD PUSH1 0x40 MSTORE DUP1 PUSH1 0xF DUP2 MSTORE PUSH1 0x20 ADD PUSH15 0x3837B7B61018103A37B5B2B710181 PUSH1 0x8D SHL DUP2 MSTORE POP DUP4 PUSH1 0x40 ADD MLOAD PUSH1 0x0 DUP2 MLOAD DUP2 LT PUSH2 0x415 JUMPI PUSH4 0x4E487B71 PUSH1 0xE0 SHL PUSH1 0x0 MSTORE PUSH1 0x32 PUSH1 0x4 MSTORE PUSH1 0x24 PUSH1 0x0 REVERT JUMPDEST PUSH1 0x20 MUL PUSH1 0x20 ADD ADD MLOAD PUSH1 0x20 ADD MLOAD PUSH2 0x1EEE JUMP JUMPDEST PUSH2 0x487 PUSH1 0x40 MLOAD DUP1 PUSH1 0x40 ADD PUSH1 0x40 MSTORE DUP1 PUSH1 0xF DUP2 MSTORE PUSH1 0x20 ADD PUSH15 0x3837B7B61018103A37B5B2B710189 PUSH1 0x8D SHL DUP2 MSTORE POP DUP4 PUSH1 0x40 ADD MLOAD PUSH1 0x0 DUP2 MLOAD DUP2 LT PUSH2 0x476 JUMPI PUSH4 0x4E487B71 PUSH1 0xE0 SHL PUSH1 0x0 MSTORE PUSH1 0x32 PUSH1 0x4 MSTORE PUSH1 0x24 PUSH1 0x0 REVERT JUMPDEST PUSH1 0x20 MUL PUSH1 0x20 ADD ADD MLOAD PUSH1 0x40 ADD MLOAD PUSH2 0x1EEE JUMP JUMPDEST PUSH1 0x40 DUP1 MLOAD DUP1 DUP3 ADD DUP3 MSTORE PUSH1 0xE DUP2 MSTORE PUSH14 0x2932B0B6103130B630B731B29D1 PUSH1 0x95 SHL PUSH1 0x20 DUP3 ADD MSTORE SWAP1 MLOAD PUSH4 0x70A08231 PUSH1 0xE0 SHL DUP2 MSTORE PUSH2 0x530 SWAP2 SWAP1 PUSH1 0x1 PUSH1 0x1 PUSH1 0xA0 SHL SUB DUP5 AND SWAP1 PUSH4 0x70A08231 SWAP1 PUSH2 0x4DB SWAP1 ADDRESS SWAP1 PUSH1 0x4 ADD PUSH2 0x29B0 JUMP JUMPDEST PUSH1 0x20 PUSH1 0x40 MLOAD DUP1 DUP4 SUB DUP2 DUP7 DUP1 EXTCODESIZE ISZERO DUP1 ISZERO PUSH2 0x4F3 JUMPI PUSH1 0x0 DUP1 REVERT JUMPDEST POP GAS STATICCALL ISZERO DUP1 ISZERO PUSH2 0x507 JUMPI RETURNDATASIZE PUSH1 0x0 DUP1 RETURNDATACOPY RETURNDATASIZE PUSH1 0x0 REVERT JUMPDEST POP POP POP POP PUSH1 0x40 MLOAD RETURNDATASIZE PUSH1 0x1F NOT PUSH1 0x1F DUP3 ADD AND DUP3 ADD DUP1 PUSH1 0x40 MSTORE POP DUP2 ADD SWAP1 PUSH2 0x52B SWAP2 SWAP1 PUSH2 0x2950 JUMP JUMPDEST PUSH2 0x1EA9 JUMP JUMPDEST PUSH2 0x5B7 PUSH1 0x40 MLOAD DUP1 PUSH1 0x40 ADD PUSH1 0x40 MSTORE DUP1 PUSH1 0xF DUP2 MSTORE PUSH1 0x20 ADD PUSH15 0x2837B7B61018103A37B5B2B710181 PUSH1 0x8D SHL DUP2 MSTORE POP DUP4 PUSH1 0x40 ADD MLOAD PUSH1 0x0 DUP2 MLOAD DUP2 LT PUSH2 0x580 JUMPI PUSH4 0x4E487B71 PUSH1 0xE0 SHL PUSH1 0x0 MSTORE PUSH1 0x32 PUSH1 0x4 MSTORE PUSH1 0x24 PUSH1 0x0 REVERT JUMPDEST PUSH1 0x20 MUL PUSH1 0x20 ADD ADD MLOAD PUSH1 0x40 ADD MLOAD PUSH1 0x1 PUSH1 0x1 PUSH1 0xA0 SHL SUB AND PUSH4 0x70A08231 ADDRESS PUSH1 0x40 MLOAD DUP3 PUSH4 0xFFFFFFFF AND PUSH1 0xE0 SHL DUP2 MSTORE PUSH1 0x4 ADD PUSH2 0x4DB SWAP2 SWAP1 PUSH2 0x29B0 JUMP JUMPDEST PUSH2 0x63E PUSH1 0x40 MLOAD DUP1 PUSH1 0x40 ADD PUSH1 0x40 MSTORE DUP1 PUSH1 0xF DUP2 MSTORE PUSH1 0x20 ADD PUSH15 0x2837B7B61018103A37B5B2B710189 PUSH1 0x8D SHL DUP2 MSTORE POP DUP4 PUSH1 0x40 ADD MLOAD PUSH1 0x0 DUP2 MLOAD DUP2 LT PUSH2 0x607 JUMPI PUSH4 0x4E487B71 PUSH1 0xE0 SHL PUSH1 0x0 MSTORE PUSH1 0x32 PUSH1 0x4 MSTORE PUSH1 0x24 PUSH1 0x0 REVERT JUMPDEST PUSH1 0x20 MUL PUSH1 0x20 ADD ADD MLOAD PUSH1 0x20 ADD MLOAD PUSH1 0x1 PUSH1 0x1 PUSH1 0xA0 SHL SUB AND PUSH4 0x70A08231 ADDRESS PUSH1 0x40 MLOAD DUP3 PUSH4 0xFFFFFFFF AND PUSH1 0xE0 SHL DUP2 MSTORE PUSH1 0x4 ADD PUSH2 0x4DB SWAP2 SWAP1 PUSH2 0x29B0 JUMP JUMPDEST DUP1 PUSH1 0x1 PUSH1 0x1 PUSH1 0xA0 SHL SUB AND PUSH4 0xA9059CBB DUP4 PUSH1 0x40 ADD MLOAD PUSH1 0x1 DUP2 MLOAD DUP2 LT PUSH2 0x672 JUMPI PUSH4 0x4E487B71 PUSH1 0xE0 SHL PUSH1 0x0 MSTORE PUSH1 0x32 PUSH1 0x4 MSTORE PUSH1 0x24 PUSH1 0x0 REVERT JUMPDEST PUSH1 0x20 MUL PUSH1 0x20 ADD ADD MLOAD PUSH1 0x0 ADD MLOAD DUP6 PUSH1 0x40 MLOAD DUP4 PUSH4 0xFFFFFFFF AND PUSH1 0xE0 SHL DUP2 MSTORE PUSH1 0x4 ADD PUSH2 0x69C SWAP3 SWAP2 SWAP1 PUSH2 0x29C4 JUMP JUMPDEST PUSH1 0x20 PUSH1 0x40 MLOAD DUP1 DUP4 SUB DUP2 PUSH1 0x0 DUP8 DUP1 EXTCODESIZE ISZERO DUP1 ISZERO PUSH2 0x6B6 JUMPI PUSH1 0x0 DUP1 REVERT JUMPDEST POP GAS CALL ISZERO DUP1 ISZERO PUSH2 0x6CA JUMPI RETURNDATASIZE PUSH1 0x0 DUP1 RETURNDATACOPY RETURNDATASIZE PUSH1 0x0 REVERT JUMPDEST POP POP POP POP PUSH1 0x40 MLOAD RETURNDATASIZE PUSH1 0x1F NOT PUSH1 0x1F DUP3 ADD AND DUP3 ADD DUP1 PUSH1 0x40 MSTORE POP DUP2 ADD SWAP1 PUSH2 0x6EE SWAP2 SWAP1 PUSH2 0x2707 JUMP JUMPDEST POP PUSH1 0x40 MLOAD PUSH4 0x70A08231 PUSH1 0xE0 SHL DUP2 MSTORE PUSH1 0x0 SWAP1 PUSH1 0x1 PUSH1 0x1 PUSH1 0xA0 SHL SUB DUP4 AND SWAP1 PUSH4 0x70A08231 SWAP1 PUSH2 0x71E SWAP1 ADDRESS SWAP1 PUSH1 0x4 ADD PUSH2 0x29B0 JUMP JUMPDEST PUSH1 0x20 PUSH1 0x40 MLOAD DUP1 DUP4 SUB DUP2 DUP7 DUP1 EXTCODESIZE ISZERO DUP1 ISZERO PUSH2 0x736 JUMPI PUSH1 0x0 DUP1 REVERT JUMPDEST POP GAS STATICCALL ISZERO DUP1 ISZERO PUSH2 0x74A JUMPI RETURNDATASIZE PUSH1 0x0 DUP1 RETURNDATACOPY RETURNDATASIZE PUSH1 0x0 REVERT JUMPDEST POP POP POP POP PUSH1 0x40 MLOAD RETURNDATASIZE PUSH1 0x1F NOT PUSH1 0x1F DUP3 ADD AND DUP3 ADD DUP1 PUSH1 0x40 MSTORE POP DUP2 ADD SWAP1 PUSH2 0x76E SWAP2 SWAP1 PUSH2 0x2950 JUMP JUMPDEST SWAP1 POP PUSH2 0x79A PUSH1 0x40 MLOAD DUP1 PUSH1 0x40 ADD PUSH1 0x40 MSTORE DUP1 PUSH1 0x8 DUP2 MSTORE PUSH1 0x20 ADD PUSH8 0x2130B630B731B29 PUSH1 0xC5 SHL DUP2 MSTORE POP DUP3 PUSH2 0x1EA9 JUMP JUMPDEST PUSH2 0x7CA PUSH1 0x40 MLOAD DUP1 PUSH1 0x40 ADD PUSH1 0x40 MSTORE DUP1 PUSH1 0xE DUP2 MSTORE PUSH1 0x20 ADD PUSH14 0x21BCB1B634B19030B6B7BAB73A1 PUSH1 0x95 SHL DUP2 MSTORE POP DUP6 PUSH2 0x1EA9 JUMP JUMPDEST PUSH1 0x1 JUMPDEST DUP4 PUSH1 0x40 ADD MLOAD MLOAD DUP2 LT ISZERO PUSH2 0xDA3 JUMPI PUSH1 0x0 DUP4 PUSH1 0x1 PUSH1 0x1 PUSH1 0xA0 SHL SUB AND DUP6 PUSH1 0x40 ADD MLOAD DUP4 DUP2 MLOAD DUP2 LT PUSH2 0x80A JUMPI PUSH4 0x4E487B71 PUSH1 0xE0 SHL PUSH1 0x0 MSTORE PUSH1 0x32 PUSH1 0x4 MSTORE PUSH1 0x24 PUSH1 0x0 REVERT JUMPDEST PUSH1 0x20 MUL PUSH1 0x20 ADD ADD MLOAD PUSH1 0x20 ADD MLOAD PUSH1 0x1 PUSH1 0x1 PUSH1 0xA0 SHL SUB AND EQ SWAP1 POP DUP1 PUSH2 0x85C JUMPI DUP5 PUSH1 0x40 ADD MLOAD DUP3 DUP2 MLOAD DUP2 LT PUSH2 0x84B JUMPI PUSH4 0x4E487B71 PUSH1 0xE0 SHL PUSH1 0x0 MSTORE PUSH1 0x32 PUSH1 0x4 MSTORE PUSH1 0x24 PUSH1 0x0 REVERT JUMPDEST PUSH1 0x20 MUL PUSH1 0x20 ADD ADD MLOAD PUSH1 0x20 ADD MLOAD PUSH2 0x88D JUMP JUMPDEST DUP5 PUSH1 0x40 ADD MLOAD DUP3 DUP2 MLOAD DUP2 LT PUSH2 0x880 JUMPI PUSH4 0x4E487B71 PUSH1 0xE0 SHL PUSH1 0x0 MSTORE PUSH1 0x32 PUSH1 0x4 MSTORE PUSH1 0x24 PUSH1 0x0 REVERT JUMPDEST PUSH1 0x20 MUL PUSH1 0x20 ADD ADD MLOAD PUSH1 0x40 ADD MLOAD JUMPDEST SWAP4 POP DUP5 PUSH1 0x40 ADD MLOAD DUP3 DUP2 MLOAD DUP2 LT PUSH2 0x8B3 JUMPI PUSH4 0x4E487B71 PUSH1 0xE0 SHL PUSH1 0x0 MSTORE PUSH1 0x32 PUSH1 0x4 MSTORE PUSH1 0x24 PUSH1 0x0 REVERT JUMPDEST PUSH1 0x20 MUL PUSH1 0x20 ADD ADD MLOAD PUSH1 0x0 ADD MLOAD PUSH1 0x1 PUSH1 0x1 PUSH1 0xA0 SHL SUB AND PUSH4 0x902F1AC PUSH1 0x40 MLOAD DUP2 PUSH4 0xFFFFFFFF AND PUSH1 0xE0 SHL DUP2 MSTORE PUSH1 0x4 ADD PUSH1 0x60 PUSH1 0x40 MLOAD DUP1 DUP4 SUB DUP2 DUP7 DUP1 EXTCODESIZE ISZERO DUP1 ISZERO PUSH2 0x8F7 JUMPI PUSH1 0x0 DUP1 REVERT JUMPDEST POP GAS STATICCALL ISZERO DUP1 ISZERO PUSH2 0x90B JUMPI RETURNDATASIZE PUSH1 0x0 DUP1 RETURNDATACOPY RETURNDATASIZE PUSH1 0x0 REVERT JUMPDEST POP POP POP POP PUSH1 0x40 MLOAD RETURNDATASIZE PUSH1 0x1F NOT PUSH1 0x1F DUP3 ADD AND DUP3 ADD DUP1 PUSH1 0x40 MSTORE POP DUP2 ADD SWAP1 PUSH2 0x92F SWAP2 SWAP1 PUSH2 0x2902 JUMP JUMPDEST DUP3 PUSH1 0x1 PUSH1 0x1 PUSH1 0x70 SHL SUB AND SWAP3 POP DUP2 PUSH1 0x1 PUSH1 0x1 PUSH1 0x70 SHL SUB AND SWAP2 POP POP DUP7 PUSH1 0x40 ADD MLOAD DUP5 DUP2 MLOAD DUP2 LT PUSH2 0x96C JUMPI PUSH4 0x4E487B71 PUSH1 0xE0 SHL PUSH1 0x0 MSTORE PUSH1 0x32 PUSH1 0x4 MSTORE PUSH1 0x24 PUSH1 0x0 REVERT JUMPDEST PUSH1 0x20 MUL PUSH1 0x20 ADD ADD MLOAD PUSH1 0x60 ADD DUP8 PUSH1 0x40 ADD MLOAD DUP6 DUP2 MLOAD DUP2 LT PUSH2 0x99B JUMPI PUSH4 0x4E487B71 PUSH1 0xE0 SHL PUSH1 0x0 MSTORE PUSH1 0x32 PUSH1 0x4 MSTORE PUSH1 0x24 PUSH1 0x0 REVERT JUMPDEST PUSH1 0x20 SWAP1 DUP2 MUL SWAP2 SWAP1 SWAP2 ADD ADD MLOAD PUSH1 0x80 ADD SWAP2 SWAP1 SWAP2 MSTORE MSTORE PUSH1 0x0 DUP1 DUP3 PUSH2 0xA1B JUMPI DUP7 PUSH1 0x40 ADD MLOAD DUP5 DUP2 MLOAD DUP2 LT PUSH2 0x9DA JUMPI PUSH4 0x4E487B71 PUSH1 0xE0 SHL PUSH1 0x0 MSTORE PUSH1 0x32 PUSH1 0x4 MSTORE PUSH1 0x24 PUSH1 0x0 REVERT JUMPDEST PUSH1 0x20 MUL PUSH1 0x20 ADD ADD MLOAD PUSH1 0x80 ADD MLOAD DUP8 PUSH1 0x40 ADD MLOAD DUP6 DUP2 MLOAD DUP2 LT PUSH2 0xA0A JUMPI PUSH4 0x4E487B71 PUSH1 0xE0 SHL PUSH1 0x0 MSTORE PUSH1 0x32 PUSH1 0x4 MSTORE PUSH1 0x24 PUSH1 0x0 REVERT JUMPDEST PUSH1 0x20 MUL PUSH1 0x20 ADD ADD MLOAD PUSH1 0x60 ADD MLOAD PUSH2 0xA7C JUMP JUMPDEST DUP7 PUSH1 0x40 ADD MLOAD DUP5 DUP2 MLOAD DUP2 LT PUSH2 0xA3F JUMPI PUSH4 0x4E487B71 PUSH1 0xE0 SHL PUSH1 0x0 MSTORE PUSH1 0x32 PUSH1 0x4 MSTORE PUSH1 0x24 PUSH1 0x0 REVERT JUMPDEST PUSH1 0x20 MUL PUSH1 0x20 ADD ADD MLOAD PUSH1 0x60 ADD MLOAD DUP8 PUSH1 0x40 ADD MLOAD DUP6 DUP2 MLOAD DUP2 LT PUSH2 0xA6F JUMPI PUSH4 0x4E487B71 PUSH1 0xE0 SHL PUSH1 0x0 MSTORE PUSH1 0x32 PUSH1 0x4 MSTORE PUSH1 0x24 PUSH1 0x0 REVERT JUMPDEST PUSH1 0x20 MUL PUSH1 0x20 ADD ADD MLOAD PUSH1 0x80 ADD MLOAD JUMPDEST SWAP2 POP SWAP2 POP PUSH1 0x0 DUP9 SWAP1 POP PUSH2 0xAC0 DUP10 DUP5 DUP5 DUP12 PUSH1 0x40 ADD MLOAD DUP10 DUP2 MLOAD DUP2 LT PUSH2 0xAAF JUMPI PUSH4 0x4E487B71 PUSH1 0xE0 SHL PUSH1 0x0 MSTORE PUSH1 0x32 PUSH1 0x4 MSTORE PUSH1 0x24 PUSH1 0x0 REVERT JUMPDEST PUSH1 0x20 MUL PUSH1 0x20 ADD ADD MLOAD PUSH1 0xA0 ADD MLOAD PUSH2 0x1F33 JUMP JUMPDEST SWAP9 POP PUSH1 0x0 DUP1 DUP6 PUSH2 0xAD2 JUMPI DUP11 PUSH1 0x0 PUSH2 0xAD6 JUMP JUMPDEST PUSH1 0x0 DUP12 JUMPDEST SWAP2 POP SWAP2 POP PUSH1 0x0 PUSH1 0x40 MLOAD DUP1 PUSH2 0x120 ADD PUSH1 0x40 MSTORE DUP1 DUP13 PUSH1 0x40 ADD MLOAD DUP11 DUP2 MLOAD DUP2 LT PUSH2 0xB0C JUMPI PUSH4 0x4E487B71 PUSH1 0xE0 SHL PUSH1 0x0 MSTORE PUSH1 0x32 PUSH1 0x4 MSTORE PUSH1 0x24 PUSH1 0x0 REVERT JUMPDEST PUSH1 0x20 MUL PUSH1 0x20 ADD ADD MLOAD PUSH1 0x60 ADD MLOAD DUP2 MSTORE PUSH1 0x20 ADD DUP13 PUSH1 0x40 ADD MLOAD DUP11 DUP2 MLOAD DUP2 LT PUSH2 0xB41 JUMPI PUSH4 0x4E487B71 PUSH1 0xE0 SHL PUSH1 0x0 MSTORE PUSH1 0x32 PUSH1 0x4 MSTORE PUSH1 0x24 PUSH1 0x0 REVERT JUMPDEST PUSH1 0x20 MUL PUSH1 0x20 ADD ADD MLOAD PUSH1 0x80 ADD MLOAD DUP2 MSTORE PUSH1 0x20 ADD DUP9 ISZERO ISZERO DUP2 MSTORE PUSH1 0x20 ADD DUP6 DUP2 MSTORE PUSH1 0x20 ADD DUP14 DUP2 MSTORE PUSH1 0x20 ADD DUP13 PUSH1 0x40 ADD MLOAD DUP11 DUP2 MLOAD DUP2 LT PUSH2 0xB8A JUMPI PUSH4 0x4E487B71 PUSH1 0xE0 SHL PUSH1 0x0 MSTORE PUSH1 0x32 PUSH1 0x4 MSTORE PUSH1 0x24 PUSH1 0x0 REVERT JUMPDEST PUSH1 0x20 MUL PUSH1 0x20 ADD ADD MLOAD PUSH1 0xA0 ADD MLOAD DUP2 MSTORE PUSH1 0x20 ADD DUP13 PUSH1 0x40 ADD MLOAD DUP11 DUP2 MLOAD DUP2 LT PUSH2 0xBBF JUMPI PUSH4 0x4E487B71 PUSH1 0xE0 SHL PUSH1 0x0 MSTORE PUSH1 0x32 PUSH1 0x4 MSTORE PUSH1 0x24 PUSH1 0x0 REVERT JUMPDEST PUSH1 0x20 MUL PUSH1 0x20 ADD ADD MLOAD PUSH1 0x20 ADD MLOAD PUSH1 0x1 PUSH1 0x1 PUSH1 0xA0 SHL SUB AND DUP2 MSTORE PUSH1 0x20 ADD DUP13 PUSH1 0x40 ADD MLOAD DUP11 DUP2 MLOAD DUP2 LT PUSH2 0xBFD JUMPI PUSH4 0x4E487B71 PUSH1 0xE0 SHL PUSH1 0x0 MSTORE PUSH1 0x32 PUSH1 0x4 MSTORE PUSH1 0x24 PUSH1 0x0 REVERT JUMPDEST PUSH1 0x20 MUL PUSH1 0x20 ADD ADD MLOAD PUSH1 0x40 ADD MLOAD PUSH1 0x1 PUSH1 0x1 PUSH1 0xA0 SHL SUB AND DUP2 MSTORE PUSH1 0x20 ADD DUP13 PUSH1 0x40 ADD MLOAD DUP11 DUP2 MLOAD DUP2 LT PUSH2 0xC3B JUMPI PUSH4 0x4E487B71 PUSH1 0xE0 SHL PUSH1 0x0 MSTORE PUSH1 0x32 PUSH1 0x4 MSTORE PUSH1 0x24 PUSH1 0x0 REVERT JUMPDEST PUSH1 0x20 MUL PUSH1 0x20 ADD ADD MLOAD PUSH1 0x0 ADD MLOAD PUSH1 0x1 PUSH1 0x1 PUSH1 0xA0 SHL SUB AND DUP2 MSTORE POP SWAP1 POP PUSH2 0xC5E DUP2 PUSH2 0x18A1 JUMP JUMPDEST POP DUP11 PUSH1 0x40 ADD MLOAD DUP9 DUP2 MLOAD DUP2 LT PUSH2 0xC83 JUMPI PUSH4 0x4E487B71 PUSH1 0xE0 SHL PUSH1 0x0 MSTORE PUSH1 0x32 PUSH1 0x4 MSTORE PUSH1 0x24 PUSH1 0x0 REVERT JUMPDEST PUSH1 0x20 MUL PUSH1 0x20 ADD ADD MLOAD PUSH1 0x0 ADD MLOAD PUSH1 0x1 PUSH1 0x1 PUSH1 0xA0 SHL SUB AND PUSH4 0x22C0D9F DUP5 DUP5 PUSH1 0x1 DUP16 PUSH1 0x40 ADD MLOAD MLOAD PUSH2 0xCB1 SWAP2 SWAP1 PUSH2 0x2E73 JUMP JUMPDEST DUP13 LT PUSH2 0xCBD JUMPI ADDRESS PUSH2 0xCF8 JUMP JUMPDEST PUSH1 0x40 DUP16 ADD MLOAD PUSH2 0xCCD DUP14 PUSH1 0x1 PUSH2 0x2E1C JUMP JUMPDEST DUP2 MLOAD DUP2 LT PUSH2 0xCEB JUMPI PUSH4 0x4E487B71 PUSH1 0xE0 SHL PUSH1 0x0 MSTORE PUSH1 0x32 PUSH1 0x4 MSTORE PUSH1 0x24 PUSH1 0x0 REVERT JUMPDEST PUSH1 0x20 MUL PUSH1 0x20 ADD ADD MLOAD PUSH1 0x0 ADD MLOAD JUMPDEST PUSH1 0x40 DUP1 MLOAD PUSH1 0x0 DUP2 MSTORE PUSH1 0x20 DUP2 ADD SWAP2 DUP3 SWAP1 MSTORE PUSH1 0x1 PUSH1 0x1 PUSH1 0xE0 SHL SUB NOT PUSH1 0xE0 DUP8 SWAP1 SHL AND SWAP1 SWAP2 MSTORE PUSH2 0xD2A SWAP4 SWAP3 SWAP2 SWAP1 PUSH1 0x24 DUP2 ADD PUSH2 0x2D68 JUMP JUMPDEST PUSH1 0x0 PUSH1 0x40 MLOAD DUP1 DUP4 SUB DUP2 PUSH1 0x0 DUP8 DUP1 EXTCODESIZE ISZERO DUP1 ISZERO PUSH2 0xD44 JUMPI PUSH1 0x0 DUP1 REVERT JUMPDEST POP GAS CALL ISZERO DUP1 ISZERO PUSH2 0xD58 JUMPI RETURNDATASIZE PUSH1 0x0 DUP1 RETURNDATACOPY RETURNDATASIZE PUSH1 0x0 REVERT JUMPDEST POP POP POP POP PUSH2 0xD89 PUSH1 0x40 MLOAD DUP1 PUSH1 0x40 ADD PUSH1 0x40 MSTORE DUP1 PUSH1 0xC DUP2 MSTORE PUSH1 0x20 ADD PUSH12 0x537761702073756363657373 PUSH1 0xA0 SHL DUP2 MSTORE POP PUSH2 0x1E66 JUMP JUMPDEST POP POP POP POP POP POP POP DUP1 DUP1 PUSH2 0xD9B SWAP1 PUSH2 0x2EBA JUMP JUMPDEST SWAP2 POP POP PUSH2 0x7CD JUMP JUMPDEST POP PUSH2 0xDEE DUP4 PUSH1 0x40 ADD MLOAD PUSH1 0x0 DUP2 MLOAD DUP2 LT PUSH2 0xDCC JUMPI PUSH4 0x4E487B71 PUSH1 0xE0 SHL PUSH1 0x0 MSTORE PUSH1 0x32 PUSH1 0x4 MSTORE PUSH1 0x24 PUSH1 0x0 REVERT JUMPDEST PUSH1 0x20 SWAP1 DUP2 MUL SWAP2 SWAP1 SWAP2 ADD DUP2 ADD MLOAD MLOAD DUP6 MLOAD SWAP2 DUP7 ADD MLOAD PUSH1 0x1 PUSH1 0x1 PUSH1 0xA0 SHL SUB AND SWAP2 PUSH2 0x20A0 JUMP JUMPDEST POP POP POP POP POP POP POP POP JUMP JUMPDEST POP JUMP JUMPDEST PUSH2 0xE26 PUSH1 0x40 MLOAD DUP1 PUSH1 0x40 ADD PUSH1 0x40 MSTORE DUP1 PUSH1 0x9 DUP2 MSTORE PUSH1 0x20 ADD PUSH9 0x21B0B9B29024A21D1 PUSH1 0xBD SHL DUP2 MSTORE POP DUP3 PUSH2 0x20F6 JUMP JUMPDEST PUSH1 0x40 MLOAD PUSH4 0x70A08231 PUSH1 0xE0 SHL DUP2 MSTORE PUSH1 0x0 SWAP1 PUSH1 0x1 PUSH1 0x1 PUSH1 0xA0 SHL SUB DUP6 AND SWAP1 PUSH4 0x70A08231 SWAP1 PUSH2 0xE55 SWAP1 ADDRESS SWAP1 PUSH1 0x4 ADD PUSH2 0x29B0 JUMP JUMPDEST PUSH1 0x20 PUSH1 0x40 MLOAD DUP1 DUP4 SUB DUP2 DUP7 DUP1 EXTCODESIZE ISZERO DUP1 ISZERO PUSH2 0xE6D JUMPI PUSH1 0x0 DUP1 REVERT JUMPDEST POP GAS STATICCALL ISZERO DUP1 ISZERO PUSH2 0xE81 JUMPI RETURNDATASIZE PUSH1 0x0 DUP1 RETURNDATACOPY RETURNDATASIZE PUSH1 0x0 REVERT JUMPDEST POP POP POP POP PUSH1 0x40 MLOAD RETURNDATASIZE PUSH1 0x1F NOT PUSH1 0x1F DUP3 ADD AND DUP3 ADD DUP1 PUSH1 0x40 MSTORE POP DUP2 ADD SWAP1 PUSH2 0xEA5 SWAP2 SWAP1 PUSH2 0x2950 JUMP JUMPDEST SWAP1 POP PUSH2 0xED7 PUSH1 0x40 MLOAD DUP1 PUSH1 0x40 ADD PUSH1 0x40 MSTORE DUP1 PUSH1 0xE DUP2 MSTORE PUSH1 0x20 ADD PUSH14 0x42616C616E6365204265666F7265 PUSH1 0x90 SHL DUP2 MSTORE POP DUP3 PUSH2 0x1EA9 JUMP JUMPDEST PUSH1 0x0 DUP6 PUSH1 0x0 DUP2 MLOAD DUP2 LT PUSH2 0xEFA JUMPI PUSH4 0x4E487B71 PUSH1 0xE0 SHL PUSH1 0x0 MSTORE PUSH1 0x32 PUSH1 0x4 MSTORE PUSH1 0x24 PUSH1 0x0 REVERT JUMPDEST PUSH1 0x20 MUL PUSH1 0x20 ADD ADD MLOAD PUSH1 0x0 ADD MLOAD PUSH1 0x1 PUSH1 0x1 PUSH1 0xA0 SHL SUB AND PUSH4 0xDFE1681 PUSH1 0x40 MLOAD DUP2 PUSH4 0xFFFFFFFF AND PUSH1 0xE0 SHL DUP2 MSTORE PUSH1 0x4 ADD PUSH1 0x20 PUSH1 0x40 MLOAD DUP1 DUP4 SUB DUP2 DUP7 DUP1 EXTCODESIZE ISZERO DUP1 ISZERO PUSH2 0xF3E JUMPI PUSH1 0x0 DUP1 REVERT JUMPDEST POP GAS STATICCALL ISZERO DUP1 ISZERO PUSH2 0xF52 JUMPI RETURNDATASIZE PUSH1 0x0 DUP1 RETURNDATACOPY RETURNDATASIZE PUSH1 0x0 REVERT JUMPDEST POP POP POP POP PUSH1 0x40 MLOAD RETURNDATASIZE PUSH1 0x1F NOT PUSH1 0x1F DUP3 ADD AND DUP3 ADD DUP1 PUSH1 0x40 MSTORE POP DUP2 ADD SWAP1 PUSH2 0xF76 SWAP2 SWAP1 PUSH2 0x25C5 JUMP JUMPDEST SWAP1 POP PUSH1 0x0 DUP7 PUSH1 0x0 DUP2 MLOAD DUP2 LT PUSH2 0xF9B JUMPI PUSH4 0x4E487B71 PUSH1 0xE0 SHL PUSH1 0x0 MSTORE PUSH1 0x32 PUSH1 0x4 MSTORE PUSH1 0x24 PUSH1 0x0 REVERT JUMPDEST PUSH1 0x20 MUL PUSH1 0x20 ADD ADD MLOAD PUSH1 0x0 ADD MLOAD PUSH1 0x1 PUSH1 0x1 PUSH1 0xA0 SHL SUB AND PUSH4 0xD21220A7 PUSH1 0x40 MLOAD DUP2 PUSH4 0xFFFFFFFF AND PUSH1 0xE0 SHL DUP2 MSTORE PUSH1 0x4 ADD PUSH1 0x20 PUSH1 0x40 MLOAD DUP1 DUP4 SUB DUP2 DUP7 DUP1 EXTCODESIZE ISZERO DUP1 ISZERO PUSH2 0xFDF JUMPI PUSH1 0x0 DUP1 REVERT JUMPDEST POP GAS STATICCALL ISZERO DUP1 ISZERO PUSH2 0xFF3 JUMPI RETURNDATASIZE PUSH1 0x0 DUP1 RETURNDATACOPY RETURNDATASIZE PUSH1 0x0 REVERT JUMPDEST POP POP POP POP PUSH1 0x40 MLOAD RETURNDATASIZE PUSH1 0x1F NOT PUSH1 0x1F DUP3 ADD AND DUP3 ADD DUP1 PUSH1 0x40 MSTORE POP DUP2 ADD SWAP1 PUSH2 0x1017 SWAP2 SWAP1 PUSH2 0x25C5 JUMP JUMPDEST SWAP1 POP PUSH1 0x0 DUP3 PUSH1 0x1 PUSH1 0x1 PUSH1 0xA0 SHL SUB AND PUSH4 0x70A08231 DUP10 PUSH1 0x0 DUP2 MLOAD DUP2 LT PUSH2 0x104B JUMPI PUSH4 0x4E487B71 PUSH1 0xE0 SHL PUSH1 0x0 MSTORE PUSH1 0x32 PUSH1 0x4 MSTORE PUSH1 0x24 PUSH1 0x0 REVERT JUMPDEST PUSH1 0x20 MUL PUSH1 0x20 ADD ADD MLOAD PUSH1 0x0 ADD MLOAD PUSH1 0x40 MLOAD DUP3 PUSH4 0xFFFFFFFF AND PUSH1 0xE0 SHL DUP2 MSTORE PUSH1 0x4 ADD PUSH2 0x1073 SWAP2 SWAP1 PUSH2 0x29B0 JUMP JUMPDEST PUSH1 0x20 PUSH1 0x40 MLOAD DUP1 DUP4 SUB DUP2 DUP7 DUP1 EXTCODESIZE ISZERO DUP1 ISZERO PUSH2 0x108B JUMPI PUSH1 0x0 DUP1 REVERT JUMPDEST POP GAS STATICCALL ISZERO DUP1 ISZERO PUSH2 0x109F JUMPI RETURNDATASIZE PUSH1 0x0 DUP1 RETURNDATACOPY RETURNDATASIZE PUSH1 0x0 REVERT JUMPDEST POP POP POP POP PUSH1 0x40 MLOAD RETURNDATASIZE PUSH1 0x1F NOT PUSH1 0x1F DUP3 ADD AND DUP3 ADD DUP1 PUSH1 0x40 MSTORE POP DUP2 ADD SWAP1 PUSH2 0x10C3 SWAP2 SWAP1 PUSH2 0x2950 JUMP JUMPDEST SWAP1 POP PUSH1 0x0 DUP3 PUSH1 0x1 PUSH1 0x1 PUSH1 0xA0 SHL SUB AND PUSH4 0x70A08231 DUP11 PUSH1 0x0 DUP2 MLOAD DUP2 LT PUSH2 0x10F7 JUMPI PUSH4 0x4E487B71 PUSH1 0xE0 SHL PUSH1 0x0 MSTORE PUSH1 0x32 PUSH1 0x4 MSTORE PUSH1 0x24 PUSH1 0x0 REVERT JUMPDEST PUSH1 0x20 MUL PUSH1 0x20 ADD ADD MLOAD PUSH1 0x0 ADD MLOAD PUSH1 0x40 MLOAD DUP3 PUSH4 0xFFFFFFFF AND PUSH1 0xE0 SHL DUP2 MSTORE PUSH1 0x4 ADD PUSH2 0x111F SWAP2 SWAP1 PUSH2 0x29B0 JUMP JUMPDEST PUSH1 0x20 PUSH1 0x40 MLOAD DUP1 DUP4 SUB DUP2 DUP7 DUP1 EXTCODESIZE ISZERO DUP1 ISZERO PUSH2 0x1137 JUMPI PUSH1 0x0 DUP1 REVERT JUMPDEST POP GAS STATICCALL ISZERO DUP1 ISZERO PUSH2 0x114B JUMPI RETURNDATASIZE PUSH1 0x0 DUP1 RETURNDATACOPY RETURNDATASIZE PUSH1 0x0 REVERT JUMPDEST POP POP POP POP PUSH1 0x40 MLOAD RETURNDATASIZE PUSH1 0x1F NOT PUSH1 0x1F DUP3 ADD AND DUP3 ADD DUP1 PUSH1 0x40 MSTORE POP DUP2 ADD SWAP1 PUSH2 0x116F SWAP2 SWAP1 PUSH2 0x2950 JUMP JUMPDEST SWAP1 POP PUSH2 0x119D PUSH1 0x40 MLOAD DUP1 PUSH1 0x40 ADD PUSH1 0x40 MSTORE DUP1 PUSH1 0xA DUP2 MSTORE PUSH1 0x20 ADD PUSH10 0x3130B630B731B290181 PUSH1 0xB5 SHL DUP2 MSTORE POP DUP4 PUSH2 0x1EA9 JUMP JUMPDEST PUSH2 0x11C9 PUSH1 0x40 MLOAD DUP1 PUSH1 0x40 ADD PUSH1 0x40 MSTORE DUP1 PUSH1 0xA DUP2 MSTORE PUSH1 0x20 ADD PUSH10 0x3130B630B731B290189 PUSH1 0xB5 SHL DUP2 MSTORE POP DUP3 PUSH2 0x1EA9 JUMP JUMPDEST DUP9 PUSH1 0x0 DUP2 MLOAD DUP2 LT PUSH2 0x11EA JUMPI PUSH4 0x4E487B71 PUSH1 0xE0 SHL PUSH1 0x0 MSTORE PUSH1 0x32 PUSH1 0x4 MSTORE PUSH1 0x24 PUSH1 0x0 REVERT JUMPDEST PUSH1 0x20 MUL PUSH1 0x20 ADD ADD MLOAD PUSH1 0x0 ADD MLOAD PUSH1 0x1 PUSH1 0x1 PUSH1 0xA0 SHL SUB AND PUSH4 0x902F1AC PUSH1 0x40 MLOAD DUP2 PUSH4 0xFFFFFFFF AND PUSH1 0xE0 SHL DUP2 MSTORE PUSH1 0x4 ADD PUSH1 0x60 PUSH1 0x40 MLOAD DUP1 DUP4 SUB DUP2 DUP7 DUP1 EXTCODESIZE ISZERO DUP1 ISZERO PUSH2 0x122E JUMPI PUSH1 0x0 DUP1 REVERT JUMPDEST POP GAS STATICCALL ISZERO DUP1 ISZERO PUSH2 0x1242 JUMPI RETURNDATASIZE PUSH1 0x0 DUP1 RETURNDATACOPY RETURNDATASIZE PUSH1 0x0 REVERT JUMPDEST POP POP POP POP PUSH1 0x40 MLOAD RETURNDATASIZE PUSH1 0x1F NOT PUSH1 0x1F DUP3 ADD AND DUP3 ADD DUP1 PUSH1 0x40 MSTORE POP DUP2 ADD SWAP1 PUSH2 0x1266 SWAP2 SWAP1 PUSH2 0x2902 JUMP JUMPDEST DUP3 PUSH1 0x1 PUSH1 0x1 PUSH1 0x70 SHL SUB AND SWAP3 POP DUP2 PUSH1 0x1 PUSH1 0x1 PUSH1 0x70 SHL SUB AND SWAP2 POP POP DUP11 PUSH1 0x0 DUP2 MLOAD DUP2 LT PUSH2 0x12A0 JUMPI PUSH4 0x4E487B71 PUSH1 0xE0 SHL PUSH1 0x0 MSTORE PUSH1 0x32 PUSH1 0x4 MSTORE PUSH1 0x24 PUSH1 0x0 REVERT JUMPDEST PUSH1 0x20 MUL PUSH1 0x20 ADD ADD MLOAD PUSH1 0x60 ADD DUP12 PUSH1 0x0 DUP2 MLOAD DUP2 LT PUSH2 0x12CC JUMPI PUSH4 0x4E487B71 PUSH1 0xE0 SHL PUSH1 0x0 MSTORE PUSH1 0x32 PUSH1 0x4 MSTORE PUSH1 0x24 PUSH1 0x0 REVERT JUMPDEST PUSH1 0x20 MUL PUSH1 0x20 ADD ADD MLOAD PUSH1 0x80 ADD DUP3 DUP2 MSTORE POP DUP3 DUP2 MSTORE POP POP POP PUSH1 0x0 PUSH2 0x1452 DUP9 DUP12 PUSH1 0x0 DUP2 MLOAD DUP2 LT PUSH2 0x1308 JUMPI PUSH4 0x4E487B71 PUSH1 0xE0 SHL PUSH1 0x0 MSTORE PUSH1 0x32 PUSH1 0x4 MSTORE PUSH1 0x24 PUSH1 0x0 REVERT JUMPDEST PUSH1 0x20 MUL PUSH1 0x20 ADD ADD MLOAD PUSH1 0x20 ADD MLOAD PUSH1 0x1 PUSH1 0x1 PUSH1 0xA0 SHL SUB AND DUP12 PUSH1 0x1 PUSH1 0x1 PUSH1 0xA0 SHL SUB AND EQ PUSH2 0x135E JUMPI DUP12 PUSH1 0x0 DUP2 MLOAD DUP2 LT PUSH2 0x134D JUMPI PUSH4 0x4E487B71 PUSH1 0xE0 SHL PUSH1 0x0 MSTORE PUSH1 0x32 PUSH1 0x4 MSTORE PUSH1 0x24 PUSH1 0x0 REVERT JUMPDEST PUSH1 0x20 MUL PUSH1 0x20 ADD ADD MLOAD PUSH1 0x80 ADD MLOAD PUSH2 0x138C JUMP JUMPDEST DUP12 PUSH1 0x0 DUP2 MLOAD DUP2 LT PUSH2 0x137F JUMPI PUSH4 0x4E487B71 PUSH1 0xE0 SHL PUSH1 0x0 MSTORE PUSH1 0x32 PUSH1 0x4 MSTORE PUSH1 0x24 PUSH1 0x0 REVERT JUMPDEST PUSH1 0x20 MUL PUSH1 0x20 ADD ADD MLOAD PUSH1 0x60 ADD MLOAD JUMPDEST DUP13 PUSH1 0x0 DUP2 MLOAD DUP2 LT PUSH2 0x13AD JUMPI PUSH4 0x4E487B71 PUSH1 0xE0 SHL PUSH1 0x0 MSTORE PUSH1 0x32 PUSH1 0x4 MSTORE PUSH1 0x24 PUSH1 0x0 REVERT JUMPDEST PUSH1 0x20 MUL PUSH1 0x20 ADD ADD MLOAD PUSH1 0x20 ADD MLOAD PUSH1 0x1 PUSH1 0x1 PUSH1 0xA0 SHL SUB AND DUP13 PUSH1 0x1 PUSH1 0x1 PUSH1 0xA0 SHL SUB AND EQ PUSH2 0x1403 JUMPI DUP13 PUSH1 0x0 DUP2 MLOAD DUP2 LT PUSH2 0x13F2 JUMPI PUSH4 0x4E487B71 PUSH1 0xE0 SHL PUSH1 0x0 MSTORE PUSH1 0x32 PUSH1 0x4 MSTORE PUSH1 0x24 PUSH1 0x0 REVERT JUMPDEST PUSH1 0x20 MUL PUSH1 0x20 ADD ADD MLOAD PUSH1 0x60 ADD MLOAD PUSH2 0x1431 JUMP JUMPDEST DUP13 PUSH1 0x0 DUP2 MLOAD DUP2 LT PUSH2 0x1424 JUMPI PUSH4 0x4E487B71 PUSH1 0xE0 SHL PUSH1 0x0 MSTORE PUSH1 0x32 PUSH1 0x4 MSTORE PUSH1 0x24 PUSH1 0x0 REVERT JUMPDEST PUSH1 0x20 MUL PUSH1 0x20 ADD ADD MLOAD PUSH1 0x80 ADD MLOAD JUMPDEST DUP14 PUSH1 0x0 DUP2 MLOAD DUP2 LT PUSH2 0xAAF JUMPI PUSH4 0x4E487B71 PUSH1 0xE0 SHL PUSH1 0x0 MSTORE PUSH1 0x32 PUSH1 0x4 MSTORE PUSH1 0x24 PUSH1 0x0 REVERT JUMPDEST SWAP1 POP PUSH2 0x146C PUSH1 0x40 MLOAD DUP1 PUSH1 0x20 ADD PUSH1 0x40 MSTORE DUP1 PUSH1 0x0 DUP2 MSTORE POP PUSH2 0x1E66 JUMP JUMPDEST PUSH2 0x149A PUSH1 0x40 MLOAD DUP1 PUSH1 0x40 ADD PUSH1 0x40 MSTORE DUP1 PUSH1 0xC DUP2 MSTORE PUSH1 0x20 ADD PUSH12 0x2232B13A1030B6B7BAB73A1 PUSH1 0xA5 SHL DUP2 MSTORE POP DUP10 PUSH2 0x1EA9 JUMP JUMPDEST PUSH2 0x14CA PUSH1 0x40 MLOAD DUP1 PUSH1 0x40 ADD PUSH1 0x40 MSTORE DUP1 PUSH1 0xE DUP2 MSTORE PUSH1 0x20 ADD PUSH14 0x2137B93937BB9030B6B7BAB73A1 PUSH1 0x95 SHL DUP2 MSTORE POP DUP3 PUSH2 0x1EA9 JUMP JUMPDEST PUSH1 0x0 DUP1 DUP12 PUSH1 0x0 DUP2 MLOAD DUP2 LT PUSH2 0x14EE JUMPI PUSH4 0x4E487B71 PUSH1 0xE0 SHL PUSH1 0x0 MSTORE PUSH1 0x32 PUSH1 0x4 MSTORE PUSH1 0x24 PUSH1 0x0 REVERT JUMPDEST PUSH1 0x20 MUL PUSH1 0x20 ADD ADD MLOAD PUSH1 0x20 ADD MLOAD PUSH1 0x1 PUSH1 0x1 PUSH1 0xA0 SHL SUB AND DUP12 PUSH1 0x1 PUSH1 0x1 PUSH1 0xA0 SHL SUB AND EQ PUSH2 0x151A JUMPI DUP3 PUSH1 0x0 PUSH2 0x151E JUMP JUMPDEST PUSH1 0x0 DUP4 JUMPDEST SWAP2 POP SWAP2 POP PUSH2 0x1545 PUSH1 0x40 MLOAD DUP1 PUSH1 0x60 ADD PUSH1 0x40 MSTORE DUP1 PUSH1 0x21 DUP2 MSTORE PUSH1 0x20 ADD PUSH2 0x2F25 PUSH1 0x21 SWAP2 CODECOPY DUP4 DUP4 PUSH2 0x213B JUMP JUMPDEST PUSH2 0x1584 PUSH1 0x40 MLOAD DUP1 PUSH1 0x40 ADD PUSH1 0x40 MSTORE DUP1 PUSH1 0x1B DUP2 MSTORE PUSH1 0x20 ADD PUSH32 0x426F72726F7720496E7465726D65646961727920546F6B656E3A200000000000 DUP2 MSTORE POP DUP12 PUSH2 0x1EA9 JUMP JUMPDEST PUSH2 0x15AC PUSH1 0x40 MLOAD DUP1 PUSH1 0x40 ADD PUSH1 0x40 MSTORE DUP1 PUSH1 0x6 DUP2 MSTORE PUSH1 0x20 ADD PUSH6 0x2232B13A1D1 PUSH1 0xD5 SHL DUP2 MSTORE POP DUP12 PUSH2 0x1EA9 JUMP JUMPDEST PUSH2 0x15B4 PUSH2 0x2427 JUMP JUMPDEST DUP11 DUP2 MSTORE PUSH1 0x1 PUSH1 0x1 PUSH1 0xA0 SHL SUB DUP13 AND PUSH1 0x20 DUP1 DUP4 ADD SWAP2 SWAP1 SWAP2 MSTORE PUSH1 0x40 DUP1 DUP4 ADD DUP16 SWAP1 MSTORE MLOAD PUSH1 0x0 SWAP2 PUSH2 0x15E2 SWAP2 DUP5 SWAP2 ADD PUSH2 0x2CBD JUMP JUMPDEST PUSH1 0x40 MLOAD PUSH1 0x20 DUP2 DUP4 SUB SUB DUP2 MSTORE SWAP1 PUSH1 0x40 MSTORE SWAP1 POP DUP14 PUSH1 0x0 DUP2 MLOAD DUP2 LT PUSH2 0x1614 JUMPI PUSH4 0x4E487B71 PUSH1 0xE0 SHL PUSH1 0x0 MSTORE PUSH1 0x32 PUSH1 0x4 MSTORE PUSH1 0x24 PUSH1 0x0 REVERT JUMPDEST PUSH1 0x20 MUL PUSH1 0x20 ADD ADD MLOAD PUSH1 0x0 ADD MLOAD PUSH1 0x1 PUSH1 0x1 PUSH1 0xA0 SHL SUB AND PUSH4 0x22C0D9F DUP6 DUP6 ADDRESS DUP6 PUSH1 0x40 MLOAD DUP6 PUSH4 0xFFFFFFFF AND PUSH1 0xE0 SHL DUP2 MSTORE PUSH1 0x4 ADD PUSH2 0x1651 SWAP5 SWAP4 SWAP3 SWAP2 SWAP1 PUSH2 0x2D68 JUMP JUMPDEST PUSH1 0x0 PUSH1 0x40 MLOAD DUP1 DUP4 SUB DUP2 PUSH1 0x0 DUP8 DUP1 EXTCODESIZE ISZERO DUP1 ISZERO PUSH2 0x166B JUMPI PUSH1 0x0 DUP1 REVERT JUMPDEST POP GAS CALL ISZERO DUP1 ISZERO PUSH2 0x167F JUMPI RETURNDATASIZE PUSH1 0x0 DUP1 RETURNDATACOPY RETURNDATASIZE PUSH1 0x0 REVERT JUMPDEST POP POP POP POP POP POP POP POP POP PUSH1 0x0 DUP9 PUSH1 0x1 PUSH1 0x1 PUSH1 0xA0 SHL SUB AND PUSH4 0x70A08231 ADDRESS PUSH1 0x40 MLOAD DUP3 PUSH4 0xFFFFFFFF AND PUSH1 0xE0 SHL DUP2 MSTORE PUSH1 0x4 ADD PUSH2 0x16B6 SWAP2 SWAP1 PUSH2 0x29B0 JUMP JUMPDEST PUSH1 0x20 PUSH1 0x40 MLOAD DUP1 DUP4 SUB DUP2 DUP7 DUP1 EXTCODESIZE ISZERO DUP1 ISZERO PUSH2 0x16CE JUMPI PUSH1 0x0 DUP1 REVERT JUMPDEST POP GAS STATICCALL ISZERO DUP1 ISZERO PUSH2 0x16E2 JUMPI RETURNDATASIZE PUSH1 0x0 DUP1 RETURNDATACOPY RETURNDATASIZE PUSH1 0x0 REVERT JUMPDEST POP POP POP POP PUSH1 0x40 MLOAD RETURNDATASIZE PUSH1 0x1F NOT PUSH1 0x1F DUP3 ADD AND DUP3 ADD DUP1 PUSH1 0x40 MSTORE POP DUP2 ADD SWAP1 PUSH2 0x1706 SWAP2 SWAP1 PUSH2 0x2950 JUMP JUMPDEST SWAP1 POP PUSH2 0x1737 PUSH1 0x40 MLOAD DUP1 PUSH1 0x40 ADD PUSH1 0x40 MSTORE DUP1 PUSH1 0xD DUP2 MSTORE PUSH1 0x20 ADD PUSH13 0x2130B630B731B29020B33A32B9 PUSH1 0x99 SHL DUP2 MSTORE POP DUP3 PUSH2 0x1EA9 JUMP JUMPDEST DUP6 DUP2 GT PUSH2 0x1756 JUMPI PUSH1 0x40 MLOAD PUSH3 0x461BCD PUSH1 0xE5 SHL DUP2 MSTORE PUSH1 0x4 ADD PUSH2 0x216 SWAP1 PUSH2 0x2ABE JUMP JUMPDEST POP POP POP POP POP POP POP POP POP POP JUMP JUMPDEST PUSH2 0x176A PUSH2 0x2182 JUMP JUMPDEST PUSH1 0x40 MLOAD PUSH4 0x70A08231 PUSH1 0xE0 SHL DUP2 MSTORE PUSH1 0x0 SWAP1 PUSH1 0x1 PUSH1 0x1 PUSH1 0xA0 SHL SUB DUP4 AND SWAP1 PUSH4 0x70A08231 SWAP1 PUSH2 0x1799 SWAP1 ADDRESS SWAP1 PUSH1 0x4 ADD PUSH2 0x29B0 JUMP JUMPDEST PUSH1 0x20 PUSH1 0x40 MLOAD DUP1 DUP4 SUB DUP2 DUP7 DUP1 EXTCODESIZE ISZERO DUP1 ISZERO PUSH2 0x17B1 JUMPI PUSH1 0x0 DUP1 REVERT JUMPDEST POP GAS STATICCALL ISZERO DUP1 ISZERO PUSH2 0x17C5 JUMPI RETURNDATASIZE PUSH1 0x0 DUP1 RETURNDATACOPY RETURNDATASIZE PUSH1 0x0 REVERT JUMPDEST POP POP POP POP PUSH1 0x40 MLOAD RETURNDATASIZE PUSH1 0x1F NOT PUSH1 0x1F DUP3 ADD AND DUP3 ADD DUP1 PUSH1 0x40 MSTORE POP DUP2 ADD SWAP1 PUSH2 0x17E9 SWAP2 SWAP1 PUSH2 0x2950 JUMP JUMPDEST SWAP1 POP DUP1 ISZERO PUSH2 0x187A JUMPI DUP2 PUSH1 0x1 PUSH1 0x1 PUSH1 0xA0 SHL SUB AND PUSH4 0xA9059CBB PUSH2 0x1808 PUSH2 0x1892 JUMP JUMPDEST DUP4 PUSH1 0x40 MLOAD DUP4 PUSH4 0xFFFFFFFF AND PUSH1 0xE0 SHL DUP2 MSTORE PUSH1 0x4 ADD PUSH2 0x1826 SWAP3 SWAP2 SWAP1 PUSH2 0x29C4 JUMP JUMPDEST PUSH1 0x20 PUSH1 0x40 MLOAD DUP1 DUP4 SUB DUP2 PUSH1 0x0 DUP8 DUP1 EXTCODESIZE ISZERO DUP1 ISZERO PUSH2 0x1840 JUMPI PUSH1 0x0 DUP1 REVERT JUMPDEST POP GAS CALL ISZERO DUP1 ISZERO PUSH2 0x1854 JUMPI RETURNDATASIZE PUSH1 0x0 DUP1 RETURNDATACOPY RETURNDATASIZE PUSH1 0x0 REVERT JUMPDEST POP POP POP POP PUSH1 0x40 MLOAD RETURNDATASIZE PUSH1 0x1F NOT PUSH1 0x1F DUP3 ADD AND DUP3 ADD DUP1 PUSH1 0x40 MSTORE POP DUP2 ADD SWAP1 PUSH2 0x1878 SWAP2 SWAP1 PUSH2 0x2707 JUMP JUMPDEST POP JUMPDEST POP POP JUMP JUMPDEST PUSH2 0x1886 PUSH2 0x2182 JUMP JUMPDEST PUSH2 0x1890 PUSH1 0x0 PUSH2 0x21C1 JUMP JUMPDEST JUMP JUMPDEST PUSH1 0x0 SLOAD PUSH1 0x1 PUSH1 0x1 PUSH1 0xA0 SHL SUB AND SWAP1 JUMP JUMPDEST PUSH1 0x0 DUP1 DUP3 PUSH1 0x40 ADD MLOAD PUSH2 0x18C3 JUMPI PUSH1 0x80 DUP4 ADD MLOAD DUP4 MLOAD PUSH2 0x18BE SWAP2 SWAP1 PUSH2 0x2E73 JUMP JUMPDEST PUSH2 0x18D4 JUMP JUMPDEST PUSH1 0x60 DUP4 ADD MLOAD DUP4 MLOAD PUSH2 0x18D4 SWAP2 SWAP1 PUSH2 0x2E1C JUMP JUMPDEST SWAP1 POP PUSH1 0x0 DUP4 PUSH1 0x40 ADD MLOAD PUSH2 0x18FA JUMPI DUP4 PUSH1 0x60 ADD MLOAD DUP5 PUSH1 0x20 ADD MLOAD PUSH2 0x18F5 SWAP2 SWAP1 PUSH2 0x2E1C JUMP JUMPDEST PUSH2 0x190E JUMP JUMPDEST DUP4 PUSH1 0x80 ADD MLOAD DUP5 PUSH1 0x20 ADD MLOAD PUSH2 0x190E SWAP2 SWAP1 PUSH2 0x2E73 JUMP JUMPDEST SWAP1 POP PUSH1 0x0 DUP5 PUSH1 0x40 ADD MLOAD PUSH2 0x1922 JUMPI PUSH1 0x0 PUSH2 0x1928 JUMP JUMPDEST DUP5 PUSH1 0x60 ADD MLOAD JUMPDEST SWAP1 POP PUSH1 0x0 DUP6 PUSH1 0x40 ADD MLOAD PUSH2 0x193F JUMPI DUP6 PUSH1 0x60 ADD MLOAD PUSH2 0x1942 JUMP JUMPDEST PUSH1 0x0 JUMPDEST SWAP1 POP PUSH1 0x0 DUP7 PUSH1 0x40 ADD MLOAD PUSH2 0x1959 JUMPI DUP7 PUSH1 0x80 ADD MLOAD PUSH2 0x195C JUMP JUMPDEST PUSH1 0x0 JUMPDEST SWAP1 POP PUSH1 0x0 DUP8 PUSH1 0x40 ADD MLOAD PUSH2 0x1970 JUMPI PUSH1 0x0 PUSH2 0x1976 JUMP JUMPDEST DUP8 PUSH1 0x80 ADD MLOAD JUMPDEST SWAP1 POP PUSH1 0x0 DUP9 PUSH1 0xA0 ADD MLOAD DUP6 PUSH2 0x198A SWAP2 SWAP1 PUSH2 0x2E54 JUMP JUMPDEST PUSH2 0x1996 DUP9 PUSH2 0x2710 PUSH2 0x2E54 JUMP JUMPDEST PUSH2 0x19A0 SWAP2 SWAP1 PUSH2 0x2E73 JUMP JUMPDEST SWAP1 POP PUSH1 0x0 DUP10 PUSH1 0xA0 ADD MLOAD DUP6 PUSH2 0x19B4 SWAP2 SWAP1 PUSH2 0x2E54 JUMP JUMPDEST PUSH2 0x19C0 DUP9 PUSH2 0x2710 PUSH2 0x2E54 JUMP JUMPDEST PUSH2 0x19CA SWAP2 SWAP1 PUSH2 0x2E73 JUMP JUMPDEST SWAP1 POP PUSH2 0x1A0A PUSH1 0x40 MLOAD DUP1 PUSH1 0x40 ADD PUSH1 0x40 MSTORE DUP1 PUSH1 0x17 DUP2 MSTORE PUSH1 0x20 ADD PUSH32 0x466C617368626F74202D2D2D2D2D2D2D2D2D2D2D2D2D2D000000000000000000 DUP2 MSTORE POP PUSH2 0x1E66 JUMP JUMPDEST PUSH2 0x1A36 PUSH1 0x40 MLOAD DUP1 PUSH1 0x40 ADD PUSH1 0x40 MSTORE DUP1 PUSH1 0xA DUP2 MSTORE PUSH1 0x20 ADD PUSH10 0x3130B630B731B290181 PUSH1 0xB5 SHL DUP2 MSTORE POP DUP10 PUSH2 0x1EA9 JUMP JUMPDEST PUSH2 0x1A66 PUSH1 0x40 MLOAD DUP1 PUSH1 0x40 ADD PUSH1 0x40 MSTORE DUP1 PUSH1 0xA DUP2 MSTORE PUSH1 0x20 ADD PUSH10 0x3932B9B2B93B3290181 PUSH1 0xB5 SHL DUP2 MSTORE POP DUP12 PUSH1 0x0 ADD MLOAD PUSH2 0x1EA9 JUMP JUMPDEST PUSH2 0x1A94 PUSH1 0x40 MLOAD DUP1 PUSH1 0x40 ADD PUSH1 0x40 MSTORE DUP1 PUSH1 0xC DUP2 MSTORE PUSH1 0x20 ADD PUSH12 0x30B6B7BAB73A10181034B71 PUSH1 0xA5 SHL DUP2 MSTORE POP DUP8 PUSH2 0x1EA9 JUMP JUMPDEST PUSH2 0x1AC3 PUSH1 0x40 MLOAD DUP1 PUSH1 0x40 ADD PUSH1 0x40 MSTORE DUP1 PUSH1 0xD DUP2 MSTORE PUSH1 0x20 ADD PUSH13 0x30B6B7BAB73A10181037BABA1 PUSH1 0x9D SHL DUP2 MSTORE POP DUP6 PUSH2 0x1EA9 JUMP JUMPDEST PUSH2 0x1AF7 PUSH1 0x40 MLOAD DUP1 PUSH1 0x40 ADD PUSH1 0x40 MSTORE DUP1 PUSH1 0x12 DUP2 MSTORE PUSH1 0x20 ADD PUSH18 0x18985B185B98D9480C08185A991D5CDD1959 PUSH1 0x72 SHL DUP2 MSTORE POP DUP4 PUSH2 0x1EA9 JUMP JUMPDEST PUSH2 0x1B23 PUSH1 0x40 MLOAD DUP1 PUSH1 0x40 ADD PUSH1 0x40 MSTORE DUP1 PUSH1 0xA DUP2 MSTORE PUSH1 0x20 ADD PUSH10 0x3130B630B731B290189 PUSH1 0xB5 SHL DUP2 MSTORE POP DUP9 PUSH2 0x1EA9 JUMP JUMPDEST PUSH2 0x1B53 PUSH1 0x40 MLOAD DUP1 PUSH1 0x40 ADD PUSH1 0x40 MSTORE DUP1 PUSH1 0xA DUP2 MSTORE PUSH1 0x20 ADD PUSH10 0x3932B9B2B93B3290189 PUSH1 0xB5 SHL DUP2 MSTORE POP DUP12 PUSH1 0x20 ADD MLOAD PUSH2 0x1EA9 JUMP JUMPDEST PUSH2 0x1B81 PUSH1 0x40 MLOAD DUP1 PUSH1 0x40 ADD PUSH1 0x40 MSTORE DUP1 PUSH1 0xC DUP2 MSTORE PUSH1 0x20 ADD PUSH12 0x30B6B7BAB73A10189034B71 PUSH1 0xA5 SHL DUP2 MSTORE POP DUP7 PUSH2 0x1EA9 JUMP JUMPDEST PUSH2 0x1BB0 PUSH1 0x40 MLOAD DUP1 PUSH1 0x40 ADD PUSH1 0x40 MSTORE DUP1 PUSH1 0xD DUP2 MSTORE PUSH1 0x20 ADD PUSH13 0x30B6B7BAB73A10189037BABA1 PUSH1 0x9D SHL DUP2 MSTORE POP DUP5 PUSH2 0x1EA9 JUMP JUMPDEST PUSH2 0x1BE4 PUSH1 0x40 MLOAD DUP1 PUSH1 0x40 ADD PUSH1 0x40 MSTORE DUP1 PUSH1 0x12 DUP2 MSTORE PUSH1 0x20 ADD PUSH18 0x18985B185B98D9480C48185A991D5CDD1959 PUSH1 0x72 SHL DUP2 MSTORE POP DUP3 PUSH2 0x1EA9 JUMP JUMPDEST PUSH2 0x1C13 PUSH1 0x40 MLOAD DUP1 PUSH1 0x40 ADD PUSH1 0x40 MSTORE DUP1 PUSH1 0x9 DUP2 MSTORE PUSH1 0x20 ADD PUSH9 0x39BBB0B8103332B29 PUSH1 0xBD SHL DUP2 MSTORE POP DUP12 PUSH1 0xA0 ADD MLOAD PUSH2 0x1EA9 JUMP JUMPDEST PUSH1 0x40 DUP1 MLOAD DUP1 DUP3 ADD SWAP1 SWAP2 MSTORE PUSH1 0x6 DUP2 MSTORE PUSH6 0x2632B33A1D1 PUSH1 0xD5 SHL PUSH1 0x20 DUP3 ADD MSTORE PUSH2 0x1C3E SWAP1 PUSH2 0x52B DUP4 DUP6 PUSH2 0x2E54 JUMP JUMPDEST PUSH2 0x1C83 PUSH1 0x40 MLOAD DUP1 PUSH1 0x40 ADD PUSH1 0x40 MSTORE DUP1 PUSH1 0x7 DUP2 MSTORE PUSH1 0x20 ADD PUSH7 0x2934B3B43A1D1 PUSH1 0xCD SHL DUP2 MSTORE POP DUP12 PUSH1 0x20 ADD MLOAD DUP13 PUSH1 0x0 ADD MLOAD PUSH2 0x1C75 SWAP2 SWAP1 PUSH2 0x2E54 JUMP JUMPDEST PUSH2 0x52B SWAP1 PUSH4 0x5F5E100 PUSH2 0x2E54 JUMP JUMPDEST PUSH2 0x1CD8 PUSH1 0x40 MLOAD DUP1 PUSH1 0x40 ADD PUSH1 0x40 MSTORE DUP1 PUSH1 0x6 DUP2 MSTORE PUSH1 0x20 ADD PUSH6 0x24B990259D1 PUSH1 0xD5 SHL DUP2 MSTORE POP DUP12 PUSH1 0x20 ADD MLOAD DUP13 PUSH1 0x0 ADD MLOAD PUSH2 0x1CB9 SWAP2 SWAP1 PUSH2 0x2E54 JUMP JUMPDEST PUSH2 0x1CC7 SWAP1 PUSH4 0x5F5E100 PUSH2 0x2E54 JUMP JUMPDEST PUSH2 0x1CD1 DUP5 DUP7 PUSH2 0x2E54 JUMP JUMPDEST LT ISZERO PUSH2 0x2211 JUMP JUMPDEST PUSH2 0x1D16 PUSH1 0x40 MLOAD DUP1 PUSH1 0x40 ADD PUSH1 0x40 MSTORE DUP1 PUSH1 0x1E DUP2 MSTORE PUSH1 0x20 ADD PUSH32 0x2D2D2D2D2D2D2D2D2D2D2D2D2D2D2D2D2D2D2D2D2D2D2D2D2D2D2D2D2D2D0000 DUP2 MSTORE POP PUSH2 0x1E66 JUMP JUMPDEST PUSH1 0x0 DUP1 DUP12 PUSH2 0x100 ADD MLOAD PUSH1 0x1 PUSH1 0x1 PUSH1 0xA0 SHL SUB AND PUSH4 0x902F1AC PUSH1 0x40 MLOAD DUP2 PUSH4 0xFFFFFFFF AND PUSH1 0xE0 SHL DUP2 MSTORE PUSH1 0x4 ADD PUSH1 0x60 PUSH1 0x40 MLOAD DUP1 DUP4 SUB DUP2 DUP7 DUP1 EXTCODESIZE ISZERO DUP1 ISZERO PUSH2 0x1D57 JUMPI PUSH1 0x0 DUP1 REVERT JUMPDEST POP GAS STATICCALL ISZERO DUP1 ISZERO PUSH2 0x1D6B JUMPI RETURNDATASIZE PUSH1 0x0 DUP1 RETURNDATACOPY RETURNDATASIZE PUSH1 0x0 REVERT JUMPDEST POP POP POP POP PUSH1 0x40 MLOAD RETURNDATASIZE PUSH1 0x1F NOT PUSH1 0x1F DUP3 ADD AND DUP3 ADD DUP1 PUSH1 0x40 MSTORE POP DUP2 ADD SWAP1 PUSH2 0x1D8F SWAP2 SWAP1 PUSH2 0x2902 JUMP JUMPDEST POP PUSH1 0x1 PUSH1 0x1 PUSH1 0x70 SHL SUB AND SWAP2 POP PUSH1 0x1 PUSH1 0x1 PUSH1 0x70 SHL SUB AND SWAP2 POP PUSH2 0x1DCC PUSH1 0x40 MLOAD DUP1 PUSH1 0x40 ADD PUSH1 0x40 MSTORE DUP1 PUSH1 0x4 DUP2 MSTORE PUSH1 0x20 ADD PUSH4 0x2FB9181 PUSH1 0xE5 SHL DUP2 MSTORE POP DUP4 PUSH2 0x1EA9 JUMP JUMPDEST PUSH2 0x1DF2 PUSH1 0x40 MLOAD DUP1 PUSH1 0x40 ADD PUSH1 0x40 MSTORE DUP1 PUSH1 0x4 DUP2 MSTORE PUSH1 0x20 ADD PUSH4 0x2FB9189 PUSH1 0xE5 SHL DUP2 MSTORE POP DUP3 PUSH2 0x1EA9 JUMP JUMPDEST PUSH1 0x20 DUP13 ADD MLOAD DUP13 MLOAD PUSH2 0x1E03 SWAP2 SWAP1 PUSH2 0x2E54 JUMP JUMPDEST PUSH2 0x1E11 SWAP1 PUSH4 0x5F5E100 PUSH2 0x2E54 JUMP JUMPDEST PUSH2 0x1E1B DUP5 DUP7 PUSH2 0x2E54 JUMP JUMPDEST LT ISZERO SWAP11 POP POP POP POP POP POP POP POP POP POP POP JUMPDEST SWAP2 SWAP1 POP JUMP JUMPDEST PUSH2 0x1E37 PUSH2 0x2182 JUMP JUMPDEST PUSH1 0x1 PUSH1 0x1 PUSH1 0xA0 SHL SUB DUP2 AND PUSH2 0x1E5D JUMPI PUSH1 0x40 MLOAD PUSH3 0x461BCD PUSH1 0xE5 SHL DUP2 MSTORE PUSH1 0x4 ADD PUSH2 0x216 SWAP1 PUSH2 0x2AE4 JUMP JUMPDEST PUSH2 0xDF8 DUP2 PUSH2 0x21C1 JUMP JUMPDEST PUSH2 0xDF8 DUP2 PUSH1 0x40 MLOAD PUSH1 0x24 ADD PUSH2 0x1E7A SWAP2 SWAP1 PUSH2 0x29E8 JUMP JUMPDEST PUSH1 0x40 DUP1 MLOAD PUSH1 0x1F NOT DUP2 DUP5 SUB ADD DUP2 MSTORE SWAP2 SWAP1 MSTORE PUSH1 0x20 DUP2 ADD DUP1 MLOAD PUSH1 0x1 PUSH1 0x1 PUSH1 0xE0 SHL SUB AND PUSH4 0x104C13EB PUSH1 0xE2 SHL OR SWAP1 MSTORE PUSH2 0x2252 JUMP JUMPDEST PUSH2 0x187A DUP3 DUP3 PUSH1 0x40 MLOAD PUSH1 0x24 ADD PUSH2 0x1EBF SWAP3 SWAP2 SWAP1 PUSH2 0x2A77 JUMP JUMPDEST PUSH1 0x40 DUP1 MLOAD PUSH1 0x1F NOT DUP2 DUP5 SUB ADD DUP2 MSTORE SWAP2 SWAP1 MSTORE PUSH1 0x20 DUP2 ADD DUP1 MLOAD PUSH1 0x1 PUSH1 0x1 PUSH1 0xE0 SHL SUB AND PUSH4 0x2D839CB3 PUSH1 0xE2 SHL OR SWAP1 MSTORE PUSH2 0x2252 JUMP JUMPDEST PUSH2 0x187A DUP3 DUP3 PUSH1 0x40 MLOAD PUSH1 0x24 ADD PUSH2 0x1F04 SWAP3 SWAP2 SWAP1 PUSH2 0x29FB JUMP JUMPDEST PUSH1 0x40 DUP1 MLOAD PUSH1 0x1F NOT DUP2 DUP5 SUB ADD DUP2 MSTORE SWAP2 SWAP1 MSTORE PUSH1 0x20 DUP2 ADD DUP1 MLOAD PUSH1 0x1 PUSH1 0x1 PUSH1 0xE0 SHL SUB AND PUSH4 0x319AF333 PUSH1 0xE0 SHL OR SWAP1 MSTORE PUSH2 0x2252 JUMP JUMPDEST PUSH1 0x0 DUP1 DUP6 GT PUSH2 0x1F54 JUMPI PUSH1 0x40 MLOAD PUSH3 0x461BCD PUSH1 0xE5 SHL DUP2 MSTORE PUSH1 0x4 ADD PUSH2 0x216 SWAP1 PUSH2 0x2BD5 JUMP JUMPDEST PUSH1 0x0 DUP5 GT DUP1 ISZERO PUSH2 0x1F64 JUMPI POP PUSH1 0x0 DUP4 GT JUMPDEST PUSH2 0x1F80 JUMPI PUSH1 0x40 MLOAD PUSH3 0x461BCD PUSH1 0xE5 SHL DUP2 MSTORE PUSH1 0x4 ADD PUSH2 0x216 SWAP1 PUSH2 0x2C8D JUMP JUMPDEST PUSH1 0x0 DUP3 ISZERO PUSH2 0x1F8E JUMPI DUP3 PUSH2 0x1F91 JUMP JUMPDEST PUSH1 0x19 JUMPDEST SWAP1 POP PUSH2 0x1FBF PUSH1 0x40 MLOAD DUP1 PUSH1 0x40 ADD PUSH1 0x40 MSTORE DUP1 PUSH1 0xA DUP2 MSTORE PUSH1 0x20 ADD PUSH10 0x29BBB0B8102332B29D1 PUSH1 0xB5 SHL DUP2 MSTORE POP DUP3 PUSH2 0x1EA9 JUMP JUMPDEST PUSH2 0x1FEB PUSH1 0x40 MLOAD DUP1 PUSH1 0x40 ADD PUSH1 0x40 MSTORE DUP1 PUSH1 0xA DUP2 MSTORE PUSH1 0x20 ADD PUSH10 0x30B6B7BAB73A24B71D1 PUSH1 0xB5 SHL DUP2 MSTORE POP DUP8 PUSH2 0x1EA9 JUMP JUMPDEST PUSH2 0x2018 PUSH1 0x40 MLOAD DUP1 PUSH1 0x40 ADD PUSH1 0x40 MSTORE DUP1 PUSH1 0xB DUP2 MSTORE PUSH1 0x20 ADD PUSH11 0x3932B9B2B93B32A4B71D1 PUSH1 0xAD SHL DUP2 MSTORE POP DUP7 PUSH2 0x1EA9 JUMP JUMPDEST PUSH2 0x2046 PUSH1 0x40 MLOAD DUP1 PUSH1 0x40 ADD PUSH1 0x40 MSTORE DUP1 PUSH1 0xC DUP2 MSTORE PUSH1 0x20 ADD PUSH12 0x3932B9B2B93B32A7BABA1D1 PUSH1 0xA5 SHL DUP2 MSTORE POP DUP6 PUSH2 0x1EA9 JUMP JUMPDEST PUSH1 0x0 PUSH2 0x2054 DUP3 PUSH2 0x2710 PUSH2 0x2E73 JUMP JUMPDEST PUSH2 0x205E SWAP1 DUP9 PUSH2 0x2E54 JUMP JUMPDEST SWAP1 POP PUSH1 0x0 PUSH2 0x206C DUP7 DUP4 PUSH2 0x2E54 JUMP JUMPDEST SWAP1 POP PUSH1 0x0 DUP3 PUSH2 0x207D DUP10 PUSH2 0x2710 PUSH2 0x2E54 JUMP JUMPDEST PUSH2 0x2087 SWAP2 SWAP1 PUSH2 0x2E1C JUMP JUMPDEST SWAP1 POP PUSH2 0x2093 DUP2 DUP4 PUSH2 0x2E34 JUMP JUMPDEST SWAP10 SWAP9 POP POP POP POP POP POP POP POP POP JUMP JUMPDEST PUSH2 0x1878 DUP4 PUSH4 0xA9059CBB PUSH1 0xE0 SHL DUP5 DUP5 PUSH1 0x40 MLOAD PUSH1 0x24 ADD PUSH2 0x20BF SWAP3 SWAP2 SWAP1 PUSH2 0x29C4 JUMP JUMPDEST PUSH1 0x40 DUP1 MLOAD PUSH1 0x1F NOT DUP2 DUP5 SUB ADD DUP2 MSTORE SWAP2 SWAP1 MSTORE PUSH1 0x20 DUP2 ADD DUP1 MLOAD PUSH1 0x1 PUSH1 0x1 PUSH1 0xE0 SHL SUB AND PUSH1 0x1 PUSH1 0x1 PUSH1 0xE0 SHL SUB NOT SWAP1 SWAP4 AND SWAP3 SWAP1 SWAP3 OR SWAP1 SWAP2 MSTORE PUSH2 0x2273 JUMP JUMPDEST PUSH2 0x187A DUP3 DUP3 PUSH1 0x40 MLOAD PUSH1 0x24 ADD PUSH2 0x210C SWAP3 SWAP2 SWAP1 PUSH2 0x2A49 JUMP JUMPDEST PUSH1 0x40 DUP1 MLOAD PUSH1 0x1F NOT DUP2 DUP5 SUB ADD DUP2 MSTORE SWAP2 SWAP1 MSTORE PUSH1 0x20 DUP2 ADD DUP1 MLOAD PUSH1 0x1 PUSH1 0x1 PUSH1 0xE0 SHL SUB AND PUSH4 0x4B5C4277 PUSH1 0xE0 SHL OR SWAP1 MSTORE PUSH2 0x2252 JUMP JUMPDEST PUSH2 0x1878 DUP4 DUP4 DUP4 PUSH1 0x40 MLOAD PUSH1 0x24 ADD PUSH2 0x2153 SWAP4 SWAP3 SWAP2 SWAP1 PUSH2 0x2A99 JUMP JUMPDEST PUSH1 0x40 DUP1 MLOAD PUSH1 0x1F NOT DUP2 DUP5 SUB ADD DUP2 MSTORE SWAP2 SWAP1 MSTORE PUSH1 0x20 DUP2 ADD DUP1 MLOAD PUSH1 0x1 PUSH1 0x1 PUSH1 0xE0 SHL SUB AND PUSH4 0xCA47C4EB PUSH1 0xE0 SHL OR SWAP1 MSTORE PUSH2 0x2252 JUMP JUMPDEST PUSH2 0x218A PUSH2 0x2302 JUMP JUMPDEST PUSH1 0x1 PUSH1 0x1 PUSH1 0xA0 SHL SUB AND PUSH2 0x219B PUSH2 0x1892 JUMP JUMPDEST PUSH1 0x1 PUSH1 0x1 PUSH1 0xA0 SHL SUB AND EQ PUSH2 0x1890 JUMPI PUSH1 0x40 MLOAD PUSH3 0x461BCD PUSH1 0xE5 SHL DUP2 MSTORE PUSH1 0x4 ADD PUSH2 0x216 SWAP1 PUSH2 0x2BA0 JUMP JUMPDEST PUSH1 0x0 DUP1 SLOAD PUSH1 0x1 PUSH1 0x1 PUSH1 0xA0 SHL SUB DUP4 DUP2 AND PUSH1 0x1 PUSH1 0x1 PUSH1 0xA0 SHL SUB NOT DUP4 AND DUP2 OR DUP5 SSTORE PUSH1 0x40 MLOAD SWAP2 SWAP1 SWAP3 AND SWAP3 DUP4 SWAP2 PUSH32 0x8BE0079C531659141344CD1FD0A4F28419497F9722A3DAAFE3B4186F6B6457E0 SWAP2 SWAP1 LOG3 POP POP JUMP JUMPDEST PUSH2 0x187A DUP3 DUP3 PUSH1 0x40 MLOAD PUSH1 0x24 ADD PUSH2 0x2227 SWAP3 SWAP2 SWAP1 PUSH2 0x2A25 JUMP JUMPDEST PUSH1 0x40 DUP1 MLOAD PUSH1 0x1F NOT DUP2 DUP5 SUB ADD DUP2 MSTORE SWAP2 SWAP1 MSTORE PUSH1 0x20 DUP2 ADD DUP1 MLOAD PUSH1 0x1 PUSH1 0x1 PUSH1 0xE0 SHL SUB AND PUSH4 0xC3B55635 PUSH1 0xE0 SHL OR SWAP1 MSTORE JUMPDEST DUP1 MLOAD PUSH11 0x636F6E736F6C652E6C6F67 PUSH1 0x20 DUP4 ADD PUSH1 0x0 DUP1 DUP5 DUP4 DUP6 GAS STATICCALL POP POP POP POP POP JUMP JUMPDEST PUSH1 0x0 PUSH2 0x22C8 DUP3 PUSH1 0x40 MLOAD DUP1 PUSH1 0x40 ADD PUSH1 0x40 MSTORE DUP1 PUSH1 0x20 DUP2 MSTORE PUSH1 0x20 ADD PUSH32 0x5361666545524332303A206C6F772D6C6576656C2063616C6C206661696C6564 DUP2 MSTORE POP DUP6 PUSH1 0x1 PUSH1 0x1 PUSH1 0xA0 SHL SUB AND PUSH2 0x2306 SWAP1 SWAP3 SWAP2 SWAP1 PUSH4 0xFFFFFFFF AND JUMP JUMPDEST DUP1 MLOAD SWAP1 SWAP2 POP ISZERO PUSH2 0x1878 JUMPI DUP1 DUP1 PUSH1 0x20 ADD SWAP1 MLOAD DUP2 ADD SWAP1 PUSH2 0x22E6 SWAP2 SWAP1 PUSH2 0x2707 JUMP JUMPDEST PUSH2 0x1878 JUMPI PUSH1 0x40 MLOAD PUSH3 0x461BCD PUSH1 0xE5 SHL DUP2 MSTORE PUSH1 0x4 ADD PUSH2 0x216 SWAP1 PUSH2 0x2C43 JUMP JUMPDEST CALLER SWAP1 JUMP JUMPDEST PUSH1 0x60 PUSH2 0x2315 DUP5 DUP5 PUSH1 0x0 DUP6 PUSH2 0x231F JUMP JUMPDEST SWAP1 POP JUMPDEST SWAP4 SWAP3 POP POP POP JUMP JUMPDEST PUSH1 0x60 DUP3 SELFBALANCE LT ISZERO PUSH2 0x2341 JUMPI PUSH1 0x40 MLOAD PUSH3 0x461BCD PUSH1 0xE5 SHL DUP2 MSTORE PUSH1 0x4 ADD PUSH2 0x216 SWAP1 PUSH2 0x2B2A JUMP JUMPDEST PUSH2 0x234A DUP6 PUSH2 0x23DF JUMP JUMPDEST PUSH2 0x2366 JUMPI PUSH1 0x40 MLOAD PUSH3 0x461BCD PUSH1 0xE5 SHL DUP2 MSTORE PUSH1 0x4 ADD PUSH2 0x216 SWAP1 PUSH2 0x2C0C JUMP JUMPDEST PUSH1 0x0 DUP1 DUP7 PUSH1 0x1 PUSH1 0x1 PUSH1 0xA0 SHL SUB AND DUP6 DUP8 PUSH1 0x40 MLOAD PUSH2 0x2382 SWAP2 SWAP1 PUSH2 0x2994 JUMP JUMPDEST PUSH1 0x0 PUSH1 0x40 MLOAD DUP1 DUP4 SUB DUP2 DUP6 DUP8 GAS CALL SWAP3 POP POP POP RETURNDATASIZE DUP1 PUSH1 0x0 DUP2 EQ PUSH2 0x23BF JUMPI PUSH1 0x40 MLOAD SWAP2 POP PUSH1 0x1F NOT PUSH1 0x3F RETURNDATASIZE ADD AND DUP3 ADD PUSH1 0x40 MSTORE RETURNDATASIZE DUP3 MSTORE RETURNDATASIZE PUSH1 0x0 PUSH1 0x20 DUP5 ADD RETURNDATACOPY PUSH2 0x23C4 JUMP JUMPDEST PUSH1 0x60 SWAP2 POP JUMPDEST POP SWAP2 POP SWAP2 POP PUSH2 0x23D4 DUP3 DUP3 DUP7 PUSH2 0x23EE JUMP JUMPDEST SWAP8 SWAP7 POP POP POP POP POP POP POP JUMP JUMPDEST PUSH1 0x1 PUSH1 0x1 PUSH1 0xA0 SHL SUB AND EXTCODESIZE ISZERO ISZERO SWAP1 JUMP JUMPDEST PUSH1 0x60 DUP4 ISZERO PUSH2 0x23FD JUMPI POP DUP2 PUSH2 0x2318 JUMP JUMPDEST DUP3 MLOAD ISZERO PUSH2 0x240D JUMPI DUP3 MLOAD DUP1 DUP5 PUSH1 0x20 ADD REVERT JUMPDEST DUP2 PUSH1 0x40 MLOAD PUSH3 0x461BCD PUSH1 0xE5 SHL DUP2 MSTORE PUSH1 0x4 ADD PUSH2 0x216 SWAP2 SWAP1 PUSH2 0x29E8 JUMP JUMPDEST PUSH1 0x40 MLOAD DUP1 PUSH1 0x60 ADD PUSH1 0x40 MSTORE DUP1 PUSH1 0x0 DUP2 MSTORE PUSH1 0x20 ADD PUSH1 0x0 PUSH1 0x1 PUSH1 0x1 PUSH1 0xA0 SHL SUB AND DUP2 MSTORE PUSH1 0x20 ADD PUSH1 0x60 DUP2 MSTORE POP SWAP1 JUMP JUMPDEST PUSH1 0x0 PUSH8 0xFFFFFFFFFFFFFFFF DUP4 GT ISZERO PUSH2 0x246B JUMPI PUSH2 0x246B PUSH2 0x2EEB JUMP JUMPDEST PUSH2 0x247E PUSH1 0x1F DUP5 ADD PUSH1 0x1F NOT AND PUSH1 0x20 ADD PUSH2 0x2D9F JUMP JUMPDEST SWAP1 POP DUP3 DUP2 MSTORE DUP4 DUP4 DUP4 ADD GT ISZERO PUSH2 0x2492 JUMPI PUSH1 0x0 DUP1 REVERT JUMPDEST DUP3 DUP3 PUSH1 0x20 DUP4 ADD CALLDATACOPY PUSH1 0x0 PUSH1 0x20 DUP5 DUP4 ADD ADD MSTORE SWAP4 SWAP3 POP POP POP JUMP JUMPDEST DUP1 CALLDATALOAD PUSH2 0x1E2A DUP2 PUSH2 0x2F01 JUMP JUMPDEST PUSH1 0x0 DUP3 PUSH1 0x1F DUP4 ADD SLT PUSH2 0x24C4 JUMPI DUP1 DUP2 REVERT JUMPDEST DUP2 CALLDATALOAD PUSH1 0x20 PUSH2 0x24D9 PUSH2 0x24D4 DUP4 PUSH2 0x2DD0 JUMP JUMPDEST PUSH2 0x2D9F JUMP JUMPDEST DUP3 DUP2 MSTORE DUP2 DUP2 ADD SWAP1 DUP6 DUP4 ADD PUSH1 0xC0 DUP1 DUP7 MUL DUP9 ADD DUP6 ADD DUP10 LT ISZERO PUSH2 0x24F7 JUMPI DUP7 DUP8 REVERT JUMPDEST DUP7 JUMPDEST DUP7 DUP2 LT ISZERO PUSH2 0x2579 JUMPI DUP2 DUP4 DUP12 SUB SLT ISZERO PUSH2 0x250F JUMPI DUP8 DUP9 REVERT JUMPDEST PUSH2 0x2518 DUP3 PUSH2 0x2D9F JUMP JUMPDEST DUP4 CALLDATALOAD PUSH2 0x2523 DUP2 PUSH2 0x2F01 JUMP JUMPDEST DUP2 MSTORE DUP4 DUP8 ADD CALLDATALOAD PUSH2 0x2532 DUP2 PUSH2 0x2F01 JUMP JUMPDEST DUP2 DUP9 ADD MSTORE PUSH1 0x40 DUP5 DUP2 ADD CALLDATALOAD PUSH2 0x2545 DUP2 PUSH2 0x2F01 JUMP JUMPDEST SWAP1 DUP3 ADD MSTORE PUSH1 0x60 DUP5 DUP2 ADD CALLDATALOAD SWAP1 DUP3 ADD MSTORE PUSH1 0x80 DUP1 DUP6 ADD CALLDATALOAD SWAP1 DUP3 ADD MSTORE PUSH1 0xA0 DUP1 DUP6 ADD CALLDATALOAD SWAP1 DUP3 ADD MSTORE DUP6 MSTORE SWAP4 DUP6 ADD SWAP4 SWAP2 DUP2 ADD SWAP2 PUSH1 0x1 ADD PUSH2 0x24F9 JUMP JUMPDEST POP SWAP2 SWAP9 SWAP8 POP POP POP POP POP POP POP POP JUMP JUMPDEST DUP1 CALLDATALOAD PUSH2 0x1E2A DUP2 PUSH2 0x2F16 JUMP JUMPDEST DUP1 MLOAD PUSH1 0x1 PUSH1 0x1 PUSH1 0x70 SHL SUB DUP2 AND DUP2 EQ PUSH2 0x1E2A JUMPI PUSH1 0x0 DUP1 REVERT JUMPDEST PUSH1 0x0 PUSH1 0x20 DUP3 DUP5 SUB SLT ISZERO PUSH2 0x25BA JUMPI DUP1 DUP2 REVERT JUMPDEST DUP2 CALLDATALOAD PUSH2 0x2318 DUP2 PUSH2 0x2F01 JUMP JUMPDEST PUSH1 0x0 PUSH1 0x20 DUP3 DUP5 SUB SLT ISZERO PUSH2 0x25D6 JUMPI DUP1 DUP2 REVERT JUMPDEST DUP2 MLOAD PUSH2 0x2318 DUP2 PUSH2 0x2F01 JUMP JUMPDEST PUSH1 0x0 DUP1 PUSH1 0x0 DUP1 PUSH1 0x80 DUP6 DUP8 SUB SLT ISZERO PUSH2 0x25F6 JUMPI DUP3 DUP4 REVERT JUMPDEST DUP5 CALLDATALOAD PUSH2 0x2601 DUP2 PUSH2 0x2F01 JUMP JUMPDEST SWAP4 POP PUSH1 0x20 DUP6 ADD CALLDATALOAD SWAP3 POP PUSH1 0x40 DUP6 ADD CALLDATALOAD SWAP2 POP PUSH1 0x60 DUP6 ADD CALLDATALOAD PUSH8 0xFFFFFFFFFFFFFFFF DUP2 GT ISZERO PUSH2 0x262A JUMPI DUP2 DUP3 REVERT JUMPDEST DUP6 ADD PUSH1 0x1F DUP2 ADD DUP8 SGT PUSH2 0x263A JUMPI DUP2 DUP3 REVERT JUMPDEST PUSH2 0x2649 DUP8 DUP3 CALLDATALOAD PUSH1 0x20 DUP5 ADD PUSH2 0x2451 JUMP JUMPDEST SWAP2 POP POP SWAP3 SWAP6 SWAP2 SWAP5 POP SWAP3 POP JUMP JUMPDEST PUSH1 0x0 PUSH1 0x20 DUP3 DUP5 SUB SLT ISZERO PUSH2 0x2666 JUMPI DUP1 DUP2 REVERT JUMPDEST DUP2 CALLDATALOAD PUSH8 0xFFFFFFFFFFFFFFFF DUP2 GT ISZERO PUSH2 0x267C JUMPI DUP2 DUP3 REVERT JUMPDEST PUSH2 0x2688 DUP5 DUP3 DUP6 ADD PUSH2 0x24B4 JUMP JUMPDEST SWAP5 SWAP4 POP POP POP POP JUMP JUMPDEST PUSH1 0x0 DUP1 PUSH1 0x0 DUP1 PUSH1 0x80 DUP6 DUP8 SUB SLT ISZERO PUSH2 0x26A5 JUMPI DUP2 DUP3 REVERT JUMPDEST DUP5 CALLDATALOAD PUSH8 0xFFFFFFFFFFFFFFFF DUP1 DUP3 GT ISZERO PUSH2 0x26BC JUMPI DUP4 DUP5 REVERT JUMPDEST PUSH2 0x26C8 DUP9 DUP4 DUP10 ADD PUSH2 0x24B4 JUMP JUMPDEST SWAP6 POP PUSH1 0x20 DUP8 ADD CALLDATALOAD SWAP2 POP PUSH2 0x26DA DUP3 PUSH2 0x2F01 JUMP JUMPDEST SWAP1 SWAP4 POP PUSH1 0x40 DUP7 ADD CALLDATALOAD SWAP3 POP PUSH1 0x60 DUP7 ADD CALLDATALOAD SWAP1 DUP1 DUP3 GT ISZERO PUSH2 0x26F6 JUMPI DUP3 DUP4 REVERT JUMPDEST POP DUP6 ADD PUSH1 0x1F DUP2 ADD DUP8 SGT PUSH2 0x263A JUMPI DUP2 DUP3 REVERT JUMPDEST PUSH1 0x0 PUSH1 0x20 DUP3 DUP5 SUB SLT ISZERO PUSH2 0x2718 JUMPI DUP1 DUP2 REVERT JUMPDEST DUP2 MLOAD PUSH2 0x2318 DUP2 PUSH2 0x2F16 JUMP JUMPDEST PUSH1 0x0 PUSH1 0x20 DUP1 DUP4 DUP6 SUB SLT ISZERO PUSH2 0x2735 JUMPI DUP2 DUP3 REVERT JUMPDEST DUP3 MLOAD PUSH8 0xFFFFFFFFFFFFFFFF DUP1 DUP3 GT ISZERO PUSH2 0x274C JUMPI DUP4 DUP5 REVERT JUMPDEST DUP2 DUP6 ADD SWAP2 POP PUSH1 0x60 DUP1 DUP4 DUP9 SUB SLT ISZERO PUSH2 0x2761 JUMPI DUP5 DUP6 REVERT JUMPDEST PUSH2 0x276A DUP2 PUSH2 0x2D9F JUMP JUMPDEST DUP4 MLOAD DUP2 MSTORE DUP5 DUP5 ADD MLOAD PUSH2 0x277B DUP2 PUSH2 0x2F01 JUMP JUMPDEST DUP2 DUP7 ADD MSTORE PUSH1 0x40 DUP5 DUP2 ADD MLOAD DUP5 DUP2 GT ISZERO PUSH2 0x2791 JUMPI DUP8 DUP9 REVERT JUMPDEST DUP1 DUP7 ADD SWAP6 POP POP DUP9 PUSH1 0x1F DUP7 ADD SLT PUSH2 0x27A5 JUMPI DUP7 DUP8 REVERT JUMPDEST DUP5 MLOAD SWAP4 POP PUSH2 0x27B5 PUSH2 0x24D4 DUP6 PUSH2 0x2DD0 JUMP JUMPDEST DUP5 DUP2 MSTORE DUP7 DUP2 ADD SWAP1 DUP7 DUP9 ADD PUSH1 0xC0 DUP1 DUP9 MUL DUP10 ADD DUP11 ADD DUP14 LT ISZERO PUSH2 0x27D3 JUMPI DUP11 DUP12 REVERT JUMPDEST DUP11 SWAP9 POP JUMPDEST DUP8 DUP10 LT ISZERO PUSH2 0x2857 JUMPI DUP1 DUP3 DUP15 SUB SLT ISZERO PUSH2 0x27ED JUMPI DUP11 DUP12 REVERT JUMPDEST PUSH2 0x27F6 DUP2 PUSH2 0x2D9F JUMP JUMPDEST DUP3 MLOAD PUSH2 0x2801 DUP2 PUSH2 0x2F01 JUMP JUMPDEST DUP2 MSTORE DUP3 DUP12 ADD MLOAD PUSH2 0x2810 DUP2 PUSH2 0x2F01 JUMP JUMPDEST DUP2 DUP13 ADD MSTORE DUP3 DUP7 ADD MLOAD PUSH2 0x2821 DUP2 PUSH2 0x2F01 JUMP JUMPDEST DUP2 DUP8 ADD MSTORE DUP3 DUP9 ADD MLOAD DUP9 DUP3 ADD MSTORE PUSH1 0x80 DUP1 DUP5 ADD MLOAD SWAP1 DUP3 ADD MSTORE PUSH1 0xA0 DUP1 DUP5 ADD MLOAD SWAP1 DUP3 ADD MSTORE DUP5 MSTORE PUSH1 0x1 SWAP9 SWAP1 SWAP9 ADD SWAP8 SWAP3 DUP10 ADD SWAP3 SWAP1 DUP2 ADD SWAP1 PUSH2 0x27D7 JUMP JUMPDEST POP POP SWAP2 DUP4 ADD SWAP2 SWAP1 SWAP2 MSTORE POP SWAP8 SWAP7 POP POP POP POP POP POP POP JUMP JUMPDEST PUSH1 0x0 PUSH2 0x120 DUP1 DUP4 DUP6 SUB SLT ISZERO PUSH2 0x287F JUMPI DUP2 DUP3 REVERT JUMPDEST PUSH2 0x2888 DUP2 PUSH2 0x2D9F JUMP JUMPDEST SWAP1 POP DUP3 CALLDATALOAD DUP2 MSTORE PUSH1 0x20 DUP4 ADD CALLDATALOAD PUSH1 0x20 DUP3 ADD MSTORE PUSH2 0x28A4 PUSH1 0x40 DUP5 ADD PUSH2 0x2587 JUMP JUMPDEST PUSH1 0x40 DUP3 ADD MSTORE PUSH1 0x60 DUP4 ADD CALLDATALOAD PUSH1 0x60 DUP3 ADD MSTORE PUSH1 0x80 DUP4 ADD CALLDATALOAD PUSH1 0x80 DUP3 ADD MSTORE PUSH1 0xA0 DUP4 ADD CALLDATALOAD PUSH1 0xA0 DUP3 ADD MSTORE PUSH2 0x28D3 PUSH1 0xC0 DUP5 ADD PUSH2 0x24A9 JUMP JUMPDEST PUSH1 0xC0 DUP3 ADD MSTORE PUSH2 0x28E4 PUSH1 0xE0 DUP5 ADD PUSH2 0x24A9 JUMP JUMPDEST PUSH1 0xE0 DUP3 ADD MSTORE PUSH2 0x100 PUSH2 0x28F7 DUP2 DUP6 ADD PUSH2 0x24A9 JUMP JUMPDEST SWAP1 DUP3 ADD MSTORE SWAP4 SWAP3 POP POP POP JUMP JUMPDEST PUSH1 0x0 DUP1 PUSH1 0x0 PUSH1 0x60 DUP5 DUP7 SUB SLT ISZERO PUSH2 0x2916 JUMPI DUP1 DUP2 REVERT JUMPDEST PUSH2 0x291F DUP5 PUSH2 0x2592 JUMP JUMPDEST SWAP3 POP PUSH2 0x292D PUSH1 0x20 DUP6 ADD PUSH2 0x2592 JUMP JUMPDEST SWAP2 POP PUSH1 0x40 DUP5 ADD MLOAD PUSH4 0xFFFFFFFF DUP2 AND DUP2 EQ PUSH2 0x2945 JUMPI DUP2 DUP3 REVERT JUMPDEST DUP1 SWAP2 POP POP SWAP3 POP SWAP3 POP SWAP3 JUMP JUMPDEST PUSH1 0x0 PUSH1 0x20 DUP3 DUP5 SUB SLT ISZERO PUSH2 0x2961 JUMPI DUP1 DUP2 REVERT JUMPDEST POP MLOAD SWAP2 SWAP1 POP JUMP JUMPDEST PUSH1 0x0 DUP2 MLOAD DUP1 DUP5 MSTORE PUSH2 0x2980 DUP2 PUSH1 0x20 DUP7 ADD PUSH1 0x20 DUP7 ADD PUSH2 0x2E8A JUMP JUMPDEST PUSH1 0x1F ADD PUSH1 0x1F NOT AND SWAP3 SWAP1 SWAP3 ADD PUSH1 0x20 ADD SWAP3 SWAP2 POP POP JUMP JUMPDEST PUSH1 0x0 DUP3 MLOAD PUSH2 0x29A6 DUP2 DUP5 PUSH1 0x20 DUP8 ADD PUSH2 0x2E8A JUMP JUMPDEST SWAP2 SWAP1 SWAP2 ADD SWAP3 SWAP2 POP POP JUMP JUMPDEST PUSH1 0x1 PUSH1 0x1 PUSH1 0xA0 SHL SUB SWAP2 SWAP1 SWAP2 AND DUP2 MSTORE PUSH1 0x20 ADD SWAP1 JUMP JUMPDEST PUSH1 0x1 PUSH1 0x1 PUSH1 0xA0 SHL SUB SWAP3 SWAP1 SWAP3 AND DUP3 MSTORE PUSH1 0x20 DUP3 ADD MSTORE PUSH1 0x40 ADD SWAP1 JUMP JUMPDEST SWAP1 ISZERO ISZERO DUP2 MSTORE PUSH1 0x20 ADD SWAP1 JUMP JUMPDEST PUSH1 0x0 PUSH1 0x20 DUP3 MSTORE PUSH2 0x2318 PUSH1 0x20 DUP4 ADD DUP5 PUSH2 0x2968 JUMP JUMPDEST PUSH1 0x0 PUSH1 0x40 DUP3 MSTORE PUSH2 0x2A0E PUSH1 0x40 DUP4 ADD DUP6 PUSH2 0x2968 JUMP JUMPDEST SWAP1 POP PUSH1 0x1 DUP1 PUSH1 0xA0 SHL SUB DUP4 AND PUSH1 0x20 DUP4 ADD MSTORE SWAP4 SWAP3 POP POP POP JUMP JUMPDEST PUSH1 0x0 PUSH1 0x40 DUP3 MSTORE PUSH2 0x2A38 PUSH1 0x40 DUP4 ADD DUP6 PUSH2 0x2968 JUMP JUMPDEST SWAP1 POP DUP3 ISZERO ISZERO PUSH1 0x20 DUP4 ADD MSTORE SWAP4 SWAP3 POP POP POP JUMP JUMPDEST PUSH1 0x0 PUSH1 0x40 DUP3 MSTORE PUSH2 0x2A5C PUSH1 0x40 DUP4 ADD DUP6 PUSH2 0x2968 JUMP JUMPDEST DUP3 DUP2 SUB PUSH1 0x20 DUP5 ADD MSTORE PUSH2 0x2A6E DUP2 DUP6 PUSH2 0x2968 JUMP JUMPDEST SWAP6 SWAP5 POP POP POP POP POP JUMP JUMPDEST PUSH1 0x0 PUSH1 0x40 DUP3 MSTORE PUSH2 0x2A8A PUSH1 0x40 DUP4 ADD DUP6 PUSH2 0x2968 JUMP JUMPDEST SWAP1 POP DUP3 PUSH1 0x20 DUP4 ADD MSTORE SWAP4 SWAP3 POP POP POP JUMP JUMPDEST PUSH1 0x0 PUSH1 0x60 DUP3 MSTORE PUSH2 0x2AAC PUSH1 0x60 DUP4 ADD DUP7 PUSH2 0x2968 JUMP JUMPDEST PUSH1 0x20 DUP4 ADD SWAP5 SWAP1 SWAP5 MSTORE POP PUSH1 0x40 ADD MSTORE SWAP2 SWAP1 POP JUMP JUMPDEST PUSH1 0x20 DUP1 DUP3 MSTORE PUSH1 0xC SWAP1 DUP3 ADD MSTORE PUSH12 0x4C6F73696E67206D6F6E6579 PUSH1 0xA0 SHL PUSH1 0x40 DUP3 ADD MSTORE PUSH1 0x60 ADD SWAP1 JUMP JUMPDEST PUSH1 0x20 DUP1 DUP3 MSTORE PUSH1 0x26 SWAP1 DUP3 ADD MSTORE PUSH32 0x4F776E61626C653A206E6577206F776E657220697320746865207A65726F2061 PUSH1 0x40 DUP3 ADD MSTORE PUSH6 0x646472657373 PUSH1 0xD0 SHL PUSH1 0x60 DUP3 ADD MSTORE PUSH1 0x80 ADD SWAP1 JUMP JUMPDEST PUSH1 0x20 DUP1 DUP3 MSTORE PUSH1 0x26 SWAP1 DUP3 ADD MSTORE PUSH32 0x416464726573733A20696E73756666696369656E742062616C616E636520666F PUSH1 0x40 DUP3 ADD MSTORE PUSH6 0x1C8818D85B1B PUSH1 0xD2 SHL PUSH1 0x60 DUP3 ADD MSTORE PUSH1 0x80 ADD SWAP1 JUMP JUMPDEST PUSH1 0x20 DUP1 DUP3 MSTORE PUSH1 0x16 SWAP1 DUP3 ADD MSTORE PUSH22 0x139BDD08199C9BDB481D1A1A5CC818DBDB9D1C9858DD PUSH1 0x52 SHL PUSH1 0x40 DUP3 ADD MSTORE PUSH1 0x60 ADD SWAP1 JUMP JUMPDEST PUSH1 0x20 DUP1 DUP3 MSTORE DUP2 DUP2 ADD MSTORE PUSH32 0x4F776E61626C653A2063616C6C6572206973206E6F7420746865206F776E6572 PUSH1 0x40 DUP3 ADD MSTORE PUSH1 0x60 ADD SWAP1 JUMP JUMPDEST PUSH1 0x20 DUP1 DUP3 MSTORE PUSH1 0x19 SWAP1 DUP3 ADD MSTORE PUSH32 0x494E53554646494349454E545F494E5055545F414D4F554E5400000000000000 PUSH1 0x40 DUP3 ADD MSTORE PUSH1 0x60 ADD SWAP1 JUMP JUMPDEST PUSH1 0x20 DUP1 DUP3 MSTORE PUSH1 0x1D SWAP1 DUP3 ADD MSTORE PUSH32 0x416464726573733A2063616C6C20746F206E6F6E2D636F6E7472616374000000 PUSH1 0x40 DUP3 ADD MSTORE PUSH1 0x60 ADD SWAP1 JUMP JUMPDEST PUSH1 0x20 DUP1 DUP3 MSTORE PUSH1 0x2A SWAP1 DUP3 ADD MSTORE PUSH32 0x5361666545524332303A204552433230206F7065726174696F6E20646964206E PUSH1 0x40 DUP3 ADD MSTORE PUSH10 0x1BDD081CDD58D8D95959 PUSH1 0xB2 SHL PUSH1 0x60 DUP3 ADD MSTORE PUSH1 0x80 ADD SWAP1 JUMP JUMPDEST PUSH1 0x20 DUP1 DUP3 MSTORE PUSH1 0x16 SWAP1 DUP3 ADD MSTORE PUSH22 0x494E53554646494349454E545F4C4951554944495459 PUSH1 0x50 SHL PUSH1 0x40 DUP3 ADD MSTORE PUSH1 0x60 ADD SWAP1 JUMP JUMPDEST PUSH1 0x20 DUP1 DUP3 MSTORE DUP3 MLOAD DUP3 DUP3 ADD MSTORE DUP3 DUP2 ADD MLOAD PUSH1 0x1 PUSH1 0x1 PUSH1 0xA0 SHL SUB SWAP1 DUP2 AND PUSH1 0x40 DUP1 DUP6 ADD SWAP2 SWAP1 SWAP2 MSTORE DUP1 DUP6 ADD MLOAD PUSH1 0x60 DUP1 DUP7 ADD DUP2 SWAP1 MSTORE DUP2 MLOAD PUSH1 0x80 DUP1 DUP9 ADD DUP3 SWAP1 MSTORE PUSH1 0x0 SWAP7 SWAP6 SWAP1 SWAP5 PUSH1 0xA0 SWAP5 DUP8 ADD SWAP4 SWAP1 SWAP3 DUP6 DUP11 ADD SWAP1 DUP10 JUMPDEST DUP2 DUP2 LT ISZERO PUSH2 0x2D57 JUMPI DUP7 MLOAD DUP1 MLOAD DUP7 AND DUP5 MSTORE DUP11 DUP2 ADD MLOAD DUP7 AND DUP12 DUP6 ADD MSTORE DUP7 DUP2 ADD MLOAD DUP7 AND DUP8 DUP6 ADD MSTORE DUP5 DUP2 ADD MLOAD DUP6 DUP6 ADD MSTORE DUP10 DUP2 ADD MLOAD DUP11 DUP6 ADD MSTORE DUP9 ADD MLOAD DUP9 DUP5 ADD MSTORE SWAP6 DUP10 ADD SWAP6 PUSH1 0xC0 SWAP1 SWAP3 ADD SWAP2 PUSH1 0x1 ADD PUSH2 0x2D0A JUMP JUMPDEST POP SWAP1 SWAP12 SWAP11 POP POP POP POP POP POP POP POP POP POP POP JUMP JUMPDEST PUSH1 0x0 DUP6 DUP3 MSTORE DUP5 PUSH1 0x20 DUP4 ADD MSTORE PUSH1 0x1 DUP1 PUSH1 0xA0 SHL SUB DUP5 AND PUSH1 0x40 DUP4 ADD MSTORE PUSH1 0x80 PUSH1 0x60 DUP4 ADD MSTORE PUSH2 0x2D95 PUSH1 0x80 DUP4 ADD DUP5 PUSH2 0x2968 JUMP JUMPDEST SWAP7 SWAP6 POP POP POP POP POP POP JUMP JUMPDEST PUSH1 0x40 MLOAD PUSH1 0x1F DUP3 ADD PUSH1 0x1F NOT AND DUP2 ADD PUSH8 0xFFFFFFFFFFFFFFFF DUP2 GT DUP3 DUP3 LT OR ISZERO PUSH2 0x2DC8 JUMPI PUSH2 0x2DC8 PUSH2 0x2EEB JUMP JUMPDEST PUSH1 0x40 MSTORE SWAP2 SWAP1 POP JUMP JUMPDEST PUSH1 0x0 PUSH8 0xFFFFFFFFFFFFFFFF DUP3 GT ISZERO PUSH2 0x2DEA JUMPI PUSH2 0x2DEA PUSH2 0x2EEB JUMP JUMPDEST POP PUSH1 0x20 SWAP1 DUP2 MUL ADD SWAP1 JUMP JUMPDEST PUSH1 0x0 DUP1 DUP6 DUP6 GT ISZERO PUSH2 0x2E03 JUMPI DUP2 DUP3 REVERT JUMPDEST DUP4 DUP7 GT ISZERO PUSH2 0x2E0F JUMPI DUP2 DUP3 REVERT JUMPDEST POP POP DUP3 ADD SWAP4 SWAP2 SWAP1 SWAP3 SUB SWAP2 POP JUMP JUMPDEST PUSH1 0x0 DUP3 NOT DUP3 GT ISZERO PUSH2 0x2E2F JUMPI PUSH2 0x2E2F PUSH2 0x2ED5 JUMP JUMPDEST POP ADD SWAP1 JUMP JUMPDEST PUSH1 0x0 DUP3 PUSH2 0x2E4F JUMPI PUSH4 0x4E487B71 PUSH1 0xE0 SHL DUP2 MSTORE PUSH1 0x12 PUSH1 0x4 MSTORE PUSH1 0x24 DUP2 REVERT JUMPDEST POP DIV SWAP1 JUMP JUMPDEST PUSH1 0x0 DUP2 PUSH1 0x0 NOT DIV DUP4 GT DUP3 ISZERO ISZERO AND ISZERO PUSH2 0x2E6E JUMPI PUSH2 0x2E6E PUSH2 0x2ED5 JUMP JUMPDEST POP MUL SWAP1 JUMP JUMPDEST PUSH1 0x0 DUP3 DUP3 LT ISZERO PUSH2 0x2E85 JUMPI PUSH2 0x2E85 PUSH2 0x2ED5 JUMP JUMPDEST POP SUB SWAP1 JUMP JUMPDEST PUSH1 0x0 JUMPDEST DUP4 DUP2 LT ISZERO PUSH2 0x2EA5 JUMPI DUP2 DUP2 ADD MLOAD DUP4 DUP3 ADD MSTORE PUSH1 0x20 ADD PUSH2 0x2E8D JUMP JUMPDEST DUP4 DUP2 GT ISZERO PUSH2 0x2EB4 JUMPI PUSH1 0x0 DUP5 DUP5 ADD MSTORE JUMPDEST POP POP POP POP JUMP JUMPDEST PUSH1 0x0 PUSH1 0x0 NOT DUP3 EQ ISZERO PUSH2 0x2ECE JUMPI PUSH2 0x2ECE PUSH2 0x2ED5 JUMP JUMPDEST POP PUSH1 0x1 ADD SWAP1 JUMP JUMPDEST PUSH4 0x4E487B71 PUSH1 0xE0 SHL PUSH1 0x0 MSTORE PUSH1 0x11 PUSH1 0x4 MSTORE PUSH1 0x24 PUSH1 0x0 REVERT JUMPDEST PUSH4 0x4E487B71 PUSH1 0xE0 SHL PUSH1 0x0 MSTORE PUSH1 0x41 PUSH1 0x4 MSTORE PUSH1 0x24 PUSH1 0x0 REVERT JUMPDEST PUSH1 0x1 PUSH1 0x1 PUSH1 0xA0 SHL SUB DUP2 AND DUP2 EQ PUSH2 0xDF8 JUMPI PUSH1 0x0 DUP1 REVERT JUMPDEST DUP1 ISZERO ISZERO DUP2 EQ PUSH2 0xDF8 JUMPI PUSH1 0x0 DUP1 REVERT INVALID MSTORE8 PUSH24 0x617020616D6F756E74206F6E20666972737420706F6F6C3A KECCAK256 0x25 PUSH20 0x2C202573A264697066735822122096A225F41D4A AND SIGNEXTEND LOG4 0xB3 OR 0xF7 0xB8 0xC0 0xEE MSTORE8 DUP5 PUSH27 0x70F9ABB51DC8960CB07D6386F6E664736F6C634300080100330000 "},"gasEstimates":{"creation":{"codeDepositCost":"2431000","executionCost":"25081","totalCost":"2456081"},"external":{"":"infinite","checkK((uint256,uint256,bool,uint256,uint256,uint256,address,address,address))":"infinite","logCaseString((address,address,address,uint256,uint256,uint256)[])":"infinite","owner()":"1092","renounceOwnership()":"infinite","startSwapInMultiPool((address,address,address,uint256,uint256,uint256)[],address,uint256,string)":"infinite","transferOwnership(address)":"infinite","withdrawFund(address)":"infinite"},"internal":{"getAmountIn(uint256,uint256,uint256,uint256)":"infinite","getAmountOut(uint256,uint256,uint256,uint256)":"infinite","paybackLoans(address,uint256,uint256,bytes memory)":"infinite"}},"methodIdentifiers":{"checkK((uint256,uint256,bool,uint256,uint256,uint256,address,address,address))":"caecd5d5","logCaseString((address,address,address,uint256,uint256,uint256)[])":"083dbb8c","owner()":"8da5cb5b","renounceOwnership()":"715018a6","startSwapInMultiPool((address,address,address,uint256,uint256,uint256)[],address,uint256,string)":"4ba2f564","transferOwnership(address)":"f2fde38b","withdrawFund(address)":"5376f1a3"}},"storageLayout":{"storage":[{"astId":7,"contract":"contracts/Flashbot.sol:FlashswapMultiPool","label":"_owner","offset":0,"slot":"0","type":"t_address"}],"types":{"t_address":{"encoding":"inplace","label":"address","numberOfBytes":"20"}}},"userdoc":{"kind":"user","methods":{},"version":1}}}}