{
  "address": "0x2a810409872AfC346F9B5b26571Fd6eC42EA4849",
  "abi": [
    {
      "inputs": [
        {
          "internalType": "address",
          "name": "_feeToSetter",
          "type": "address"
        }
      ],
      "payable": false,
      "stateMutability": "nonpayable",
      "type": "constructor"
    },
    {
      "anonymous": false,
      "inputs": [
        {
          "indexed": true,
          "internalType": "address",
          "name": "token0",
          "type": "address"
        },
        {
          "indexed": true,
          "internalType": "address",
          "name": "token1",
          "type": "address"
        },
        {
          "indexed": false,
          "internalType": "address",
          "name": "pair",
          "type": "address"
        },
        {
          "indexed": false,
          "internalType": "uint256",
          "name": "",
          "type": "uint256"
        }
      ],
      "name": "PairCreated",
      "type": "event"
    },
    {
      "constant": true,
      "inputs": [],
      "name": "INIT_CODE_HASH",
      "outputs": [
        {
          "internalType": "bytes32",
          "name": "",
          "type": "bytes32"
        }
      ],
      "payable": false,
      "stateMutability": "view",
      "type": "function"
    },
    {
      "constant": true,
      "inputs": [
        {
          "internalType": "uint256",
          "name": "",
          "type": "uint256"
        }
      ],
      "name": "allPairs",
      "outputs": [
        {
          "internalType": "address",
          "name": "",
          "type": "address"
        }
      ],
      "payable": false,
      "stateMutability": "view",
      "type": "function"
    },
    {
      "constant": true,
      "inputs": [],
      "name": "allPairsLength",
      "outputs": [
        {
          "internalType": "uint256",
          "name": "",
          "type": "uint256"
        }
      ],
      "payable": false,
      "stateMutability": "view",
      "type": "function"
    },
    {
      "constant": false,
      "inputs": [
        {
          "internalType": "address",
          "name": "tokenA",
          "type": "address"
        },
        {
          "internalType": "address",
          "name": "tokenB",
          "type": "address"
        }
      ],
      "name": "createPair",
      "outputs": [
        {
          "internalType": "address",
          "name": "pair",
          "type": "address"
        }
      ],
      "payable": false,
      "stateMutability": "nonpayable",
      "type": "function"
    },
    {
      "constant": true,
      "inputs": [],
      "name": "feeTo",
      "outputs": [
        {
          "internalType": "address",
          "name": "",
          "type": "address"
        }
      ],
      "payable": false,
      "stateMutability": "view",
      "type": "function"
    },
    {
      "constant": true,
      "inputs": [],
      "name": "feeToSetter",
      "outputs": [
        {
          "internalType": "address",
          "name": "",
          "type": "address"
        }
      ],
      "payable": false,
      "stateMutability": "view",
      "type": "function"
    },
    {
      "constant": true,
      "inputs": [
        {
          "internalType": "address",
          "name": "",
          "type": "address"
        },
        {
          "internalType": "address",
          "name": "",
          "type": "address"
        }
      ],
      "name": "getPair",
      "outputs": [
        {
          "internalType": "address",
          "name": "",
          "type": "address"
        }
      ],
      "payable": false,
      "stateMutability": "view",
      "type": "function"
    },
    {
      "constant": false,
      "inputs": [
        {
          "internalType": "address",
          "name": "_pair",
          "type": "address"
        },
        {
          "internalType": "uint8",
          "name": "_devFee",
          "type": "uint8"
        }
      ],
      "name": "setDevFee",
      "outputs": [],
      "payable": false,
      "stateMutability": "nonpayable",
      "type": "function"
    },
    {
      "constant": false,
      "inputs": [
        {
          "internalType": "address",
          "name": "_feeTo",
          "type": "address"
        }
      ],
      "name": "setFeeTo",
      "outputs": [],
      "payable": false,
      "stateMutability": "nonpayable",
      "type": "function"
    },
    {
      "constant": false,
      "inputs": [
        {
          "internalType": "address",
          "name": "_feeToSetter",
          "type": "address"
        }
      ],
      "name": "setFeeToSetter",
      "outputs": [],
      "payable": false,
      "stateMutability": "nonpayable",
      "type": "function"
    },
    {
      "constant": false,
      "inputs": [
        {
          "internalType": "address",
          "name": "_pair",
          "type": "address"
        },
        {
          "internalType": "uint32",
          "name": "_swapFee",
          "type": "uint32"
        }
      ],
      "name": "setSwapFee",
      "outputs": [],
      "payable": false,
      "stateMutability": "nonpayable",
      "type": "function"
    }
  ],
  "transactionHash": "0x50d8ef41e08e09213ab9c88873387c4c538dc4a66180687012b4eed1c9404b8a",
  "args": [
    "0xf39Fd6e51aad88F6F4ce6aB8827279cffFb92266"
  ],
  "numDeployments": 1,
  "solcInputHash": "ffa41f2d70ce78678fbbd21becdcffff",
  "bytecode": "0x6080604081905261001060a06100e9565b6020820181038252601f19601f820116604052506040516020018082805190602001908083835b602083106100565780518252601f199092019160209182019101610037565b6001836020036101000a038019825116818451168082178552505050505050905001915050604051602081830303815290604052805190602001206002553480156100a057600080fd5b506040516161b93803806161b9833981810160405260208110156100c357600080fd5b5051600180546001600160a01b0319166001600160a01b039092169190911790556100f6565b612c10806135a983390190565b6134a4806101056000396000f3fe608060405234801561001057600080fd5b50600436106100a95760003560e01c80639e68ceb8116100715780639e68ceb814610119578063a2e74af61461014d578063c9c6539614610173578063e6a43905146101a1578063ef0bc993146101cf578063f46901ed146101fe576100a9565b8063017e7e58146100ae578063094b7415146100d25780631e3dd18b146100da578063257671f5146100f7578063574f2ba314610111575b600080fd5b6100b6610224565b604080516001600160a01b039092168252519081900360200190f35b6100b6610233565b6100b6600480360360208110156100f057600080fd5b5035610242565b6100ff610269565b60408051918252519081900360200190f35b6100ff61026f565b61014b6004803603604081101561012f57600080fd5b5080356001600160a01b0316906020013563ffffffff16610275565b005b61014b6004803603602081101561016357600080fd5b50356001600160a01b0316610331565b6100b66004803603604081101561018957600080fd5b506001600160a01b03813581169160200135166103a6565b6100b6600480360360408110156101b757600080fd5b506001600160a01b03813581169160200135166106cb565b61014b600480360360408110156101e557600080fd5b5080356001600160a01b0316906020013560ff166106f1565b61014b6004803603602081101561021457600080fd5b50356001600160a01b03166107dd565b6000546001600160a01b031681565b6001546001600160a01b031681565b6004818154811061024f57fe5b6000918252602090912001546001600160a01b0316905081565b60025481565b60045490565b6001546001600160a01b031633146102c8576040805162461bcd60e51b81526020600482015260116024820152702bb4b732b93c9d102327a92124a22222a760791b604482015290519081900360640190fd5b6040805163d6d788c360e01b815263ffffffff8316600482015290516001600160a01b0384169163d6d788c391602480830192600092919082900301818387803b15801561031557600080fd5b505af1158015610329573d6000803e3d6000fd5b505050505050565b6001546001600160a01b03163314610384576040805162461bcd60e51b81526020600482015260116024820152702bb4b732b93c9d102327a92124a22222a760791b604482015290519081900360640190fd5b600180546001600160a01b0319166001600160a01b0392909216919091179055565b6000816001600160a01b0316836001600160a01b0316141561040f576040805162461bcd60e51b815260206004820152601b60248201527f57696e6572793a204944454e544943414c5f4144445245535345530000000000604482015290519081900360640190fd5b600080836001600160a01b0316856001600160a01b031610610432578385610435565b84845b90925090506001600160a01b03821661048c576040805162461bcd60e51b815260206004820152601460248201527357696e6572793a205a45524f5f4144445245535360601b604482015290519081900360640190fd5b6001600160a01b038281166000908152600360209081526040808320858516845290915290205416156104fc576040805162461bcd60e51b815260206004820152601360248201527257696e6572793a20504149525f45584953545360681b604482015290519081900360640190fd5b60606040518060200161050e90610852565b6020820181038252601f19601f8201166040525090506000838360405160200180836001600160a01b03166001600160a01b031660601b8152601401826001600160a01b03166001600160a01b031660601b815260140192505050604051602081830303815290604052805190602001209050808251602084016000f56040805163485cc95560e01b81526001600160a01b038781166004830152868116602483015291519297509087169163485cc9559160448082019260009290919082900301818387803b1580156105e157600080fd5b505af11580156105f5573d6000803e3d6000fd5b505050506001600160a01b0384811660008181526003602081815260408084208987168086529083528185208054978d166001600160a01b031998891681179091559383528185208686528352818520805488168517905560048054600181018255958190527f8a35acfbc15ff81a39ae7d344fd709f28e8600b4aa8c65c6b64bfe7fe36bd19b90950180549097168417909655925483519283529082015281517f0d3648bd0f6ba80134a33ba9275ac585d9d315f0ad8355cddefde31afa28d0e9929181900390910190a35050505092915050565b60036020908152600092835260408084209091529082529020546001600160a01b031681565b6001546001600160a01b03163314610744576040805162461bcd60e51b81526020600482015260116024820152702bb4b732b93c9d102327a92124a22222a760791b604482015290519081900360640190fd5b60008160ff1611610794576040805162461bcd60e51b815260206004820152601560248201527457696e6572793a20464f5242494444454e5f46454560581b604482015290519081900360640190fd5b60408051623c150b60e41b815260ff8316600482015290516001600160a01b038416916303c150b091602480830192600092919082900301818387803b15801561031557600080fd5b6001546001600160a01b03163314610830576040805162461bcd60e51b81526020600482015260116024820152702bb4b732b93c9d102327a92124a22222a760791b604482015290519081900360640190fd5b600080546001600160a01b0319166001600160a01b0392909216919091179055565b612c10806108608339019056fe6080604052600c805463ffffffff60201b1963ffffffff19909116601917166401000000001790556001600d5534801561003857600080fd5b506040514690806052612bbe8239604080519182900360520182208282018252600a83526957696e657279204c507360b01b6020938401528151808301835260018152603160f81b908401528151808401919091527f209f97c6c98b3e10fddb1b3b88872f6547eb8cd111c9b6c664e6507a7cfdccb8818301527fc89efdaa54c0f20c7adf612882df0950f5a951637e0307cdcb4c672f298b8bc6606082015260808101949094523060a0808601919091528151808603909101815260c09094019052825192019190912060035550600580546001600160a01b03191633179055612a96806101286000396000f3fe608060405234801561001057600080fd5b50600436106101e55760003560e01c80636827e7641161010f578063ba9a7a56116100a2578063d505accf11610071578063d505accf146105c4578063d6d788c314610615578063dd62ed3e14610638578063fff6cae914610666576101e5565b8063ba9a7a5614610586578063bc25cf771461058e578063c45a0155146105b4578063d21220a7146105bc576101e5565b80637ecebe00116100de5780637ecebe00146104ed57806389afcb441461051357806395d89b4114610552578063a9059cbb1461055a576101e5565b80636827e764146104915780636a6278421461049957806370a08231146104bf5780637464fc3d146104e5576101e5565b806323b872dd11610187578063485cc95511610156578063485cc9551461043257806354cf2aeb146104605780635909c0d5146104815780635a3d549314610489576101e5565b806323b872dd146103ce57806330adf81f14610404578063313ce5671461040c5780633644e5151461042a576101e5565b80630902f1ac116101c35780630902f1ac14610318578063095ea7b3146103505780630dfe16811461039057806318160ddd146103b4576101e5565b8063022c0d9f146101ea57806303c150b01461027857806306fdde031461029b575b600080fd5b6102766004803603608081101561020057600080fd5b8135916020810135916001600160a01b03604083013516919081019060808101606082013564010000000081111561023757600080fd5b82018360208201111561024957600080fd5b8035906020019184600183028401116401000000008311171561026b57600080fd5b50909250905061066e565b005b6102766004803603602081101561028e57600080fd5b503563ffffffff16610ef2565b6102a3611025565b6040805160208082528351818301528351919283929083019185019080838360005b838110156102dd5781810151838201526020016102c5565b50505050905090810190601f16801561030a5780820380516001836020036101000a031916815260200191505b509250505060405180910390f35b61032061104b565b604080516001600160701b03948516815292909316602083015263ffffffff168183015290519081900360600190f35b61037c6004803603604081101561036657600080fd5b506001600160a01b038135169060200135611075565b604080519115158252519081900360200190f35b61039861108c565b604080516001600160a01b039092168252519081900360200190f35b6103bc61109b565b60408051918252519081900360200190f35b61037c600480360360608110156103e457600080fd5b506001600160a01b038135811691602081013590911690604001356110a1565b6103bc61113b565b61041461115f565b6040805160ff9092168252519081900360200190f35b6103bc611164565b6102766004803603604081101561044857600080fd5b506001600160a01b038135811691602001351661116a565b6104686111eb565b6040805163ffffffff9092168252519081900360200190f35b6103bc6111f7565b6103bc6111fd565b610468611203565b6103bc600480360360208110156104af57600080fd5b50356001600160a01b0316611217565b6103bc600480360360208110156104d557600080fd5b50356001600160a01b0316611514565b6103bc611526565b6103bc6004803603602081101561050357600080fd5b50356001600160a01b031661152c565b6105396004803603602081101561052957600080fd5b50356001600160a01b031661153e565b6040805192835260208301919091528051918290030190f35b6102a36118e1565b61037c6004803603604081101561057057600080fd5b506001600160a01b038135169060200135611906565b6103bc611913565b610276600480360360208110156105a457600080fd5b50356001600160a01b0316611919565b610398611a81565b610398611a90565b610276600480360360e08110156105da57600080fd5b506001600160a01b03813581169160208101359091169060408101359060608101359060ff6080820135169060a08101359060c00135611a9f565b6102766004803603602081101561062b57600080fd5b503563ffffffff16611c9e565b6103bc6004803603604081101561064e57600080fd5b506001600160a01b0381358116916020013516611d6a565b610276611d87565b600d546001146106b6576040805162461bcd60e51b815260206004820152600e60248201526d15da5b995c9e4e881313d0d2d15160921b604482015290519081900360640190fd5b6000600d55841515806106c95750600084115b6107045760405162461bcd60e51b8152600401808060200182810382526023815260200180612a3f6023913960400191505060405180910390fd5b60008061070f61104b565b5091509150816001600160701b0316871080156107345750806001600160701b031686105b610785576040805162461bcd60e51b815260206004820152601f60248201527f50616e63616b653a20494e53554646494349454e545f4c495155494449545900604482015290519081900360640190fd5b60065460075460009182916001600160a01b039182169190811690891682148015906107c35750806001600160a01b0316896001600160a01b031614155b61080a576040805162461bcd60e51b815260206004820152601360248201527250616e63616b653a20494e56414c49445f544f60681b604482015290519081900360640190fd5b8a1561081b5761081b828a8d611ee6565b891561082c5761082c818a8c611ee6565b86156108e757886001600160a01b031663f941e33e338d8d8c8c6040518663ffffffff1660e01b815260040180866001600160a01b03166001600160a01b03168152602001858152602001848152602001806020018281038252848482818152602001925080828437600081840152601f19601f8201169050808301925050509650505050505050600060405180830381600087803b1580156108ce57600080fd5b505af11580156108e2573d6000803e3d6000fd5b505050505b604080516370a0823160e01b815230600482015290516001600160a01b038416916370a08231916024808301926020929190829003018186803b15801561092d57600080fd5b505afa158015610941573d6000803e3d6000fd5b505050506040513d602081101561095757600080fd5b5051604080516370a0823160e01b815230600482015290519195506001600160a01b038316916370a0823191602480820192602092909190829003018186803b1580156109a357600080fd5b505afa1580156109b7573d6000803e3d6000fd5b505050506040513d60208110156109cd57600080fd5b5051925060009150506001600160701b0385168a900383116109f05760006109ff565b89856001600160701b03160383035b9050600089856001600160701b0316038311610a1c576000610a2b565b89856001600160701b03160383035b90506000821180610a3c5750600081115b610a775760405162461bcd60e51b81526004018080602001828103825260228152602001806129f86022913960400191505060405180910390fd5b600c54600090610ab490610a9690859063ffffffff9081169061208016565b610aa88761271063ffffffff61208016565b9063ffffffff6120e316565b600c54909150600090610ad690610a9690859063ffffffff9081169061208016565b9050610b0e60405180604001604052806015815260200174506f6f6c202d2d2d2d2d2d2d2d2d2d2d2d2d2d2d2d60581b815250612133565b610b3a6040518060400160405280600a81526020016903130b630b731b29018160b51b815250876121dc565b610b6f6040518060400160405280600a81526020016903932b9b2b93b329018160b51b815250896001600160701b03166121dc565b610b9e6040518060400160405280600d81526020016c030b6b7bab73a10181027baba1609d1b8152508e6121dc565b610bcc6040518060400160405280600c81526020016b030b6b7bab73a10181024b7160a51b815250856121dc565b610c006040518060400160405280601281526020017118985b185b98d9480c08185a991d5cdd195960721b815250836121dc565b610c2c6040518060400160405280600a81526020016903130b630b731b29018960b51b815250866121dc565b610c616040518060400160405280600a81526020016903932b9b2b93b329018960b51b815250886001600160701b03166121dc565b610c906040518060400160405280600d81526020016c030b6b7bab73a10189027baba1609d1b8152508d6121dc565b610cbe6040518060400160405280600c81526020016b030b6b7bab73a10189024b7160a51b815250846121dc565b610cf26040518060400160405280601281526020017118985b185b98d9480c48185a991d5cdd195960721b815250826121dc565b60408051808201909152600a815269039bbb0b8103332b29d160b51b6020820152600c54610d26919063ffffffff166121dc565b60408051808201909152600681526502632b33a1d160d51b6020820152610d5c90610d57848463ffffffff61208016565b6121dc565b60408051808201909152600781526602934b3b43a1d160cd1b6020820152610dae90610d576305f5e100610da26001600160701b038d8116908d1663ffffffff61208016565b9063ffffffff61208016565b604080518082019091526006815265024b990259d160d51b6020820152610e0a90610df36305f5e100610da26001600160701b038d8116908d1663ffffffff61208016565b610e03858563ffffffff61208016565b101561228e565b610e2e6305f5e100610da26001600160701b038b8116908b1663ffffffff61208016565b610e3e838363ffffffff61208016565b1015610e7e576040805162461bcd60e51b815260206004820152600a60248201526950616e63616b653a204b60b01b604482015290519081900360640190fd5b5050610e8c8484888861233e565b60408051838152602081018390528082018d9052606081018c905290516001600160a01b038b169133917fd78ad95fa46c994b6551d0da85fc275fe613ce37657fb8d5e3d130840159d8229181900360800190a350506001600d55505050505050505050565b60008163ffffffff1611610f4d576040805162461bcd60e51b815260206004820152601860248201527f57696e657279506169723a206c6f776572207468656e20300000000000000000604482015290519081900360640190fd5b6005546001600160a01b03163314610fa4576040805162461bcd60e51b81526020600482015260156024820152742bb4b732b93ca830b4b91d102327a92124a22222a760591b604482015290519081900360640190fd5b6101f48163ffffffff161115610ffd576040805162461bcd60e51b815260206004820152601960248201527857696e657279506169723a20464f5242494444454e5f46454560381b604482015290519081900360640190fd5b600c805463ffffffff9092166401000000000267ffffffff0000000019909216919091179055565b6040518060400160405280600a81526020016957696e657279204c507360b01b81525081565b6008546001600160701b0380821692600160701b830490911691600160e01b900463ffffffff1690565b6000611082338484612500565b5060015b92915050565b6006546001600160a01b031681565b60005481565b6001600160a01b038316600090815260026020908152604080832033845290915281205460001914611126576001600160a01b0384166000908152600260209081526040808320338452909152902054611101908363ffffffff6120e316565b6001600160a01b03851660009081526002602090815260408083203384529091529020555b611131848484612562565b5060019392505050565b7f6e71edae12b1b97f4d1f60370fef10105fa2faae0126114a169c64845d6126c981565b601281565b60035481565b6005546001600160a01b031633146111bd576040805162461bcd60e51b81526020600482015260116024820152702bb4b732b93c9d102327a92124a22222a760791b604482015290519081900360640190fd5b600680546001600160a01b039384166001600160a01b03199182161790915560078054929093169116179055565b600c5463ffffffff1681565b60095481565b600a5481565b600c54640100000000900463ffffffff1681565b6000600d54600114611261576040805162461bcd60e51b815260206004820152600e60248201526d15da5b995c9e4e881313d0d2d15160921b604482015290519081900360640190fd5b6000600d8190558061127161104b565b50600654604080516370a0823160e01b815230600482015290519395509193506000926001600160a01b03909116916370a08231916024808301926020929190829003018186803b1580156112c557600080fd5b505afa1580156112d9573d6000803e3d6000fd5b505050506040513d60208110156112ef57600080fd5b5051600754604080516370a0823160e01b815230600482015290519293506000926001600160a01b03909216916370a0823191602480820192602092909190829003018186803b15801561134257600080fd5b505afa158015611356573d6000803e3d6000fd5b505050506040513d602081101561136c57600080fd5b50519050600061138b836001600160701b03871663ffffffff6120e316565b905060006113a8836001600160701b03871663ffffffff6120e316565b905060006113b6878761261c565b600054909150806113f3576113df6103e8610aa86113da878763ffffffff61208016565b61278d565b98506113ee60006103e86127df565b611442565b61143f6001600160701b038916611410868463ffffffff61208016565b8161141757fe5b046001600160701b038916611432868563ffffffff61208016565b8161143957fe5b04612875565b98505b600089116114815760405162461bcd60e51b8152600401808060200182810382526025815260200180612a1a6025913960400191505060405180910390fd5b61148b8a8a6127df565b61149786868a8a61233e565b81156114c7576008546114c3906001600160701b0380821691600160701b90041663ffffffff61208016565b600b555b6040805185815260208101859052815133927f4c209b5fc8ad50758f13e2e1088ba56a560dff690a1c6fef26394f4c03821c4f928290030190a250506001600d5550949695505050505050565b60016020526000908152604090205481565b600b5481565b60046020526000908152604090205481565b600080600d54600114611589576040805162461bcd60e51b815260206004820152600e60248201526d15da5b995c9e4e881313d0d2d15160921b604482015290519081900360640190fd5b6000600d8190558061159961104b565b50600654600754604080516370a0823160e01b815230600482015290519496509294506001600160a01b039182169391169160009184916370a08231916024808301926020929190829003018186803b1580156115f557600080fd5b505afa158015611609573d6000803e3d6000fd5b505050506040513d602081101561161f57600080fd5b5051604080516370a0823160e01b815230600482015290519192506000916001600160a01b038516916370a08231916024808301926020929190829003018186803b15801561166d57600080fd5b505afa158015611681573d6000803e3d6000fd5b505050506040513d602081101561169757600080fd5b5051306000908152600160205260408120549192506116b6888861261c565b600054909150806116cd848763ffffffff61208016565b816116d457fe5b049a50806116e8848663ffffffff61208016565b816116ef57fe5b04995060008b118015611702575060008a115b61173d5760405162461bcd60e51b81526004018080602001828103825260258152602001806129d36025913960400191505060405180910390fd5b611747308461288d565b611752878d8d611ee6565b61175d868d8c611ee6565b604080516370a0823160e01b815230600482015290516001600160a01b038916916370a08231916024808301926020929190829003018186803b1580156117a357600080fd5b505afa1580156117b7573d6000803e3d6000fd5b505050506040513d60208110156117cd57600080fd5b5051604080516370a0823160e01b815230600482015290519196506001600160a01b038816916370a0823191602480820192602092909190829003018186803b15801561181957600080fd5b505afa15801561182d573d6000803e3d6000fd5b505050506040513d602081101561184357600080fd5b5051935061185385858b8b61233e565b81156118835760085461187f906001600160701b0380821691600160701b90041663ffffffff61208016565b600b555b604080518c8152602081018c905281516001600160a01b038f169233927fdccd412f0b1252819cb1fd330b93224ca42612892bb3f4f789976e6d81936496929081900390910190a35050505050505050506001600d81905550915091565b60405180604001604052806009815260200168057696e6572792d4c560bc1b81525081565b6000611082338484612562565b6103e881565b600d54600114611961576040805162461bcd60e51b815260206004820152600e60248201526d15da5b995c9e4e881313d0d2d15160921b604482015290519081900360640190fd5b6000600d55600654600754600854604080516370a0823160e01b815230600482015290516001600160a01b039485169490931692611a109285928792611a0b926001600160701b03169185916370a0823191602480820192602092909190829003018186803b1580156119d357600080fd5b505afa1580156119e7573d6000803e3d6000fd5b505050506040513d60208110156119fd57600080fd5b50519063ffffffff6120e316565b611ee6565b600854604080516370a0823160e01b81523060048201529051611a779284928792611a0b92600160701b90046001600160701b0316916001600160a01b038616916370a0823191602480820192602092909190829003018186803b1580156119d357600080fd5b50506001600d5550565b6005546001600160a01b031681565b6007546001600160a01b031681565b42841015611ae6576040805162461bcd60e51b815260206004820152600f60248201526e15da5b995c9e4e8811561412549151608a1b604482015290519081900360640190fd5b6003546001600160a01b0380891660008181526004602090815260408083208054600180820190925582517f6e71edae12b1b97f4d1f60370fef10105fa2faae0126114a169c64845d6126c98186015280840196909652958d166060860152608085018c905260a085019590955260c08085018b90528151808603909101815260e08501825280519083012061190160f01b6101008601526101028501969096526101228085019690965280518085039096018652610142840180825286519683019690962095839052610162840180825286905260ff89166101828501526101a284018890526101c28401879052519193926101e280820193601f1981019281900390910190855afa158015611c01573d6000803e3d6000fd5b5050604051601f1901519150506001600160a01b03811615801590611c375750886001600160a01b0316816001600160a01b0316145b611c88576040805162461bcd60e51b815260206004820152601960248201527f57696e6572793a20494e56414c49445f5349474e415455524500000000000000604482015290519081900360640190fd5b611c93898989612500565b505050505050505050565b6005546001600160a01b03163314611cf5576040805162461bcd60e51b81526020600482015260156024820152742bb4b732b93ca830b4b91d102327a92124a22222a760591b604482015290519081900360640190fd5b6127108163ffffffff161115611d4e576040805162461bcd60e51b815260206004820152601960248201527857696e657279506169723a20464f5242494444454e5f46454560381b604482015290519081900360640190fd5b600c805463ffffffff191663ffffffff92909216919091179055565b600260209081526000928352604080842090915290825290205481565b600d54600114611dcf576040805162461bcd60e51b815260206004820152600e60248201526d15da5b995c9e4e881313d0d2d15160921b604482015290519081900360640190fd5b6000600d55600654604080516370a0823160e01b81523060048201529051611edf926001600160a01b0316916370a08231916024808301926020929190829003018186803b158015611e2057600080fd5b505afa158015611e34573d6000803e3d6000fd5b505050506040513d6020811015611e4a57600080fd5b5051600754604080516370a0823160e01b815230600482015290516001600160a01b03909216916370a0823191602480820192602092909190829003018186803b158015611e9757600080fd5b505afa158015611eab573d6000803e3d6000fd5b505050506040513d6020811015611ec157600080fd5b50516008546001600160701b0380821691600160701b90041661233e565b6001600d55565b604080518082018252601981527f7472616e7366657228616464726573732c75696e74323536290000000000000060209182015281516001600160a01b0385811660248301526044808301869052845180840390910181526064909201845291810180516001600160e01b031663a9059cbb60e01b1781529251815160009460609489169392918291908083835b60208310611f935780518252601f199092019160209182019101611f74565b6001836020036101000a0380198251168184511680821785525050505050509050019150506000604051808303816000865af19150503d8060008114611ff5576040519150601f19603f3d011682016040523d82523d6000602084013e611ffa565b606091505b5091509150818015612028575080511580612028575080806020019051602081101561202557600080fd5b50515b612079576040805162461bcd60e51b815260206004820152601760248201527f57696e6572793a205452414e534645525f4641494c4544000000000000000000604482015290519081900360640190fd5b5050505050565b600081158061209b5750508082028282828161209857fe5b04145b611086576040805162461bcd60e51b815260206004820152601460248201527364732d6d6174682d6d756c2d6f766572666c6f7760601b604482015290519081900360640190fd5b80820382811115611086576040805162461bcd60e51b815260206004820152601560248201527464732d6d6174682d7375622d756e646572666c6f7760581b604482015290519081900360640190fd5b6121d9816040516024018080602001828103825283818151815260200191508051906020019080838360005b8381101561217757818101518382015260200161215f565b50505050905090810190601f1680156121a45780820380516001836020036101000a031916815260200191505b5060408051601f198184030181529190526020810180516001600160e01b031663104c13eb60e21b179052925061292b915050565b50565b61228a82826040516024018080602001838152602001828103825284818151815260200191508051906020019080838360005b8381101561222757818101518382015260200161220f565b50505050905090810190601f1680156122545780820380516001836020036101000a031916815260200191505b5060408051601f198184030181529190526020810180516001600160e01b0316632d839cb360e21b179052935061292b92505050565b5050565b6040805182151560448201526024810191825283516064820152835161228a9285928592829160840190602086019080838360005b838110156122db5781810151838201526020016122c3565b50505050905090810190601f1680156123085780820380516001836020036101000a031916815260200191505b5060408051601f198184030181529190526020810180516001600160e01b031663c3b5563560e01b179052935061292b92505050565b6001600160701b03841180159061235c57506001600160701b038311155b6123a0576040805162461bcd60e51b815260206004820152601060248201526f57696e6572793a204f564552464c4f5760801b604482015290519081900360640190fd5b60085463ffffffff42811691600160e01b900481168203908116158015906123d057506001600160701b03841615155b80156123e457506001600160701b03831615155b15612455578063ffffffff16612412856123fd8661294c565b6001600160e01b03169063ffffffff61295e16565b600980546001600160e01b03929092169290920201905563ffffffff811661243d846123fd8761294c565b600a80546001600160e01b0392909216929092020190555b600880546dffffffffffffffffffffffffffff19166001600160701b03888116919091176dffffffffffffffffffffffffffff60701b1916600160701b8883168102919091176001600160e01b0316600160e01b63ffffffff871602179283905560408051848416815291909304909116602082015281517f1c411e9a96e071241c2f21f7726b17ae89e3cab4c78be50e062b03a9fffbbad1929181900390910190a1505050505050565b6001600160a01b03808416600081815260026020908152604080832094871680845294825291829020859055815185815291517f8c5be1e5ebec7d5bd14f71427d1e84f3dd0314c0f7b2291e5b200ac8c7c3b9259281900390910190a3505050565b6001600160a01b03831660009081526001602052604090205461258b908263ffffffff6120e316565b6001600160a01b0380851660009081526001602052604080822093909355908416815220546125c0908263ffffffff61298316565b6001600160a01b0380841660008181526001602090815260409182902094909455805185815290519193928716927fddf252ad1be2c89b69c2b068fc378daa952ba7f163c4a11628f55a4df523b3ef92918290030190a3505050565b600080600560009054906101000a90046001600160a01b03166001600160a01b031663017e7e586040518163ffffffff1660e01b815260040160206040518083038186803b15801561266d57600080fd5b505afa158015612681573d6000803e3d6000fd5b505050506040513d602081101561269757600080fd5b5051600b546001600160a01b0382161580159450919250906127795780156127745760006126da6113da6001600160701b0388811690881663ffffffff61208016565b905060006126e78361278d565b905080821115612771576000612715612706848463ffffffff6120e316565b6000549063ffffffff61208016565b600c5490915060009061274d90849061274190879063ffffffff64010000000090910481169061208016565b9063ffffffff61298316565b9050600081838161275a57fe5b049050801561276d5761276d87826127df565b5050505b50505b612785565b8015612785576000600b555b505092915050565b600060038211156127d0575080600160028204015b818110156127ca578091506002818285816127b957fe5b0401816127c257fe5b0490506127a2565b506127da565b81156127da575060015b919050565b6000546127f2908263ffffffff61298316565b60009081556001600160a01b03831681526001602052604090205461281d908263ffffffff61298316565b6001600160a01b03831660008181526001602090815260408083209490945583518581529351929391927fddf252ad1be2c89b69c2b068fc378daa952ba7f163c4a11628f55a4df523b3ef9281900390910190a35050565b60008183106128845781612886565b825b9392505050565b6001600160a01b0382166000908152600160205260409020546128b6908263ffffffff6120e316565b6001600160a01b038316600090815260016020526040812091909155546128e3908263ffffffff6120e316565b60009081556040805183815290516001600160a01b038516917fddf252ad1be2c89b69c2b068fc378daa952ba7f163c4a11628f55a4df523b3ef919081900360200190a35050565b80516a636f6e736f6c652e6c6f67602083016000808483855afa5050505050565b6001600160701b0316600160701b0290565b60006001600160701b0382166001600160e01b0384168161297b57fe5b049392505050565b80820182811015611086576040805162461bcd60e51b815260206004820152601460248201527364732d6d6174682d6164642d6f766572666c6f7760601b604482015290519081900360640190fdfe57696e6572793a20494e53554646494349454e545f4c49515549444954595f4255524e454450616e63616b653a20494e53554646494349454e545f494e5055545f414d4f554e5457696e6572793a20494e53554646494349454e545f4c49515549444954595f4d494e54454450616e63616b653a20494e53554646494349454e545f4f55545055545f414d4f554e54a265627a7a723158202aae9967e24b4740f61d101e13acb0eda0324d6d197e85aaa774a50794e8318364736f6c63430005100032454950373132446f6d61696e28737472696e67206e616d652c737472696e672076657273696f6e2c75696e7432353620636861696e49642c6164647265737320766572696679696e67436f6e747261637429a265627a7a723158202af511d462328a0736a17571806ac57a61dbe623b0957cd8d3a8ba516f43ce4b64736f6c634300051000326080604052600c805463ffffffff60201b1963ffffffff19909116601917166401000000001790556001600d5534801561003857600080fd5b506040514690806052612bbe8239604080519182900360520182208282018252600a83526957696e657279204c507360b01b6020938401528151808301835260018152603160f81b908401528151808401919091527f209f97c6c98b3e10fddb1b3b88872f6547eb8cd111c9b6c664e6507a7cfdccb8818301527fc89efdaa54c0f20c7adf612882df0950f5a951637e0307cdcb4c672f298b8bc6606082015260808101949094523060a0808601919091528151808603909101815260c09094019052825192019190912060035550600580546001600160a01b03191633179055612a96806101286000396000f3fe608060405234801561001057600080fd5b50600436106101e55760003560e01c80636827e7641161010f578063ba9a7a56116100a2578063d505accf11610071578063d505accf146105c4578063d6d788c314610615578063dd62ed3e14610638578063fff6cae914610666576101e5565b8063ba9a7a5614610586578063bc25cf771461058e578063c45a0155146105b4578063d21220a7146105bc576101e5565b80637ecebe00116100de5780637ecebe00146104ed57806389afcb441461051357806395d89b4114610552578063a9059cbb1461055a576101e5565b80636827e764146104915780636a6278421461049957806370a08231146104bf5780637464fc3d146104e5576101e5565b806323b872dd11610187578063485cc95511610156578063485cc9551461043257806354cf2aeb146104605780635909c0d5146104815780635a3d549314610489576101e5565b806323b872dd146103ce57806330adf81f14610404578063313ce5671461040c5780633644e5151461042a576101e5565b80630902f1ac116101c35780630902f1ac14610318578063095ea7b3146103505780630dfe16811461039057806318160ddd146103b4576101e5565b8063022c0d9f146101ea57806303c150b01461027857806306fdde031461029b575b600080fd5b6102766004803603608081101561020057600080fd5b8135916020810135916001600160a01b03604083013516919081019060808101606082013564010000000081111561023757600080fd5b82018360208201111561024957600080fd5b8035906020019184600183028401116401000000008311171561026b57600080fd5b50909250905061066e565b005b6102766004803603602081101561028e57600080fd5b503563ffffffff16610ef2565b6102a3611025565b6040805160208082528351818301528351919283929083019185019080838360005b838110156102dd5781810151838201526020016102c5565b50505050905090810190601f16801561030a5780820380516001836020036101000a031916815260200191505b509250505060405180910390f35b61032061104b565b604080516001600160701b03948516815292909316602083015263ffffffff168183015290519081900360600190f35b61037c6004803603604081101561036657600080fd5b506001600160a01b038135169060200135611075565b604080519115158252519081900360200190f35b61039861108c565b604080516001600160a01b039092168252519081900360200190f35b6103bc61109b565b60408051918252519081900360200190f35b61037c600480360360608110156103e457600080fd5b506001600160a01b038135811691602081013590911690604001356110a1565b6103bc61113b565b61041461115f565b6040805160ff9092168252519081900360200190f35b6103bc611164565b6102766004803603604081101561044857600080fd5b506001600160a01b038135811691602001351661116a565b6104686111eb565b6040805163ffffffff9092168252519081900360200190f35b6103bc6111f7565b6103bc6111fd565b610468611203565b6103bc600480360360208110156104af57600080fd5b50356001600160a01b0316611217565b6103bc600480360360208110156104d557600080fd5b50356001600160a01b0316611514565b6103bc611526565b6103bc6004803603602081101561050357600080fd5b50356001600160a01b031661152c565b6105396004803603602081101561052957600080fd5b50356001600160a01b031661153e565b6040805192835260208301919091528051918290030190f35b6102a36118e1565b61037c6004803603604081101561057057600080fd5b506001600160a01b038135169060200135611906565b6103bc611913565b610276600480360360208110156105a457600080fd5b50356001600160a01b0316611919565b610398611a81565b610398611a90565b610276600480360360e08110156105da57600080fd5b506001600160a01b03813581169160208101359091169060408101359060608101359060ff6080820135169060a08101359060c00135611a9f565b6102766004803603602081101561062b57600080fd5b503563ffffffff16611c9e565b6103bc6004803603604081101561064e57600080fd5b506001600160a01b0381358116916020013516611d6a565b610276611d87565b600d546001146106b6576040805162461bcd60e51b815260206004820152600e60248201526d15da5b995c9e4e881313d0d2d15160921b604482015290519081900360640190fd5b6000600d55841515806106c95750600084115b6107045760405162461bcd60e51b8152600401808060200182810382526023815260200180612a3f6023913960400191505060405180910390fd5b60008061070f61104b565b5091509150816001600160701b0316871080156107345750806001600160701b031686105b610785576040805162461bcd60e51b815260206004820152601f60248201527f50616e63616b653a20494e53554646494349454e545f4c495155494449545900604482015290519081900360640190fd5b60065460075460009182916001600160a01b039182169190811690891682148015906107c35750806001600160a01b0316896001600160a01b031614155b61080a576040805162461bcd60e51b815260206004820152601360248201527250616e63616b653a20494e56414c49445f544f60681b604482015290519081900360640190fd5b8a1561081b5761081b828a8d611ee6565b891561082c5761082c818a8c611ee6565b86156108e757886001600160a01b031663f941e33e338d8d8c8c6040518663ffffffff1660e01b815260040180866001600160a01b03166001600160a01b03168152602001858152602001848152602001806020018281038252848482818152602001925080828437600081840152601f19601f8201169050808301925050509650505050505050600060405180830381600087803b1580156108ce57600080fd5b505af11580156108e2573d6000803e3d6000fd5b505050505b604080516370a0823160e01b815230600482015290516001600160a01b038416916370a08231916024808301926020929190829003018186803b15801561092d57600080fd5b505afa158015610941573d6000803e3d6000fd5b505050506040513d602081101561095757600080fd5b5051604080516370a0823160e01b815230600482015290519195506001600160a01b038316916370a0823191602480820192602092909190829003018186803b1580156109a357600080fd5b505afa1580156109b7573d6000803e3d6000fd5b505050506040513d60208110156109cd57600080fd5b5051925060009150506001600160701b0385168a900383116109f05760006109ff565b89856001600160701b03160383035b9050600089856001600160701b0316038311610a1c576000610a2b565b89856001600160701b03160383035b90506000821180610a3c5750600081115b610a775760405162461bcd60e51b81526004018080602001828103825260228152602001806129f86022913960400191505060405180910390fd5b600c54600090610ab490610a9690859063ffffffff9081169061208016565b610aa88761271063ffffffff61208016565b9063ffffffff6120e316565b600c54909150600090610ad690610a9690859063ffffffff9081169061208016565b9050610b0e60405180604001604052806015815260200174506f6f6c202d2d2d2d2d2d2d2d2d2d2d2d2d2d2d2d60581b815250612133565b610b3a6040518060400160405280600a81526020016903130b630b731b29018160b51b815250876121dc565b610b6f6040518060400160405280600a81526020016903932b9b2b93b329018160b51b815250896001600160701b03166121dc565b610b9e6040518060400160405280600d81526020016c030b6b7bab73a10181027baba1609d1b8152508e6121dc565b610bcc6040518060400160405280600c81526020016b030b6b7bab73a10181024b7160a51b815250856121dc565b610c006040518060400160405280601281526020017118985b185b98d9480c08185a991d5cdd195960721b815250836121dc565b610c2c6040518060400160405280600a81526020016903130b630b731b29018960b51b815250866121dc565b610c616040518060400160405280600a81526020016903932b9b2b93b329018960b51b815250886001600160701b03166121dc565b610c906040518060400160405280600d81526020016c030b6b7bab73a10189027baba1609d1b8152508d6121dc565b610cbe6040518060400160405280600c81526020016b030b6b7bab73a10189024b7160a51b815250846121dc565b610cf26040518060400160405280601281526020017118985b185b98d9480c48185a991d5cdd195960721b815250826121dc565b60408051808201909152600a815269039bbb0b8103332b29d160b51b6020820152600c54610d26919063ffffffff166121dc565b60408051808201909152600681526502632b33a1d160d51b6020820152610d5c90610d57848463ffffffff61208016565b6121dc565b60408051808201909152600781526602934b3b43a1d160cd1b6020820152610dae90610d576305f5e100610da26001600160701b038d8116908d1663ffffffff61208016565b9063ffffffff61208016565b604080518082019091526006815265024b990259d160d51b6020820152610e0a90610df36305f5e100610da26001600160701b038d8116908d1663ffffffff61208016565b610e03858563ffffffff61208016565b101561228e565b610e2e6305f5e100610da26001600160701b038b8116908b1663ffffffff61208016565b610e3e838363ffffffff61208016565b1015610e7e576040805162461bcd60e51b815260206004820152600a60248201526950616e63616b653a204b60b01b604482015290519081900360640190fd5b5050610e8c8484888861233e565b60408051838152602081018390528082018d9052606081018c905290516001600160a01b038b169133917fd78ad95fa46c994b6551d0da85fc275fe613ce37657fb8d5e3d130840159d8229181900360800190a350506001600d55505050505050505050565b60008163ffffffff1611610f4d576040805162461bcd60e51b815260206004820152601860248201527f57696e657279506169723a206c6f776572207468656e20300000000000000000604482015290519081900360640190fd5b6005546001600160a01b03163314610fa4576040805162461bcd60e51b81526020600482015260156024820152742bb4b732b93ca830b4b91d102327a92124a22222a760591b604482015290519081900360640190fd5b6101f48163ffffffff161115610ffd576040805162461bcd60e51b815260206004820152601960248201527857696e657279506169723a20464f5242494444454e5f46454560381b604482015290519081900360640190fd5b600c805463ffffffff9092166401000000000267ffffffff0000000019909216919091179055565b6040518060400160405280600a81526020016957696e657279204c507360b01b81525081565b6008546001600160701b0380821692600160701b830490911691600160e01b900463ffffffff1690565b6000611082338484612500565b5060015b92915050565b6006546001600160a01b031681565b60005481565b6001600160a01b038316600090815260026020908152604080832033845290915281205460001914611126576001600160a01b0384166000908152600260209081526040808320338452909152902054611101908363ffffffff6120e316565b6001600160a01b03851660009081526002602090815260408083203384529091529020555b611131848484612562565b5060019392505050565b7f6e71edae12b1b97f4d1f60370fef10105fa2faae0126114a169c64845d6126c981565b601281565b60035481565b6005546001600160a01b031633146111bd576040805162461bcd60e51b81526020600482015260116024820152702bb4b732b93c9d102327a92124a22222a760791b604482015290519081900360640190fd5b600680546001600160a01b039384166001600160a01b03199182161790915560078054929093169116179055565b600c5463ffffffff1681565b60095481565b600a5481565b600c54640100000000900463ffffffff1681565b6000600d54600114611261576040805162461bcd60e51b815260206004820152600e60248201526d15da5b995c9e4e881313d0d2d15160921b604482015290519081900360640190fd5b6000600d8190558061127161104b565b50600654604080516370a0823160e01b815230600482015290519395509193506000926001600160a01b03909116916370a08231916024808301926020929190829003018186803b1580156112c557600080fd5b505afa1580156112d9573d6000803e3d6000fd5b505050506040513d60208110156112ef57600080fd5b5051600754604080516370a0823160e01b815230600482015290519293506000926001600160a01b03909216916370a0823191602480820192602092909190829003018186803b15801561134257600080fd5b505afa158015611356573d6000803e3d6000fd5b505050506040513d602081101561136c57600080fd5b50519050600061138b836001600160701b03871663ffffffff6120e316565b905060006113a8836001600160701b03871663ffffffff6120e316565b905060006113b6878761261c565b600054909150806113f3576113df6103e8610aa86113da878763ffffffff61208016565b61278d565b98506113ee60006103e86127df565b611442565b61143f6001600160701b038916611410868463ffffffff61208016565b8161141757fe5b046001600160701b038916611432868563ffffffff61208016565b8161143957fe5b04612875565b98505b600089116114815760405162461bcd60e51b8152600401808060200182810382526025815260200180612a1a6025913960400191505060405180910390fd5b61148b8a8a6127df565b61149786868a8a61233e565b81156114c7576008546114c3906001600160701b0380821691600160701b90041663ffffffff61208016565b600b555b6040805185815260208101859052815133927f4c209b5fc8ad50758f13e2e1088ba56a560dff690a1c6fef26394f4c03821c4f928290030190a250506001600d5550949695505050505050565b60016020526000908152604090205481565b600b5481565b60046020526000908152604090205481565b600080600d54600114611589576040805162461bcd60e51b815260206004820152600e60248201526d15da5b995c9e4e881313d0d2d15160921b604482015290519081900360640190fd5b6000600d8190558061159961104b565b50600654600754604080516370a0823160e01b815230600482015290519496509294506001600160a01b039182169391169160009184916370a08231916024808301926020929190829003018186803b1580156115f557600080fd5b505afa158015611609573d6000803e3d6000fd5b505050506040513d602081101561161f57600080fd5b5051604080516370a0823160e01b815230600482015290519192506000916001600160a01b038516916370a08231916024808301926020929190829003018186803b15801561166d57600080fd5b505afa158015611681573d6000803e3d6000fd5b505050506040513d602081101561169757600080fd5b5051306000908152600160205260408120549192506116b6888861261c565b600054909150806116cd848763ffffffff61208016565b816116d457fe5b049a50806116e8848663ffffffff61208016565b816116ef57fe5b04995060008b118015611702575060008a115b61173d5760405162461bcd60e51b81526004018080602001828103825260258152602001806129d36025913960400191505060405180910390fd5b611747308461288d565b611752878d8d611ee6565b61175d868d8c611ee6565b604080516370a0823160e01b815230600482015290516001600160a01b038916916370a08231916024808301926020929190829003018186803b1580156117a357600080fd5b505afa1580156117b7573d6000803e3d6000fd5b505050506040513d60208110156117cd57600080fd5b5051604080516370a0823160e01b815230600482015290519196506001600160a01b038816916370a0823191602480820192602092909190829003018186803b15801561181957600080fd5b505afa15801561182d573d6000803e3d6000fd5b505050506040513d602081101561184357600080fd5b5051935061185385858b8b61233e565b81156118835760085461187f906001600160701b0380821691600160701b90041663ffffffff61208016565b600b555b604080518c8152602081018c905281516001600160a01b038f169233927fdccd412f0b1252819cb1fd330b93224ca42612892bb3f4f789976e6d81936496929081900390910190a35050505050505050506001600d81905550915091565b60405180604001604052806009815260200168057696e6572792d4c560bc1b81525081565b6000611082338484612562565b6103e881565b600d54600114611961576040805162461bcd60e51b815260206004820152600e60248201526d15da5b995c9e4e881313d0d2d15160921b604482015290519081900360640190fd5b6000600d55600654600754600854604080516370a0823160e01b815230600482015290516001600160a01b039485169490931692611a109285928792611a0b926001600160701b03169185916370a0823191602480820192602092909190829003018186803b1580156119d357600080fd5b505afa1580156119e7573d6000803e3d6000fd5b505050506040513d60208110156119fd57600080fd5b50519063ffffffff6120e316565b611ee6565b600854604080516370a0823160e01b81523060048201529051611a779284928792611a0b92600160701b90046001600160701b0316916001600160a01b038616916370a0823191602480820192602092909190829003018186803b1580156119d357600080fd5b50506001600d5550565b6005546001600160a01b031681565b6007546001600160a01b031681565b42841015611ae6576040805162461bcd60e51b815260206004820152600f60248201526e15da5b995c9e4e8811561412549151608a1b604482015290519081900360640190fd5b6003546001600160a01b0380891660008181526004602090815260408083208054600180820190925582517f6e71edae12b1b97f4d1f60370fef10105fa2faae0126114a169c64845d6126c98186015280840196909652958d166060860152608085018c905260a085019590955260c08085018b90528151808603909101815260e08501825280519083012061190160f01b6101008601526101028501969096526101228085019690965280518085039096018652610142840180825286519683019690962095839052610162840180825286905260ff89166101828501526101a284018890526101c28401879052519193926101e280820193601f1981019281900390910190855afa158015611c01573d6000803e3d6000fd5b5050604051601f1901519150506001600160a01b03811615801590611c375750886001600160a01b0316816001600160a01b0316145b611c88576040805162461bcd60e51b815260206004820152601960248201527f57696e6572793a20494e56414c49445f5349474e415455524500000000000000604482015290519081900360640190fd5b611c93898989612500565b505050505050505050565b6005546001600160a01b03163314611cf5576040805162461bcd60e51b81526020600482015260156024820152742bb4b732b93ca830b4b91d102327a92124a22222a760591b604482015290519081900360640190fd5b6127108163ffffffff161115611d4e576040805162461bcd60e51b815260206004820152601960248201527857696e657279506169723a20464f5242494444454e5f46454560381b604482015290519081900360640190fd5b600c805463ffffffff191663ffffffff92909216919091179055565b600260209081526000928352604080842090915290825290205481565b600d54600114611dcf576040805162461bcd60e51b815260206004820152600e60248201526d15da5b995c9e4e881313d0d2d15160921b604482015290519081900360640190fd5b6000600d55600654604080516370a0823160e01b81523060048201529051611edf926001600160a01b0316916370a08231916024808301926020929190829003018186803b158015611e2057600080fd5b505afa158015611e34573d6000803e3d6000fd5b505050506040513d6020811015611e4a57600080fd5b5051600754604080516370a0823160e01b815230600482015290516001600160a01b03909216916370a0823191602480820192602092909190829003018186803b158015611e9757600080fd5b505afa158015611eab573d6000803e3d6000fd5b505050506040513d6020811015611ec157600080fd5b50516008546001600160701b0380821691600160701b90041661233e565b6001600d55565b604080518082018252601981527f7472616e7366657228616464726573732c75696e74323536290000000000000060209182015281516001600160a01b0385811660248301526044808301869052845180840390910181526064909201845291810180516001600160e01b031663a9059cbb60e01b1781529251815160009460609489169392918291908083835b60208310611f935780518252601f199092019160209182019101611f74565b6001836020036101000a0380198251168184511680821785525050505050509050019150506000604051808303816000865af19150503d8060008114611ff5576040519150601f19603f3d011682016040523d82523d6000602084013e611ffa565b606091505b5091509150818015612028575080511580612028575080806020019051602081101561202557600080fd5b50515b612079576040805162461bcd60e51b815260206004820152601760248201527f57696e6572793a205452414e534645525f4641494c4544000000000000000000604482015290519081900360640190fd5b5050505050565b600081158061209b5750508082028282828161209857fe5b04145b611086576040805162461bcd60e51b815260206004820152601460248201527364732d6d6174682d6d756c2d6f766572666c6f7760601b604482015290519081900360640190fd5b80820382811115611086576040805162461bcd60e51b815260206004820152601560248201527464732d6d6174682d7375622d756e646572666c6f7760581b604482015290519081900360640190fd5b6121d9816040516024018080602001828103825283818151815260200191508051906020019080838360005b8381101561217757818101518382015260200161215f565b50505050905090810190601f1680156121a45780820380516001836020036101000a031916815260200191505b5060408051601f198184030181529190526020810180516001600160e01b031663104c13eb60e21b179052925061292b915050565b50565b61228a82826040516024018080602001838152602001828103825284818151815260200191508051906020019080838360005b8381101561222757818101518382015260200161220f565b50505050905090810190601f1680156122545780820380516001836020036101000a031916815260200191505b5060408051601f198184030181529190526020810180516001600160e01b0316632d839cb360e21b179052935061292b92505050565b5050565b6040805182151560448201526024810191825283516064820152835161228a9285928592829160840190602086019080838360005b838110156122db5781810151838201526020016122c3565b50505050905090810190601f1680156123085780820380516001836020036101000a031916815260200191505b5060408051601f198184030181529190526020810180516001600160e01b031663c3b5563560e01b179052935061292b92505050565b6001600160701b03841180159061235c57506001600160701b038311155b6123a0576040805162461bcd60e51b815260206004820152601060248201526f57696e6572793a204f564552464c4f5760801b604482015290519081900360640190fd5b60085463ffffffff42811691600160e01b900481168203908116158015906123d057506001600160701b03841615155b80156123e457506001600160701b03831615155b15612455578063ffffffff16612412856123fd8661294c565b6001600160e01b03169063ffffffff61295e16565b600980546001600160e01b03929092169290920201905563ffffffff811661243d846123fd8761294c565b600a80546001600160e01b0392909216929092020190555b600880546dffffffffffffffffffffffffffff19166001600160701b03888116919091176dffffffffffffffffffffffffffff60701b1916600160701b8883168102919091176001600160e01b0316600160e01b63ffffffff871602179283905560408051848416815291909304909116602082015281517f1c411e9a96e071241c2f21f7726b17ae89e3cab4c78be50e062b03a9fffbbad1929181900390910190a1505050505050565b6001600160a01b03808416600081815260026020908152604080832094871680845294825291829020859055815185815291517f8c5be1e5ebec7d5bd14f71427d1e84f3dd0314c0f7b2291e5b200ac8c7c3b9259281900390910190a3505050565b6001600160a01b03831660009081526001602052604090205461258b908263ffffffff6120e316565b6001600160a01b0380851660009081526001602052604080822093909355908416815220546125c0908263ffffffff61298316565b6001600160a01b0380841660008181526001602090815260409182902094909455805185815290519193928716927fddf252ad1be2c89b69c2b068fc378daa952ba7f163c4a11628f55a4df523b3ef92918290030190a3505050565b600080600560009054906101000a90046001600160a01b03166001600160a01b031663017e7e586040518163ffffffff1660e01b815260040160206040518083038186803b15801561266d57600080fd5b505afa158015612681573d6000803e3d6000fd5b505050506040513d602081101561269757600080fd5b5051600b546001600160a01b0382161580159450919250906127795780156127745760006126da6113da6001600160701b0388811690881663ffffffff61208016565b905060006126e78361278d565b905080821115612771576000612715612706848463ffffffff6120e316565b6000549063ffffffff61208016565b600c5490915060009061274d90849061274190879063ffffffff64010000000090910481169061208016565b9063ffffffff61298316565b9050600081838161275a57fe5b049050801561276d5761276d87826127df565b5050505b50505b612785565b8015612785576000600b555b505092915050565b600060038211156127d0575080600160028204015b818110156127ca578091506002818285816127b957fe5b0401816127c257fe5b0490506127a2565b506127da565b81156127da575060015b919050565b6000546127f2908263ffffffff61298316565b60009081556001600160a01b03831681526001602052604090205461281d908263ffffffff61298316565b6001600160a01b03831660008181526001602090815260408083209490945583518581529351929391927fddf252ad1be2c89b69c2b068fc378daa952ba7f163c4a11628f55a4df523b3ef9281900390910190a35050565b60008183106128845781612886565b825b9392505050565b6001600160a01b0382166000908152600160205260409020546128b6908263ffffffff6120e316565b6001600160a01b038316600090815260016020526040812091909155546128e3908263ffffffff6120e316565b60009081556040805183815290516001600160a01b038516917fddf252ad1be2c89b69c2b068fc378daa952ba7f163c4a11628f55a4df523b3ef919081900360200190a35050565b80516a636f6e736f6c652e6c6f67602083016000808483855afa5050505050565b6001600160701b0316600160701b0290565b60006001600160701b0382166001600160e01b0384168161297b57fe5b049392505050565b80820182811015611086576040805162461bcd60e51b815260206004820152601460248201527364732d6d6174682d6164642d6f766572666c6f7760601b604482015290519081900360640190fdfe57696e6572793a20494e53554646494349454e545f4c49515549444954595f4255524e454450616e63616b653a20494e53554646494349454e545f494e5055545f414d4f554e5457696e6572793a20494e53554646494349454e545f4c49515549444954595f4d494e54454450616e63616b653a20494e53554646494349454e545f4f55545055545f414d4f554e54a265627a7a723158202aae9967e24b4740f61d101e13acb0eda0324d6d197e85aaa774a50794e8318364736f6c63430005100032454950373132446f6d61696e28737472696e67206e616d652c737472696e672076657273696f6e2c75696e7432353620636861696e49642c6164647265737320766572696679696e67436f6e747261637429",
  "devdoc": {
    "methods": {}
  },
  "userdoc": {
    "methods": {}
  },
  "storageLayout": {
    "storage": [
      {
        "astId": 392,
        "contract": "contracts/WineryFactory.sol:WineryFactory",
        "label": "feeTo",
        "offset": 0,
        "slot": "0",
        "type": "t_address"
      },
      {
        "astId": 394,
        "contract": "contracts/WineryFactory.sol:WineryFactory",
        "label": "feeToSetter",
        "offset": 0,
        "slot": "1",
        "type": "t_address"
      },
      {
        "astId": 405,
        "contract": "contracts/WineryFactory.sol:WineryFactory",
        "label": "INIT_CODE_HASH",
        "offset": 0,
        "slot": "2",
        "type": "t_bytes32"
      },
      {
        "astId": 411,
        "contract": "contracts/WineryFactory.sol:WineryFactory",
        "label": "getPair",
        "offset": 0,
        "slot": "3",
        "type": "t_mapping(t_address,t_mapping(t_address,t_address))"
      },
      {
        "astId": 414,
        "contract": "contracts/WineryFactory.sol:WineryFactory",
        "label": "allPairs",
        "offset": 0,
        "slot": "4",
        "type": "t_array(t_address)dyn_storage"
      }
    ],
    "types": {
      "t_address": {
        "encoding": "inplace",
        "label": "address",
        "numberOfBytes": "20"
      },
      "t_array(t_address)dyn_storage": {
        "base": "t_address",
        "encoding": "dynamic_array",
        "label": "address[]",
        "numberOfBytes": "32"
      },
      "t_bytes32": {
        "encoding": "inplace",
        "label": "bytes32",
        "numberOfBytes": "32"
      },
      "t_mapping(t_address,t_address)": {
        "encoding": "mapping",
        "key": "t_address",
        "label": "mapping(address => address)",
        "numberOfBytes": "32",
        "value": "t_address"
      },
      "t_mapping(t_address,t_mapping(t_address,t_address))": {
        "encoding": "mapping",
        "key": "t_address",
        "label": "mapping(address => mapping(address => address))",
        "numberOfBytes": "32",
        "value": "t_mapping(t_address,t_address)"
      }
    }
  }
}