{
  "address": "0xF32D39ff9f6Aa7a7A64d7a4F00a54826Ef791a55",
  "abi": [
    {
      "inputs": [
        {
          "internalType": "address",
          "name": "_factory",
          "type": "address"
        },
        {
          "internalType": "address",
          "name": "_WETH",
          "type": "address"
        }
      ],
      "stateMutability": "nonpayable",
      "type": "constructor"
    },
    {
      "anonymous": false,
      "inputs": [
        {
          "indexed": true,
          "internalType": "address",
          "name": "previousOwner",
          "type": "address"
        },
        {
          "indexed": true,
          "internalType": "address",
          "name": "newOwner",
          "type": "address"
        }
      ],
      "name": "OwnershipTransferred",
      "type": "event"
    },
    {
      "inputs": [],
      "name": "WETH",
      "outputs": [
        {
          "internalType": "address",
          "name": "",
          "type": "address"
        }
      ],
      "stateMutability": "view",
      "type": "function"
    },
    {
      "inputs": [
        {
          "internalType": "address",
          "name": "tokenA",
          "type": "address"
        },
        {
          "internalType": "address",
          "name": "tokenB",
          "type": "address"
        },
        {
          "internalType": "uint256",
          "name": "amountADesired",
          "type": "uint256"
        },
        {
          "internalType": "uint256",
          "name": "amountBDesired",
          "type": "uint256"
        },
        {
          "internalType": "uint256",
          "name": "amountAMin",
          "type": "uint256"
        },
        {
          "internalType": "uint256",
          "name": "amountBMin",
          "type": "uint256"
        },
        {
          "internalType": "address",
          "name": "to",
          "type": "address"
        },
        {
          "internalType": "uint256",
          "name": "deadline",
          "type": "uint256"
        }
      ],
      "name": "addLiquidity",
      "outputs": [
        {
          "internalType": "uint256",
          "name": "amountA",
          "type": "uint256"
        },
        {
          "internalType": "uint256",
          "name": "amountB",
          "type": "uint256"
        },
        {
          "internalType": "uint256",
          "name": "liquidity",
          "type": "uint256"
        }
      ],
      "stateMutability": "nonpayable",
      "type": "function"
    },
    {
      "inputs": [
        {
          "internalType": "address",
          "name": "token",
          "type": "address"
        },
        {
          "internalType": "uint256",
          "name": "amountTokenDesired",
          "type": "uint256"
        },
        {
          "internalType": "uint256",
          "name": "amountTokenMin",
          "type": "uint256"
        },
        {
          "internalType": "uint256",
          "name": "amountETHMin",
          "type": "uint256"
        },
        {
          "internalType": "address",
          "name": "to",
          "type": "address"
        },
        {
          "internalType": "uint256",
          "name": "deadline",
          "type": "uint256"
        }
      ],
      "name": "addLiquidityETH",
      "outputs": [
        {
          "internalType": "uint256",
          "name": "amountToken",
          "type": "uint256"
        },
        {
          "internalType": "uint256",
          "name": "amountETH",
          "type": "uint256"
        },
        {
          "internalType": "uint256",
          "name": "liquidity",
          "type": "uint256"
        }
      ],
      "stateMutability": "payable",
      "type": "function"
    },
    {
      "inputs": [],
      "name": "factory",
      "outputs": [
        {
          "internalType": "address",
          "name": "",
          "type": "address"
        }
      ],
      "stateMutability": "view",
      "type": "function"
    },
    {
      "inputs": [
        {
          "internalType": "uint256",
          "name": "amountOut",
          "type": "uint256"
        },
        {
          "internalType": "uint256",
          "name": "reserveIn",
          "type": "uint256"
        },
        {
          "internalType": "uint256",
          "name": "reserveOut",
          "type": "uint256"
        },
        {
          "internalType": "uint256",
          "name": "swapFee",
          "type": "uint256"
        }
      ],
      "name": "getAmountIn",
      "outputs": [
        {
          "internalType": "uint256",
          "name": "amountIn",
          "type": "uint256"
        }
      ],
      "stateMutability": "view",
      "type": "function"
    },
    {
      "inputs": [
        {
          "internalType": "uint256",
          "name": "amountIn",
          "type": "uint256"
        },
        {
          "internalType": "uint256",
          "name": "reserveIn",
          "type": "uint256"
        },
        {
          "internalType": "uint256",
          "name": "reserveOut",
          "type": "uint256"
        },
        {
          "internalType": "uint256",
          "name": "swapFee",
          "type": "uint256"
        }
      ],
      "name": "getAmountOut",
      "outputs": [
        {
          "internalType": "uint256",
          "name": "amountOut",
          "type": "uint256"
        }
      ],
      "stateMutability": "view",
      "type": "function"
    },
    {
      "inputs": [
        {
          "internalType": "uint256",
          "name": "amountOut",
          "type": "uint256"
        },
        {
          "internalType": "address[]",
          "name": "path",
          "type": "address[]"
        }
      ],
      "name": "getAmountsIn",
      "outputs": [
        {
          "internalType": "uint256[]",
          "name": "amounts",
          "type": "uint256[]"
        }
      ],
      "stateMutability": "view",
      "type": "function"
    },
    {
      "inputs": [
        {
          "internalType": "uint256",
          "name": "amountIn",
          "type": "uint256"
        },
        {
          "internalType": "address[]",
          "name": "path",
          "type": "address[]"
        }
      ],
      "name": "getAmountsOut",
      "outputs": [
        {
          "internalType": "uint256[]",
          "name": "amounts",
          "type": "uint256[]"
        }
      ],
      "stateMutability": "view",
      "type": "function"
    },
    {
      "inputs": [],
      "name": "owner",
      "outputs": [
        {
          "internalType": "address",
          "name": "",
          "type": "address"
        }
      ],
      "stateMutability": "view",
      "type": "function"
    },
    {
      "inputs": [
        {
          "internalType": "uint256",
          "name": "amountA",
          "type": "uint256"
        },
        {
          "internalType": "uint256",
          "name": "reserveA",
          "type": "uint256"
        },
        {
          "internalType": "uint256",
          "name": "reserveB",
          "type": "uint256"
        }
      ],
      "name": "quote",
      "outputs": [
        {
          "internalType": "uint256",
          "name": "amountB",
          "type": "uint256"
        }
      ],
      "stateMutability": "pure",
      "type": "function"
    },
    {
      "inputs": [
        {
          "internalType": "address",
          "name": "tokenA",
          "type": "address"
        },
        {
          "internalType": "address",
          "name": "tokenB",
          "type": "address"
        },
        {
          "internalType": "uint256",
          "name": "liquidity",
          "type": "uint256"
        },
        {
          "internalType": "uint256",
          "name": "amountAMin",
          "type": "uint256"
        },
        {
          "internalType": "uint256",
          "name": "amountBMin",
          "type": "uint256"
        },
        {
          "internalType": "address",
          "name": "to",
          "type": "address"
        },
        {
          "internalType": "uint256",
          "name": "deadline",
          "type": "uint256"
        }
      ],
      "name": "removeLiquidity",
      "outputs": [
        {
          "internalType": "uint256",
          "name": "amountA",
          "type": "uint256"
        },
        {
          "internalType": "uint256",
          "name": "amountB",
          "type": "uint256"
        }
      ],
      "stateMutability": "nonpayable",
      "type": "function"
    },
    {
      "inputs": [
        {
          "internalType": "address",
          "name": "token",
          "type": "address"
        },
        {
          "internalType": "uint256",
          "name": "liquidity",
          "type": "uint256"
        },
        {
          "internalType": "uint256",
          "name": "amountTokenMin",
          "type": "uint256"
        },
        {
          "internalType": "uint256",
          "name": "amountETHMin",
          "type": "uint256"
        },
        {
          "internalType": "address",
          "name": "to",
          "type": "address"
        },
        {
          "internalType": "uint256",
          "name": "deadline",
          "type": "uint256"
        }
      ],
      "name": "removeLiquidityETH",
      "outputs": [
        {
          "internalType": "uint256",
          "name": "amountToken",
          "type": "uint256"
        },
        {
          "internalType": "uint256",
          "name": "amountETH",
          "type": "uint256"
        }
      ],
      "stateMutability": "nonpayable",
      "type": "function"
    },
    {
      "inputs": [
        {
          "internalType": "address",
          "name": "token",
          "type": "address"
        },
        {
          "internalType": "uint256",
          "name": "liquidity",
          "type": "uint256"
        },
        {
          "internalType": "uint256",
          "name": "amountTokenMin",
          "type": "uint256"
        },
        {
          "internalType": "uint256",
          "name": "amountETHMin",
          "type": "uint256"
        },
        {
          "internalType": "address",
          "name": "to",
          "type": "address"
        },
        {
          "internalType": "uint256",
          "name": "deadline",
          "type": "uint256"
        }
      ],
      "name": "removeLiquidityETHSupportingFeeOnTransferTokens",
      "outputs": [
        {
          "internalType": "uint256",
          "name": "amountETH",
          "type": "uint256"
        }
      ],
      "stateMutability": "nonpayable",
      "type": "function"
    },
    {
      "inputs": [
        {
          "internalType": "address",
          "name": "token",
          "type": "address"
        },
        {
          "internalType": "uint256",
          "name": "liquidity",
          "type": "uint256"
        },
        {
          "internalType": "uint256",
          "name": "amountTokenMin",
          "type": "uint256"
        },
        {
          "internalType": "uint256",
          "name": "amountETHMin",
          "type": "uint256"
        },
        {
          "internalType": "address",
          "name": "to",
          "type": "address"
        },
        {
          "internalType": "uint256",
          "name": "deadline",
          "type": "uint256"
        },
        {
          "internalType": "bool",
          "name": "approveMax",
          "type": "bool"
        },
        {
          "internalType": "uint8",
          "name": "v",
          "type": "uint8"
        },
        {
          "internalType": "bytes32",
          "name": "r",
          "type": "bytes32"
        },
        {
          "internalType": "bytes32",
          "name": "s",
          "type": "bytes32"
        }
      ],
      "name": "removeLiquidityETHWithPermit",
      "outputs": [
        {
          "internalType": "uint256",
          "name": "amountToken",
          "type": "uint256"
        },
        {
          "internalType": "uint256",
          "name": "amountETH",
          "type": "uint256"
        }
      ],
      "stateMutability": "nonpayable",
      "type": "function"
    },
    {
      "inputs": [
        {
          "internalType": "address",
          "name": "token",
          "type": "address"
        },
        {
          "internalType": "uint256",
          "name": "liquidity",
          "type": "uint256"
        },
        {
          "internalType": "uint256",
          "name": "amountTokenMin",
          "type": "uint256"
        },
        {
          "internalType": "uint256",
          "name": "amountETHMin",
          "type": "uint256"
        },
        {
          "internalType": "address",
          "name": "to",
          "type": "address"
        },
        {
          "internalType": "uint256",
          "name": "deadline",
          "type": "uint256"
        },
        {
          "internalType": "bool",
          "name": "approveMax",
          "type": "bool"
        },
        {
          "internalType": "uint8",
          "name": "v",
          "type": "uint8"
        },
        {
          "internalType": "bytes32",
          "name": "r",
          "type": "bytes32"
        },
        {
          "internalType": "bytes32",
          "name": "s",
          "type": "bytes32"
        }
      ],
      "name": "removeLiquidityETHWithPermitSupportingFeeOnTransferTokens",
      "outputs": [
        {
          "internalType": "uint256",
          "name": "amountETH",
          "type": "uint256"
        }
      ],
      "stateMutability": "nonpayable",
      "type": "function"
    },
    {
      "inputs": [
        {
          "internalType": "address",
          "name": "tokenA",
          "type": "address"
        },
        {
          "internalType": "address",
          "name": "tokenB",
          "type": "address"
        },
        {
          "internalType": "uint256",
          "name": "liquidity",
          "type": "uint256"
        },
        {
          "internalType": "uint256",
          "name": "amountAMin",
          "type": "uint256"
        },
        {
          "internalType": "uint256",
          "name": "amountBMin",
          "type": "uint256"
        },
        {
          "internalType": "address",
          "name": "to",
          "type": "address"
        },
        {
          "internalType": "uint256",
          "name": "deadline",
          "type": "uint256"
        },
        {
          "internalType": "bool",
          "name": "approveMax",
          "type": "bool"
        },
        {
          "internalType": "uint8",
          "name": "v",
          "type": "uint8"
        },
        {
          "internalType": "bytes32",
          "name": "r",
          "type": "bytes32"
        },
        {
          "internalType": "bytes32",
          "name": "s",
          "type": "bytes32"
        }
      ],
      "name": "removeLiquidityWithPermit",
      "outputs": [
        {
          "internalType": "uint256",
          "name": "amountA",
          "type": "uint256"
        },
        {
          "internalType": "uint256",
          "name": "amountB",
          "type": "uint256"
        }
      ],
      "stateMutability": "nonpayable",
      "type": "function"
    },
    {
      "inputs": [],
      "name": "renounceOwnership",
      "outputs": [],
      "stateMutability": "nonpayable",
      "type": "function"
    },
    {
      "inputs": [
        {
          "internalType": "address",
          "name": "_swapFeeReward",
          "type": "address"
        }
      ],
      "name": "setSwapFeeReward",
      "outputs": [],
      "stateMutability": "nonpayable",
      "type": "function"
    },
    {
      "inputs": [
        {
          "internalType": "uint256",
          "name": "amountOut",
          "type": "uint256"
        },
        {
          "internalType": "address[]",
          "name": "path",
          "type": "address[]"
        },
        {
          "internalType": "address",
          "name": "to",
          "type": "address"
        },
        {
          "internalType": "uint256",
          "name": "deadline",
          "type": "uint256"
        }
      ],
      "name": "swapETHForExactTokens",
      "outputs": [
        {
          "internalType": "uint256[]",
          "name": "amounts",
          "type": "uint256[]"
        }
      ],
      "stateMutability": "payable",
      "type": "function"
    },
    {
      "inputs": [
        {
          "internalType": "uint256",
          "name": "amountOutMin",
          "type": "uint256"
        },
        {
          "internalType": "address[]",
          "name": "path",
          "type": "address[]"
        },
        {
          "internalType": "address",
          "name": "to",
          "type": "address"
        },
        {
          "internalType": "uint256",
          "name": "deadline",
          "type": "uint256"
        }
      ],
      "name": "swapExactETHForTokens",
      "outputs": [
        {
          "internalType": "uint256[]",
          "name": "amounts",
          "type": "uint256[]"
        }
      ],
      "stateMutability": "payable",
      "type": "function"
    },
    {
      "inputs": [
        {
          "internalType": "uint256",
          "name": "amountOutMin",
          "type": "uint256"
        },
        {
          "internalType": "address[]",
          "name": "path",
          "type": "address[]"
        },
        {
          "internalType": "address",
          "name": "to",
          "type": "address"
        },
        {
          "internalType": "uint256",
          "name": "deadline",
          "type": "uint256"
        }
      ],
      "name": "swapExactETHForTokensSupportingFeeOnTransferTokens",
      "outputs": [],
      "stateMutability": "payable",
      "type": "function"
    },
    {
      "inputs": [
        {
          "internalType": "uint256",
          "name": "amountIn",
          "type": "uint256"
        },
        {
          "internalType": "uint256",
          "name": "amountOutMin",
          "type": "uint256"
        },
        {
          "internalType": "address[]",
          "name": "path",
          "type": "address[]"
        },
        {
          "internalType": "address",
          "name": "to",
          "type": "address"
        },
        {
          "internalType": "uint256",
          "name": "deadline",
          "type": "uint256"
        }
      ],
      "name": "swapExactTokensForETH",
      "outputs": [
        {
          "internalType": "uint256[]",
          "name": "amounts",
          "type": "uint256[]"
        }
      ],
      "stateMutability": "nonpayable",
      "type": "function"
    },
    {
      "inputs": [
        {
          "internalType": "uint256",
          "name": "amountIn",
          "type": "uint256"
        },
        {
          "internalType": "uint256",
          "name": "amountOutMin",
          "type": "uint256"
        },
        {
          "internalType": "address[]",
          "name": "path",
          "type": "address[]"
        },
        {
          "internalType": "address",
          "name": "to",
          "type": "address"
        },
        {
          "internalType": "uint256",
          "name": "deadline",
          "type": "uint256"
        }
      ],
      "name": "swapExactTokensForETHSupportingFeeOnTransferTokens",
      "outputs": [],
      "stateMutability": "nonpayable",
      "type": "function"
    },
    {
      "inputs": [
        {
          "internalType": "uint256",
          "name": "amountIn",
          "type": "uint256"
        },
        {
          "internalType": "uint256",
          "name": "amountOutMin",
          "type": "uint256"
        },
        {
          "internalType": "address[]",
          "name": "path",
          "type": "address[]"
        },
        {
          "internalType": "address",
          "name": "to",
          "type": "address"
        },
        {
          "internalType": "uint256",
          "name": "deadline",
          "type": "uint256"
        }
      ],
      "name": "swapExactTokensForTokens",
      "outputs": [
        {
          "internalType": "uint256[]",
          "name": "amounts",
          "type": "uint256[]"
        }
      ],
      "stateMutability": "nonpayable",
      "type": "function"
    },
    {
      "inputs": [
        {
          "internalType": "uint256",
          "name": "amountIn",
          "type": "uint256"
        },
        {
          "internalType": "uint256",
          "name": "amountOutMin",
          "type": "uint256"
        },
        {
          "internalType": "address[]",
          "name": "path",
          "type": "address[]"
        },
        {
          "internalType": "address",
          "name": "to",
          "type": "address"
        },
        {
          "internalType": "uint256",
          "name": "deadline",
          "type": "uint256"
        }
      ],
      "name": "swapExactTokensForTokensSupportingFeeOnTransferTokens",
      "outputs": [],
      "stateMutability": "nonpayable",
      "type": "function"
    },
    {
      "inputs": [],
      "name": "swapFeeReward",
      "outputs": [
        {
          "internalType": "address",
          "name": "",
          "type": "address"
        }
      ],
      "stateMutability": "view",
      "type": "function"
    },
    {
      "inputs": [
        {
          "internalType": "uint256",
          "name": "amountOut",
          "type": "uint256"
        },
        {
          "internalType": "uint256",
          "name": "amountInMax",
          "type": "uint256"
        },
        {
          "internalType": "address[]",
          "name": "path",
          "type": "address[]"
        },
        {
          "internalType": "address",
          "name": "to",
          "type": "address"
        },
        {
          "internalType": "uint256",
          "name": "deadline",
          "type": "uint256"
        }
      ],
      "name": "swapTokensForExactETH",
      "outputs": [
        {
          "internalType": "uint256[]",
          "name": "amounts",
          "type": "uint256[]"
        }
      ],
      "stateMutability": "nonpayable",
      "type": "function"
    },
    {
      "inputs": [
        {
          "internalType": "uint256",
          "name": "amountOut",
          "type": "uint256"
        },
        {
          "internalType": "uint256",
          "name": "amountInMax",
          "type": "uint256"
        },
        {
          "internalType": "address[]",
          "name": "path",
          "type": "address[]"
        },
        {
          "internalType": "address",
          "name": "to",
          "type": "address"
        },
        {
          "internalType": "uint256",
          "name": "deadline",
          "type": "uint256"
        }
      ],
      "name": "swapTokensForExactTokens",
      "outputs": [
        {
          "internalType": "uint256[]",
          "name": "amounts",
          "type": "uint256[]"
        }
      ],
      "stateMutability": "nonpayable",
      "type": "function"
    },
    {
      "inputs": [
        {
          "internalType": "address",
          "name": "newOwner",
          "type": "address"
        }
      ],
      "name": "transferOwnership",
      "outputs": [],
      "stateMutability": "nonpayable",
      "type": "function"
    },
    {
      "stateMutability": "payable",
      "type": "receive"
    }
  ],
  "transactionHash": "0xe223dd7f4413bf61dec1e5a2f798ff6212c3e2bc31dfc26b17ece5bd2c51ca10",
  "args": [
    "0x2a810409872AfC346F9B5b26571Fd6eC42EA4849",
    "0x5FbDB2315678afecb367f032d93F642f64180aa3"
  ],
  "numDeployments": 1,
  "solcInputHash": "123d308df013e9a39d3edc2c46e01353",
  "bytecode": "0x60c06040523480156200001157600080fd5b50604051620035a9380380620035a9833981810160405260408110156200003757600080fd5b50805160209091015160006200004c620000b5565b600080546001600160a01b0319166001600160a01b0383169081178255604051929350917f8be0079c531659141344cd1fd0a4f28419497f9722a3daafe3b4186f6b6457e0908290a3506001600160601b0319606092831b8116608052911b1660a052620000b9565b3390565b60805160601c60a05160601c61345362000156600039806101d65280610c485280610c835280611332528061166e5280611926528061197c52806119b05280611a24525080610d595280610d925280610eb952806110285280611274528061141b52806115f3528061161c528061164c52806117a5528061195a528061270352806127465280612c195280612cd25280612d8552506134536000f3fe6080604052600436106101c65760003560e01c80638da5cb5b116100f7578063c45a015511610095578063f2fde38b11610064578063f2fde38b14610b63578063f305d71914610b96578063fb3bdb41146106c7578063fbbeedf114610bdc576101ff565b8063c45a0155146109a6578063d06ca61f146109bb578063ded9382a14610a70578063e8e3370014610ae3576101ff565b8063ad615dec116100d1578063ad615dec1461083c578063af2979eb14610872578063b6f9de95146108c5578063baa2abde14610949576101ff565b80638da5cb5b146107e1578063a3ddb30b14610812578063ad5c464814610827576101ff565b8063571fd01211610164578063715018a61161013e578063715018a6146106b2578063791ac9471461061c5780637ff36ab5146106c75780638803dbee1461074b576101ff565b8063571fd0121461056d5780635b0d5984146105a95780635c11d7951461061c576101ff565b80632195995c116101a05780632195995c1461040b57806338ed1739146104895780634a25d94a1461027057806352707d8c1461051f576101ff565b806302751cec1461020457806318cbafe5146102705780631f00ca7414610356576101ff565b366101ff57336001600160a01b037f000000000000000000000000000000000000000000000000000000000000000016146101fd57fe5b005b600080fd5b34801561021057600080fd5b50610257600480360360c081101561022757600080fd5b506001600160a01b0381358116916020810135916040820135916060810135916080820135169060a00135610c0f565b6040805192835260208301919091528051918290030190f35b34801561027c57600080fd5b50610306600480360360a081101561029357600080fd5b813591602081013591810190606081016040820135600160201b8111156102b957600080fd5b8201836020820111156102cb57600080fd5b803590602001918460208302840111600160201b831117156102ec57600080fd5b91935091506001600160a01b038135169060200135610d15565b60408051602080825283518183015283519192839290830191858101910280838360005b8381101561034257818101518382015260200161032a565b505050509050019250505060405180910390f35b34801561036257600080fd5b506103066004803603604081101561037957600080fd5b81359190810190604081016020820135600160201b81111561039a57600080fd5b8201836020820111156103ac57600080fd5b803590602001918460208302840111600160201b831117156103cd57600080fd5b919080806020026020016040519081016040528093929190818152602001838360200280828437600092019190915250929550610d52945050505050565b34801561041757600080fd5b50610257600480360361016081101561042f57600080fd5b506001600160a01b038135811691602081013582169160408201359160608101359160808201359160a08101359091169060c08101359060e081013515159060ff6101008201351690610120810135906101400135610d88565b34801561049557600080fd5b50610306600480360360a08110156104ac57600080fd5b813591602081013591810190606081016040820135600160201b8111156104d257600080fd5b8201836020820111156104e457600080fd5b803590602001918460208302840111600160201b8311171561050557600080fd5b91935091506001600160a01b038135169060200135610e82565b34801561052b57600080fd5b5061055b6004803603608081101561054257600080fd5b50803590602081013590604081013590606001356110df565b60408051918252519081900360200190f35b34801561057957600080fd5b5061055b6004803603608081101561059057600080fd5b50803590602081013590604081013590606001356110f6565b3480156105b557600080fd5b5061055b60048036036101408110156105cd57600080fd5b506001600160a01b0381358116916020810135916040820135916060810135916080820135169060a08101359060c081013515159060ff60e08201351690610100810135906101200135611104565b34801561062857600080fd5b506101fd600480360360a081101561063f57600080fd5b813591602081013591810190606081016040820135600160201b81111561066557600080fd5b82018360208201111561067757600080fd5b803590602001918460208302840111600160201b8311171561069857600080fd5b91935091506001600160a01b038135169060200135611114565b3480156106be57600080fd5b506101fd61114d565b610306600480360360808110156106dd57600080fd5b81359190810190604081016020820135600160201b8111156106fe57600080fd5b82018360208201111561071057600080fd5b803590602001918460208302840111600160201b8311171561073157600080fd5b91935091506001600160a01b038135169060200135611201565b34801561075757600080fd5b50610306600480360360a081101561076e57600080fd5b813591602081013591810190606081016040820135600160201b81111561079457600080fd5b8201836020820111156107a657600080fd5b803590602001918460208302840111600160201b831117156107c757600080fd5b91935091506001600160a01b03813516906020013561123d565b3480156107ed57600080fd5b506107f6611312565b604080516001600160a01b039092168252519081900360200190f35b34801561081e57600080fd5b506107f6611321565b34801561083357600080fd5b506107f6611330565b34801561084857600080fd5b5061055b6004803603606081101561085f57600080fd5b5080359060208101359060400135611354565b34801561087e57600080fd5b5061055b600480360360c081101561089557600080fd5b506001600160a01b0381358116916020810135916040820135916060810135916080820135169060a00135611369565b6101fd600480360360808110156108db57600080fd5b81359190810190604081016020820135600160201b8111156108fc57600080fd5b82018360208201111561090e57600080fd5b803590602001918460208302840111600160201b8311171561092f57600080fd5b91935091506001600160a01b0381351690602001356113a9565b34801561095557600080fd5b50610257600480360360e081101561096c57600080fd5b506001600160a01b038135811691602081013582169160408201359160608101359160808201359160a08101359091169060c001356113e1565b3480156109b257600080fd5b506107f66115f1565b3480156109c757600080fd5b50610306600480360360408110156109de57600080fd5b81359190810190604081016020820135600160201b8111156109ff57600080fd5b820183602082011115610a1157600080fd5b803590602001918460208302840111600160201b83111715610a3257600080fd5b919080806020026020016040519081016040528093929190818152602001838360200280828437600092019190915250929550611615945050505050565b348015610a7c57600080fd5b506102576004803603610140811015610a9457600080fd5b506001600160a01b0381358116916020810135916040820135916060810135916080820135169060a08101359060c081013515159060ff60e08201351690610100810135906101200135611642565b348015610aef57600080fd5b50610b456004803603610100811015610b0757600080fd5b506001600160a01b038135811691602081013582169160408201359160608101359160808201359160a08101359160c0820135169060e00135611756565b60408051938452602084019290925282820152519081900360600190f35b348015610b6f57600080fd5b506101fd60048036036020811015610b8657600080fd5b50356001600160a01b0316611875565b610b45600480360360c0811015610bac57600080fd5b506001600160a01b0381358116916020810135916040820135916060810135916080820135169060a001356118eb565b348015610be857600080fd5b506101fd60048036036020811015610bff57600080fd5b50356001600160a01b0316611b6a565b6000808242811015610c42576040805162461bcd60e51b8152602060048201526000602482015290519081900360640190fd5b610c71897f00000000000000000000000000000000000000000000000000000000000000008a8a8a308a6113e1565b9093509150610c81898685611bf6565b7f00000000000000000000000000000000000000000000000000000000000000006001600160a01b0316632e1a7d4d836040518263ffffffff1660e01b815260040180828152602001915050600060405180830381600087803b158015610ce757600080fd5b505af1158015610cfb573d6000803e3d6000fd5b50505050610d098583611d4a565b50965096945050505050565b60608142811015610d47576040805162461bcd60e51b8152602060048201526000602482015290519081900360640190fd5b509695505050505050565b6060610d7f7f00000000000000000000000000000000000000000000000000000000000000008484611e42565b90505b92915050565b6000806000610db87f00000000000000000000000000000000000000000000000000000000000000008f8f611fc3565b9050600087610dc7578c610dcb565b6000195b6040805163d505accf60e01b815233600482015230602482015260448101839052606481018c905260ff8a16608482015260a4810189905260c4810188905290519192506001600160a01b0384169163d505accf9160e48082019260009290919082900301818387803b158015610e4157600080fd5b505af1158015610e55573d6000803e3d6000fd5b50505050610e688f8f8f8f8f8f8f6113e1565b809450819550505050509b509b9950505050505050505050565b60608142811015610eb4576040805162461bcd60e51b8152602060048201526000602482015290519081900360640190fd5b610f127f00000000000000000000000000000000000000000000000000000000000000008988888080602002602001604051908101604052809392919081815260200183836020028082843760009201919091525061205792505050565b9150610f366040518060600160405280602781526020016133a8602791398861224e565b60005b8251811015610fbb57610f6c6040518060400160405280600981526020016808ce4deda40e0c2e8d60bb1b815250612300565b610fb360405180604001604052806011815260200170416d6f756e73742025732069733a20257360781b81525082858481518110610fa657fe5b60200260200101516123a6565b600101610f39565b508682600184510381518110610fcd57fe5b60200260200101511015611002576040805162461bcd60e51b8152602060048201526000602482015290519081900360640190fd5b6110a08686600081811061101257fe5b905060200201356001600160a01b0316336110867f00000000000000000000000000000000000000000000000000000000000000008a8a600081811061105457fe5b905060200201356001600160a01b03168b8b600181811061107157fe5b905060200201356001600160a01b0316611fc3565b8560008151811061109357fe5b602002602001015161245c565b610d47828787808060200260200160405190810160405280939291908181526020018383602002808284376000920191909152508992506125b1915050565b60006110ed85858585612891565b95945050505050565b60006110ed8585858561299f565b5060019998505050505050505050565b8042811015611144576040805162461bcd60e51b8152602060048201526000602482015290519081900360640190fd5b50505050505050565b611155612a81565b6000546001600160a01b039081169116146111b7576040805162461bcd60e51b815260206004820181905260248201527f4f776e61626c653a2063616c6c6572206973206e6f7420746865206f776e6572604482015290519081900360640190fd5b600080546040516001600160a01b03909116907f8be0079c531659141344cd1fd0a4f28419497f9722a3daafe3b4186f6b6457e0908390a3600080546001600160a01b0319169055565b60608142811015611233576040805162461bcd60e51b8152602060048201526000602482015290519081900360640190fd5b5095945050505050565b6060814281101561126f576040805162461bcd60e51b8152602060048201526000602482015290519081900360640190fd5b6112cd7f000000000000000000000000000000000000000000000000000000000000000089888880806020026020016040519081016040528093929190818152602001838360200280828437600092019190915250611e4292505050565b915086826000815181106112dd57fe5b60200260200101511115611002576040805162461bcd60e51b8152602060048201526000602482015290519081900360640190fd5b6000546001600160a01b031690565b6001546001600160a01b031681565b7f000000000000000000000000000000000000000000000000000000000000000081565b6000611361848484612a85565b949350505050565b6000814281101561139b576040805162461bcd60e51b8152602060048201526000602482015290519081900360640190fd5b506001979650505050505050565b80428110156113d9576040805162461bcd60e51b8152602060048201526000602482015290519081900360640190fd5b505050505050565b6000808242811015611414576040805162461bcd60e51b8152602060048201526000602482015290519081900360640190fd5b60006114417f00000000000000000000000000000000000000000000000000000000000000008c8c611fc3565b604080516323b872dd60e01b81523360048201526001600160a01b03831660248201819052604482018d9052915192935090916323b872dd916064808201926020929091908290030181600087803b15801561149c57600080fd5b505af11580156114b0573d6000803e3d6000fd5b505050506040513d60208110156114c657600080fd5b50506040805163226bf2d160e21b81526001600160a01b03888116600483015282516000938493928616926389afcb44926024808301939282900301818787803b15801561151357600080fd5b505af1158015611527573d6000803e3d6000fd5b505050506040513d604081101561153d57600080fd5b508051602090910151909250905060006115578e8e612b2b565b509050806001600160a01b03168e6001600160a01b03161461157a57818361157d565b82825b90975095508a8710156115b1576040805162461bcd60e51b8152602060048201526000602482015290519081900360640190fd5b898610156115e0576040805162461bcd60e51b8152602060048201526000602482015290519081900360640190fd5b505050505097509795505050505050565b7f000000000000000000000000000000000000000000000000000000000000000081565b6060610d7f7f00000000000000000000000000000000000000000000000000000000000000008484612057565b60008060006116927f00000000000000000000000000000000000000000000000000000000000000008e7f0000000000000000000000000000000000000000000000000000000000000000611fc3565b90506000876116a1578c6116a5565b6000195b6040805163d505accf60e01b815233600482015230602482015260448101839052606481018c905260ff8a16608482015260a4810189905260c4810188905290519192506001600160a01b0384169163d505accf9160e48082019260009290919082900301818387803b15801561171b57600080fd5b505af115801561172f573d6000803e3d6000fd5b505050506117418e8e8e8e8e8e610c0f565b909f909e509c50505050505050505050505050565b6000806000834281101561178b576040805162461bcd60e51b8152602060048201526000602482015290519081900360640190fd5b6117998c8c8c8c8c8c612c09565b909450925060006117cb7f00000000000000000000000000000000000000000000000000000000000000008e8e611fc3565b90506117d98d33838861245c565b6117e58c33838761245c565b806001600160a01b0316636a627842886040518263ffffffff1660e01b815260040180826001600160a01b03168152602001915050602060405180830381600087803b15801561183457600080fd5b505af1158015611848573d6000803e3d6000fd5b505050506040513d602081101561185e57600080fd5b5051949d939c50939a509198505050505050505050565b61187d612a81565b6000546001600160a01b039081169116146118df576040805162461bcd60e51b815260206004820181905260248201527f4f776e61626c653a2063616c6c6572206973206e6f7420746865206f776e6572604482015290519081900360640190fd5b6118e881612e7a565b50565b60008060008342811015611920576040805162461bcd60e51b8152602060048201526000602482015290519081900360640190fd5b61194e8a7f00000000000000000000000000000000000000000000000000000000000000008b348c8c612c09565b909450925060006119a07f00000000000000000000000000000000000000000000000000000000000000008c7f0000000000000000000000000000000000000000000000000000000000000000611fc3565b90506119ae8b33838861245c565b7f00000000000000000000000000000000000000000000000000000000000000006001600160a01b031663d0e30db0856040518263ffffffff1660e01b81526004016000604051808303818588803b158015611a0957600080fd5b505af1158015611a1d573d6000803e3d6000fd5b50505050507f00000000000000000000000000000000000000000000000000000000000000006001600160a01b031663a9059cbb82866040518363ffffffff1660e01b815260040180836001600160a01b0316815260200182815260200192505050602060405180830381600087803b158015611a9957600080fd5b505af1158015611aad573d6000803e3d6000fd5b505050506040513d6020811015611ac357600080fd5b5051611acb57fe5b806001600160a01b0316636a627842886040518263ffffffff1660e01b815260040180826001600160a01b03168152602001915050602060405180830381600087803b158015611b1a57600080fd5b505af1158015611b2e573d6000803e3d6000fd5b505050506040513d6020811015611b4457600080fd5b5051925034841015611b5c57611b5c33853403611d4a565b505096509650969350505050565b611b72612a81565b6000546001600160a01b03908116911614611bd4576040805162461bcd60e51b815260206004820181905260248201527f4f776e61626c653a2063616c6c6572206973206e6f7420746865206f776e6572604482015290519081900360640190fd5b600180546001600160a01b0319166001600160a01b0392909216919091179055565b604080516001600160a01b038481166024830152604480830185905283518084039091018152606490920183526020820180516001600160e01b031663a9059cbb60e01b178152925182516000946060949389169392918291908083835b60208310611c735780518252601f199092019160209182019101611c54565b6001836020036101000a0380198251168184511680821785525050505050509050019150506000604051808303816000865af19150503d8060008114611cd5576040519150601f19603f3d011682016040523d82523d6000602084013e611cda565b606091505b5091509150818015611d08575080511580611d085750808060200190516020811015611d0557600080fd5b50515b611d435760405162461bcd60e51b815260040180806020018281038252602d8152602001806133f1602d913960400191505060405180910390fd5b5050505050565b604080516000808252602082019092526001600160a01b0384169083906040518082805190602001908083835b60208310611d965780518252601f199092019160209182019101611d77565b6001836020036101000a03801982511681845116808217855250505050505090500191505060006040518083038185875af1925050503d8060008114611df8576040519150601f19603f3d011682016040523d82523d6000602084013e611dfd565b606091505b5050905080611e3d5760405162461bcd60e51b81526004018080602001828103825260348152602001806132d76034913960400191505060405180910390fd5b505050565b6060600282511015611e9b576040805162461bcd60e51b815260206004820152601b60248201527f57696e6572794c6962726172793a20494e56414c49445f504154480000000000604482015290519081900360640190fd5b815167ffffffffffffffff81118015611eb357600080fd5b50604051908082528060200260200182016040528015611edd578160200160208202803683370190505b5090508281600183510381518110611ef157fe5b60209081029190910101528151600019015b8015611fbb57600080611f4087866001860381518110611f1f57fe5b6020026020010151878681518110611f3357fe5b6020026020010151612f1a565b91509150611f96848481518110611f5357fe5b60200260200101518383611f918b8a60018a0381518110611f7057fe5b60200260200101518b8a81518110611f8457fe5b6020026020010151612fe8565b61299f565b846001850381518110611fa557fe5b6020908102919091010152505060001901611f03565b509392505050565b6000836001600160a01b031663e6a4390584846040518363ffffffff1660e01b815260040180836001600160a01b03168152602001826001600160a01b031681526020019250505060206040518083038186803b15801561202357600080fd5b505afa158015612037573d6000803e3d6000fd5b505050506040513d602081101561204d57600080fd5b5051949350505050565b60606002825110156120b0576040805162461bcd60e51b815260206004820152601b60248201527f57696e6572794c6962726172793a20494e56414c49445f504154480000000000604482015290519081900360640190fd5b815167ffffffffffffffff811180156120c857600080fd5b506040519080825280602002602001820160405280156120f2578160200160208202803683370190505b509050828160008151811061210357fe5b60200260200101818152505060005b6001835103811015611fbb5761217e6040518060600160405280602a815260200161330b602a913984838151811061214657fe5b602002602001015185846001018151811061215d57fe5b602002602001015185858151811061217157fe5b6020026020010151613067565b6000806121a88786858151811061219157fe5b6020026020010151878660010181518110611f3357fe5b9150915060006121f38585815181106121bd57fe5b602002602001015184846121ee8c8b8a815181106121d757fe5b60200260200101518c8b60010181518110611f8457fe5b612891565b90508085856001018151811061220557fe5b6020026020010181815250506122436040518060400160405280601081526020016f020b6b7bab73a399037baba1034b99d160851b8152508261224e565b505050600101612112565b6122fc82826040516024018080602001838152602001828103825284818151815260200191508051906020019080838360005b83811015612299578181015183820152602001612281565b50505050905090810190601f1680156122c65780820380516001836020036101000a031916815260200191505b5060408051601f198184030181529190526020810180516001600160e01b0316632d839cb360e21b179052935061313792505050565b5050565b6118e8816040516024018080602001828103825283818151815260200191508051906020019080838360005b8381101561234457818101518382015260200161232c565b50505050905090810190601f1680156123715780820380516001836020036101000a031916815260200191505b5060408051601f198184030181529190526020810180516001600160e01b031663104c13eb60e21b1790529250613137915050565b611e3d8383836040516024018080602001848152602001838152602001828103825285818151815260200191508051906020019080838360005b838110156123f85781810151838201526020016123e0565b50505050905090810190601f1680156124255780820380516001836020036101000a031916815260200191505b5060408051601f198184030181529190526020810180516001600160e01b031663ca47c4eb60e01b17905294506131379350505050565b604080516001600160a01b0385811660248301528481166044830152606480830185905283518084039091018152608490920183526020820180516001600160e01b03166323b872dd60e01b17815292518251600094606094938a169392918291908083835b602083106124e15780518252601f1990920191602091820191016124c2565b6001836020036101000a0380198251168184511680821785525050505050509050019150506000604051808303816000865af19150503d8060008114612543576040519150601f19603f3d011682016040523d82523d6000602084013e612548565b606091505b5091509150818015612576575080511580612576575080806020019051602081101561257357600080fd5b50515b6113d95760405162461bcd60e51b81526004018080602001828103825260318152602001806132a66031913960400191505060405180910390fd5b60005b600183510381101561288b576000808483815181106125cf57fe5b60200260200101518584600101815181106125e657fe5b60200260200101519150915060006125fe8383612b2b565b509050600087856001018151811061261257fe5b60200260200101519050600080836001600160a01b0316866001600160a01b03161461264057826000612644565b6000835b60015491935091506001600160a01b0316156126eb576001546040805163152cf14360e31b81523360048201526001600160a01b0389811660248301528881166044830152606482018790529151919092169163a9678a189160848083019260209291908290030181600087803b1580156126be57600080fd5b505af11580156126d2573d6000803e3d6000fd5b505050506040513d60208110156126e857600080fd5b50505b600060028a510388106126fe578861273f565b61273f7f0000000000000000000000000000000000000000000000000000000000000000878c8b6002018151811061273257fe5b6020026020010151611fc3565b905061276c7f00000000000000000000000000000000000000000000000000000000000000008888611fc3565b6001600160a01b031663022c0d9f84848460006040519080825280601f01601f1916602001820160405280156127a9576020820181803683370190505b506040518563ffffffff1660e01b815260040180858152602001848152602001836001600160a01b0316815260200180602001828103825283818151815260200191508051906020019080838360005b838110156128115781810151838201526020016127f9565b50505050905090810190601f16801561283e5780820380516001836020036101000a031916815260200191505b5095505050505050600060405180830381600087803b15801561286057600080fd5b505af1158015612874573d6000803e3d6000fd5b5050600190990198506125b4975050505050505050565b50505050565b60008085116128d15760405162461bcd60e51b81526004018080602001828103825260288152602001806133576028913960400191505060405180910390fd5b6000841180156128e15750600083115b61291c5760405162461bcd60e51b815260040180806020018281038252602581526020018061325b6025913960400191505060405180910390fd5b6129476040518060400160405280600981526020016829bbb0b8103332b29d60b91b8152508361224e565b600061295f61295861271085613158565b87906131a8565b9050600061296d82866131a8565b9050600061298783612981896127106131a8565b9061320b565b905080828161299257fe5b0498975050505050505050565b60008085116129df5760405162461bcd60e51b815260040180806020018281038252602981526020018061337f6029913960400191505060405180910390fd5b6000841180156129ef5750600083115b612a2a5760405162461bcd60e51b815260040180806020018281038252602581526020018061325b6025913960400191505060405180910390fd5b6000612a42612710612a3c87896131a8565b906131a8565b90506000612a5f612a5561271086613158565b612a3c878a613158565b9050612a766001828481612a6f57fe5b049061320b565b979650505050505050565b3390565b6000808411612ac55760405162461bcd60e51b81526004018080602001828103825260228152602001806133cf6022913960400191505060405180910390fd5b600083118015612ad55750600082115b612b105760405162461bcd60e51b815260040180806020018281038252602581526020018061325b6025913960400191505060405180910390fd5b82612b1b85846131a8565b81612b2257fe5b04949350505050565b600080826001600160a01b0316846001600160a01b03161415612b7f5760405162461bcd60e51b81526004018080602001828103825260228152602001806133356022913960400191505060405180910390fd5b826001600160a01b0316846001600160a01b031610612b9f578284612ba2565b83835b90925090506001600160a01b038216612c02576040805162461bcd60e51b815260206004820152601b60248201527f57696e6572794c6962726172793a205a45524f5f414444524553530000000000604482015290519081900360640190fd5b9250929050565b60008060006001600160a01b03167f00000000000000000000000000000000000000000000000000000000000000006001600160a01b031663e6a439058a8a6040518363ffffffff1660e01b815260040180836001600160a01b03168152602001826001600160a01b031681526020019250505060206040518083038186803b158015612c9557600080fd5b505afa158015612ca9573d6000803e3d6000fd5b505050506040513d6020811015612cbf57600080fd5b50516001600160a01b03161415612d7d577f00000000000000000000000000000000000000000000000000000000000000006001600160a01b031663c9c6539689896040518363ffffffff1660e01b815260040180836001600160a01b03168152602001826001600160a01b0316815260200192505050602060405180830381600087803b158015612d5057600080fd5b505af1158015612d64573d6000803e3d6000fd5b505050506040513d6020811015612d7a57600080fd5b50505b600080612dab7f00000000000000000000000000000000000000000000000000000000000000008b8b612f1a565b91509150816000148015612dbd575080155b15612dcd57879350869250612e6d565b6000612dda898484612a85565b9050878111612e1d5785811015612e12576040805162461bcd60e51b8152602060048201526000602482015290519081900360640190fd5b889450925082612e6b565b6000612e2a898486612a85565b905089811115612e3657fe5b87811015612e65576040805162461bcd60e51b8152602060048201526000602482015290519081900360640190fd5b94508793505b505b5050965096945050505050565b6001600160a01b038116612ebf5760405162461bcd60e51b81526004018080602001828103825260268152602001806132806026913960400191505060405180910390fd5b600080546040516001600160a01b03808516939216917f8be0079c531659141344cd1fd0a4f28419497f9722a3daafe3b4186f6b6457e091a3600080546001600160a01b0319166001600160a01b0392909216919091179055565b6000806000612f298585612b2b565b509050600080612f3a888888611fc3565b6001600160a01b0316630902f1ac6040518163ffffffff1660e01b815260040160606040518083038186803b158015612f7257600080fd5b505afa158015612f86573d6000803e3d6000fd5b505050506040513d6060811015612f9c57600080fd5b5080516020909101516dffffffffffffffffffffffffffff91821693501690506001600160a01b0387811690841614612fd6578082612fd9565b81815b90999098509650505050505050565b6000612ff5848484611fc3565b6001600160a01b03166354cf2aeb6040518163ffffffff1660e01b815260040160206040518083038186803b15801561302d57600080fd5b505afa158015613041573d6000803e3d6000fd5b505050506040513d602081101561305757600080fd5b505163ffffffff16949350505050565b61288b848484846040516024018080602001856001600160a01b03168152602001846001600160a01b03168152602001838152602001828103825286818151815260200191508051906020019080838360005b838110156130d25781810151838201526020016130ba565b50505050905090810190601f1680156130ff5780820380516001836020036101000a031916815260200191505b5060408051601f198184030181529190526020810180516001600160e01b0316638ef3f39960e01b1790529550613137945050505050565b80516a636f6e736f6c652e6c6f67602083016000808483855afa5050505050565b80820382811115610d82576040805162461bcd60e51b815260206004820152601560248201527464732d6d6174682d7375622d756e646572666c6f7760581b604482015290519081900360640190fd5b60008115806131c3575050808202828282816131c057fe5b04145b610d82576040805162461bcd60e51b815260206004820152601460248201527364732d6d6174682d6d756c2d6f766572666c6f7760601b604482015290519081900360640190fd5b80820182811015610d82576040805162461bcd60e51b815260206004820152601460248201527364732d6d6174682d6164642d6f766572666c6f7760601b604482015290519081900360640190fdfe57696e6572794c6962726172793a20494e53554646494349454e545f4c49515549444954594f776e61626c653a206e6577206f776e657220697320746865207a65726f20616464726573735472616e7366657248656c7065723a3a7472616e7366657246726f6d3a207472616e7366657246726f6d206661696c65645472616e7366657248656c7065723a3a736166655472616e736665724554483a20455448207472616e73666572206661696c65645468697320706174682069733a2066726f6d20257320746f202573207769746820616d6f756e7420257357696e6572794c6962726172793a204944454e544943414c5f41444452455353455357696e6572794c6962726172793a20494e53554646494349454e545f494e5055545f414d4f554e5457696e6572794c6962726172793a20494e53554646494349454e545f4f55545055545f414d4f554e54416d6f756e74206d696e2069733a20202573202d2d2d2d2d2d2d2d2d2d2d2d2d2d2d2d2d2d2d2d57696e6572794c6962726172793a20494e53554646494349454e545f414d4f554e545472616e7366657248656c7065723a3a736166655472616e736665723a207472616e73666572206661696c6564a264697066735822122019c8d76cd51dd0df1b3ed8f667e1b7da49cb537fd69dc9161f46a76304d88d6e64736f6c634300060c0033",
  "devdoc": {
    "kind": "dev",
    "methods": {
      "owner()": {
        "details": "Returns the address of the current owner."
      },
      "renounceOwnership()": {
        "details": "Leaves the contract without owner. It will not be possible to call `onlyOwner` functions anymore. Can only be called by the current owner. NOTE: Renouncing ownership will leave the contract without an owner, thereby removing any functionality that is only available to the owner."
      },
      "transferOwnership(address)": {
        "details": "Transfers ownership of the contract to a new account (`newOwner`). Can only be called by the current owner."
      }
    },
    "version": 1
  },
  "userdoc": {
    "kind": "user",
    "methods": {},
    "version": 1
  },
  "storageLayout": {
    "storage": [
      {
        "astId": 2391,
        "contract": "contracts/WineryRouter.sol:WineryRouter",
        "label": "_owner",
        "offset": 0,
        "slot": "0",
        "type": "t_address"
      },
      {
        "astId": 186,
        "contract": "contracts/WineryRouter.sol:WineryRouter",
        "label": "swapFeeReward",
        "offset": 0,
        "slot": "1",
        "type": "t_address"
      }
    ],
    "types": {
      "t_address": {
        "encoding": "inplace",
        "label": "address",
        "numberOfBytes": "20"
      }
    }
  }
}