{
  "_format": "hh-sol-artifact-1",
  "contractName": "FlashswapMultipoolV2",
  "sourceName": "contracts/Flashbot_v2.sol",
  "abi": [
    {
      "anonymous": false,
      "inputs": [
        {
          "indexed": true,
          "internalType": "address",
          "name": "previousOwner",
          "type": "address"
        },
        {
          "indexed": true,
          "internalType": "address",
          "name": "newOwner",
          "type": "address"
        }
      ],
      "name": "OwnershipTransferred",
      "type": "event"
    },
    {
      "stateMutability": "nonpayable",
      "type": "fallback"
    },
    {
      "inputs": [],
      "name": "owner",
      "outputs": [
        {
          "internalType": "address",
          "name": "",
          "type": "address"
        }
      ],
      "stateMutability": "view",
      "type": "function"
    },
    {
      "inputs": [],
      "name": "renounceOwnership",
      "outputs": [],
      "stateMutability": "nonpayable",
      "type": "function"
    },
    {
      "inputs": [
        {
          "components": [
            {
              "internalType": "address",
              "name": "poolAddress",
              "type": "address"
            },
            {
              "internalType": "address",
              "name": "token0",
              "type": "address"
            },
            {
              "internalType": "address",
              "name": "token1",
              "type": "address"
            },
            {
              "internalType": "uint256",
              "name": "token0Reserve",
              "type": "uint256"
            },
            {
              "internalType": "uint256",
              "name": "token1Reserve",
              "type": "uint256"
            },
            {
              "internalType": "uint256",
              "name": "swapFee",
              "type": "uint256"
            }
          ],
          "internalType": "struct Pool[]",
          "name": "poolPath",
          "type": "tuple[]"
        },
        {
          "internalType": "address",
          "name": "baseToken",
          "type": "address"
        },
        {
          "internalType": "uint256",
          "name": "debtAmount",
          "type": "uint256"
        }
      ],
      "name": "startSwapInMultiPool",
      "outputs": [],
      "stateMutability": "nonpayable",
      "type": "function"
    },
    {
      "inputs": [
        {
          "internalType": "address",
          "name": "newOwner",
          "type": "address"
        }
      ],
      "name": "transferOwnership",
      "outputs": [],
      "stateMutability": "nonpayable",
      "type": "function"
    },
    {
      "inputs": [
        {
          "internalType": "address",
          "name": "erc20Address",
          "type": "address"
        }
      ],
      "name": "withdrawFund",
      "outputs": [],
      "stateMutability": "nonpayable",
      "type": "function"
    },
    {
      "stateMutability": "payable",
      "type": "receive"
    }
  ],
  "bytecode": "0x608060405234801561001057600080fd5b5061002161001c610026565b61002a565b61007a565b3390565b600080546001600160a01b038381166001600160a01b0319831681178455604051919092169283917f8be0079c531659141344cd1fd0a4f28419497f9722a3daafe3b4186f6b6457e09190a35050565b611862806100896000396000f3fe60806040526004361061004e5760003560e01c80635376f1a31461009b57806370599e8a146100bd578063715018a6146100dd5780638da5cb5b146100f2578063f2fde38b1461011d57610055565b3661005557005b34801561006157600080fd5b506000808080610074366004818461170a565b8101906100819190610fdc565b93509350935093506100958484848461013d565b50505050005b3480156100a757600080fd5b506100bb6100b6366004610fc0565b610658565b005b3480156100c957600080fd5b506100bb6100d836600461108f565b610774565b3480156100e957600080fd5b506100bb610b71565b3480156100fe57600080fd5b50610107610b85565b6040516101149190611372565b60405180910390f35b34801561012957600080fd5b506100bb610138366004610fc0565b610b94565b6001600160a01b038416301461016e5760405162461bcd60e51b815260040161016590611486565b60405180910390fd5b600080841161017d578261017f565b835b905060008280602001905181019061019791906111c9565b9050600081602001516001600160a01b031682604001516000815181106101ce57634e487b7160e01b600052603260045260246000fd5b6020026020010151602001516001600160a01b03161461021e57816040015160008151811061020d57634e487b7160e01b600052603260045260246000fd5b602002602001015160200151610250565b816040015160008151811061024357634e487b7160e01b600052603260045260246000fd5b6020026020010151604001515b9050806001600160a01b031663a9059cbb836040015160018151811061028657634e487b7160e01b600052603260045260246000fd5b602002602001015160000151856040518363ffffffff1660e01b81526004016102b0929190611386565b602060405180830381600087803b1580156102ca57600080fd5b505af11580156102de573d6000803e3d6000fd5b505050506040513d601f19601f8201168201806040525081019061030291906111a9565b5060015b826040015151811015610604576000826001600160a01b03168460400151838151811061034357634e487b7160e01b600052603260045260246000fd5b6020026020010151602001516001600160a01b031614905080610395578360400151828151811061038457634e487b7160e01b600052603260045260246000fd5b6020026020010151602001516103c6565b836040015182815181106103b957634e487b7160e01b600052603260045260246000fd5b6020026020010151604001515b92506000808261043557856040015184815181106103f457634e487b7160e01b600052603260045260246000fd5b6020026020010151608001518660400151858151811061042457634e487b7160e01b600052603260045260246000fd5b602002602001015160600151610496565b8560400151848151811061045957634e487b7160e01b600052603260045260246000fd5b6020026020010151606001518660400151858151811061048957634e487b7160e01b600052603260045260246000fd5b6020026020010151608001515b915091506104d5878383896040015188815181106104c457634e487b7160e01b600052603260045260246000fd5b602002602001015160a00151610bce565b9650600080846104e7578860006104eb565b6000895b915091508760400151868151811061051357634e487b7160e01b600052603260045260246000fd5b6020026020010151600001516001600160a01b031663022c0d9f838360018c60400151516105419190611789565b8a1061054d5730610588565b60408c015161055d8b6001611732565b8151811061057b57634e487b7160e01b600052603260045260246000fd5b6020026020010151600001515b604080516000815260208101918290526001600160e01b031960e087901b169091526105ba939291906024810161167e565b600060405180830381600087803b1580156105d457600080fd5b505af11580156105e8573d6000803e3d6000fd5b50505050505050505080806105fc906117d0565b915050610306565b5061064f826040015160008151811061062d57634e487b7160e01b600052603260045260246000fd5b602090810291909101810151518451918501516001600160a01b031691610c88565b50505050505050565b610660610cde565b6040516370a0823160e01b81526000906001600160a01b038316906370a082319061068f903090600401611372565b60206040518083038186803b1580156106a757600080fd5b505afa1580156106bb573d6000803e3d6000fd5b505050506040513d601f19601f820116820180604052508101906106df9190611312565b9050801561077057816001600160a01b031663a9059cbb6106fe610b85565b836040518363ffffffff1660e01b815260040161071c929190611386565b602060405180830381600087803b15801561073657600080fd5b505af115801561074a573d6000803e3d6000fd5b505050506040513d601f19601f8201168201806040525081019061076e91906111a9565b505b5050565b6040516370a0823160e01b81526000906001600160a01b038416906370a08231906107a3903090600401611372565b60206040518083038186803b1580156107bb57600080fd5b505afa1580156107cf573d6000803e3d6000fd5b505050506040513d601f19601f820116820180604052508101906107f39190611312565b90506000610966838660008151811061081c57634e487b7160e01b600052603260045260246000fd5b6020026020010151602001516001600160a01b0316866001600160a01b031614610872578660008151811061086157634e487b7160e01b600052603260045260246000fd5b6020026020010151608001516108a0565b8660008151811061089357634e487b7160e01b600052603260045260246000fd5b6020026020010151606001515b876000815181106108c157634e487b7160e01b600052603260045260246000fd5b6020026020010151602001516001600160a01b0316876001600160a01b031614610917578760008151811061090657634e487b7160e01b600052603260045260246000fd5b602002602001015160600151610945565b8760008151811061093857634e487b7160e01b600052603260045260246000fd5b6020026020010151608001515b886000815181106104c457634e487b7160e01b600052603260045260246000fd5b90506000808660008151811061098c57634e487b7160e01b600052603260045260246000fd5b6020026020010151602001516001600160a01b0316866001600160a01b0316146109b8578260006109bc565b6000835b915091506109c8610f8b565b8581526001600160a01b03871660208083019190915260408083018a9052516000916109f6918491016115d3565b604051602081830303815290604052905088600081518110610a2857634e487b7160e01b600052603260045260246000fd5b6020026020010151600001516001600160a01b031663022c0d9f858530856040518563ffffffff1660e01b8152600401610a65949392919061167e565b600060405180830381600087803b158015610a7f57600080fd5b505af1158015610a93573d6000803e3d6000fd5b5050505050505050506000836001600160a01b03166370a08231306040518263ffffffff1660e01b8152600401610aca9190611372565b60206040518083038186803b158015610ae257600080fd5b505afa158015610af6573d6000803e3d6000fd5b505050506040513d601f19601f82011682018060405250810190610b1a9190611312565b9050610b4b6040518060400160405280600d81526020016c2130b630b731b29020b33a32b960991b81525082610d1d565b818111610b6a5760405162461bcd60e51b8152600401610165906113d4565b5050505050565b610b79610cde565b610b836000610d62565b565b6000546001600160a01b031690565b610b9c610cde565b6001600160a01b038116610bc25760405162461bcd60e51b8152600401610165906113fa565b610bcb81610d62565b50565b6000808511610bef5760405162461bcd60e51b8152600401610165906114eb565b600084118015610bff5750600083115b610c1b5760405162461bcd60e51b8152600401610165906115a3565b60008215610c295782610c2c565b60195b90506000610c3c82612710611789565b610c46908861176a565b90506000610c54868361176a565b9050600082610c658961271061176a565b610c6f9190611732565b9050610c7b818361174a565b9998505050505050505050565b61076e8363a9059cbb60e01b8484604051602401610ca7929190611386565b60408051601f198184030181529190526020810180516001600160e01b03166001600160e01b031990931692909217909152610db2565b610ce6610e41565b6001600160a01b0316610cf7610b85565b6001600160a01b031614610b835760405162461bcd60e51b8152600401610165906114b6565b6107708282604051602401610d339291906113b2565b60408051601f198184030181529190526020810180516001600160e01b0316632d839cb360e21b179052610e45565b600080546001600160a01b038381166001600160a01b0319831681178455604051919092169283917f8be0079c531659141344cd1fd0a4f28419497f9722a3daafe3b4186f6b6457e09190a35050565b6000610e07826040518060400160405280602081526020017f5361666545524332303a206c6f772d6c6576656c2063616c6c206661696c6564815250856001600160a01b0316610e669092919063ffffffff16565b80519091501561076e5780806020019051810190610e2591906111a9565b61076e5760405162461bcd60e51b815260040161016590611559565b3390565b80516a636f6e736f6c652e6c6f67602083016000808483855afa5050505050565b6060610e758484600085610e7f565b90505b9392505050565b606082471015610ea15760405162461bcd60e51b815260040161016590611440565b610eaa85610f3f565b610ec65760405162461bcd60e51b815260040161016590611522565b600080866001600160a01b03168587604051610ee29190611356565b60006040518083038185875af1925050503d8060008114610f1f576040519150601f19603f3d011682016040523d82523d6000602084013e610f24565b606091505b5091509150610f34828286610f52565b979650505050505050565b6001600160a01b0381163b15155b919050565b60608315610f61575081610e78565b825115610f715782518084602001fd5b8160405162461bcd60e51b8152600401610165919061139f565b60405180606001604052806000815260200160006001600160a01b03168152602001606081525090565b8035610f4d81611817565b600060208284031215610fd1578081fd5b8135610e7881611817565b60008060008060808587031215610ff1578283fd5b8435610ffc81611817565b9350602085810135935060408601359250606086013567ffffffffffffffff80821115611027578384fd5b818801915088601f83011261103a578384fd5b81358181111561104c5761104c611801565b61105e601f8201601f191685016116b5565b91508082528984828501011115611073578485fd5b8084840185840137810190920192909252939692955090935050565b600080600060608085870312156110a4578384fd5b843567ffffffffffffffff8111156110ba578485fd5b8501601f810187136110ca578485fd5b803560206110df6110da836116e6565b6116b5565b8281528181019084830160c0808602870185018d10156110fd578a8bfd5b8a96505b858710156111835780828e031215611117578a8bfd5b611120816116b5565b823561112b81611817565b81528286013561113a81611817565b8187015260408381013561114d81611817565b9082015282890135898201526080808401359082015260a080840135908201528452600196909601959284019290810190611101565b50508098505050611195818901610fb5565b955050505050604084013590509250925092565b6000602082840312156111ba578081fd5b81518015158114610e78578182fd5b600060208083850312156111db578182fd5b825167ffffffffffffffff808211156111f2578384fd5b81850191506060808388031215611207578485fd5b611210816116b5565b835181528484015161122181611817565b8186015260408481015184811115611237578788fd5b80860195505088601f86011261124b578687fd5b8451935061125b6110da856116e6565b8481528681019086880160c080880289018a018d1015611279578a8bfd5b8a98505b878910156112fd5780828e031215611293578a8bfd5b61129c816116b5565b82516112a781611817565b8152828b01516112b681611817565b818c0152828601516112c781611817565b8187015282880151888201526080808401519082015260a08084015190820152845260019890980197928901929081019061127d565b50509183019190915250979650505050505050565b600060208284031215611323578081fd5b5051919050565b600081518084526113428160208601602086016117a0565b601f01601f19169290920160200192915050565b600082516113688184602087016117a0565b9190910192915050565b6001600160a01b0391909116815260200190565b6001600160a01b03929092168252602082015260400190565b600060208252610e78602083018461132a565b6000604082526113c5604083018561132a565b90508260208301529392505050565b6020808252600c908201526b4c6f73696e67206d6f6e657960a01b604082015260600190565b60208082526026908201527f4f776e61626c653a206e6577206f776e657220697320746865207a65726f206160408201526564647265737360d01b606082015260800190565b60208082526026908201527f416464726573733a20696e73756666696369656e742062616c616e636520666f6040820152651c8818d85b1b60d21b606082015260800190565b602080825260169082015275139bdd08199c9bdb481d1a1a5cc818dbdb9d1c9858dd60521b604082015260600190565b6020808252818101527f4f776e61626c653a2063616c6c6572206973206e6f7420746865206f776e6572604082015260600190565b60208082526019908201527f494e53554646494349454e545f494e5055545f414d4f554e5400000000000000604082015260600190565b6020808252601d908201527f416464726573733a2063616c6c20746f206e6f6e2d636f6e7472616374000000604082015260600190565b6020808252602a908201527f5361666545524332303a204552433230206f7065726174696f6e20646964206e6040820152691bdd081cdd58d8d9595960b21b606082015260800190565b602080825260169082015275494e53554646494349454e545f4c495155494449545960501b604082015260600190565b6020808252825182820152828101516001600160a01b039081166040808501919091528085015160608086018190528151608080880182905260009695909460a0948701939092858a0190895b8181101561166d5786518051861684528a81015186168b850152868101518616878501528481015185850152898101518a850152880151888401529589019560c090920191600101611620565b50909b9a5050505050505050505050565b600085825284602083015260018060a01b0384166040830152608060608301526116ab608083018461132a565b9695505050505050565b604051601f8201601f1916810167ffffffffffffffff811182821017156116de576116de611801565b604052919050565b600067ffffffffffffffff82111561170057611700611801565b5060209081020190565b60008085851115611719578182fd5b83861115611725578182fd5b5050820193919092039150565b60008219821115611745576117456117eb565b500190565b60008261176557634e487b7160e01b81526012600452602481fd5b500490565b6000816000190483118215151615611784576117846117eb565b500290565b60008282101561179b5761179b6117eb565b500390565b60005b838110156117bb5781810151838201526020016117a3565b838111156117ca576000848401525b50505050565b60006000198214156117e4576117e46117eb565b5060010190565b634e487b7160e01b600052601160045260246000fd5b634e487b7160e01b600052604160045260246000fd5b6001600160a01b0381168114610bcb57600080fdfea2646970667358221220f529d7316c0fea19d8526a4c18a35432a9ec21831151640e3b7087c5b64ecb0764736f6c63430008010033",
  "linkReferences": {},
  "deployedLinkReferences": {}
}